{
	"data": {
		"bytecode": {
			"linkReferences": {},
			"object": "6101806040525f600e60146101000a81548160ff0219169083600481111561002a576100296108e2565b5b021790555034801561003a575f5ffd5b50604051616ae7380380616ae7833981810160405281019061005c9190610b26565b8084848489806040518060400160405280600181526020017f31000000000000000000000000000000000000000000000000000000000000008152508c8c81600390816100a99190610e02565b5080600490816100b99190610e02565b5050506100d06005836102a160201b90919060201c565b61012081815250506100ec6006826102a160201b90919060201c565b6101408181525050818051906020012060e08181525050808051906020012061010081815250504660a081815250506101296102ee60201b60201c565b608081815250503073ffffffffffffffffffffffffffffffffffffffff1660c08173ffffffffffffffffffffffffffffffffffffffff1681525050505050600160098190555061017f828261034860201b60201c565b50506101915f826105ac60201b60201c565b506101a18161062860201b60201c565b50865f73ffffffffffffffffffffffffffffffffffffffff168173ffffffffffffffffffffffffffffffffffffffff1603610208576040517fd92e233d00000000000000000000000000000000000000000000000000000000815260040160405180910390fd5b61021a5f5f1b8961071360201b60201c565b5061024b7fa49807205ce4d355092ef5a8a18f56e8913cf4a201fbe287825b095693c217758961071360201b60201c565b5061027c7fe1dcbdb91df27212a29bc27177c840cf2f819ecf2187432e1fac86c2dd5dfca98961071360201b60201c565b5062ed4e004261028c9190610efe565b610160818152505050505050505050506110b3565b5f6020835110156102c2576102bb8361080960201b60201c565b90506102e8565b826102d28361086e60201b60201c565b5f0190816102e09190610e02565b5060ff5f1b90505b92915050565b5f7f8b73c3c69bb8fe3d512ecc4cf759cc79239f7b179b0ffacaa9a75d522b39400f60e05161010051463060405160200161032d959493929190610f67565b60405160208183030381529060405280519060200120905090565b5f5f600a5f9054906101000a900467ffffffffffffffff1667ffffffffffffffff1614801561039657505f600a60089054906101000a900467ffffffffffffffff1667ffffffffffffffff16145b90505f5f600a5f9054906101000a900467ffffffffffffffff1667ffffffffffffffff16141580156103e65750600a5f9054906101000a900467ffffffffffffffff1667ffffffffffffffff1642105b9050811580156103f4575080155b1561042b576040517f18b24c3600000000000000000000000000000000000000000000000000000000815260040160405180910390fd5b5f8467ffffffffffffffff16148061044c57505f8367ffffffffffffffff16145b15610483576040517f4994dc0200000000000000000000000000000000000000000000000000000000815260040160405180910390fd5b8267ffffffffffffffff168467ffffffffffffffff16106104d0576040517f4994dc0200000000000000000000000000000000000000000000000000000000815260040160405180910390fd5b428467ffffffffffffffff1611610513576040517f4994dc0200000000000000000000000000000000000000000000000000000000815260040160405180910390fd5b83600a5f6101000a81548167ffffffffffffffff021916908367ffffffffffffffff16021790555082600a60086101000a81548167ffffffffffffffff021916908367ffffffffffffffff1602179055508267ffffffffffffffff168467ffffffffffffffff167f709a99e52f3ad08814a91314c2ce5127558c0ffeb6d0a5df5a637276cb804d6e60405160405180910390a350505050565b5f8114806105b957508181105b156105f0576040517f39423ae400000000000000000000000000000000000000000000000000000000815260040160405180910390fd5b80600b81905550807f50e5341d7a4ad030a1a03c7b2bccfa67438c0bdf5c398a3b1d7a64babfbf97fe60405160405180910390a25050565b5f73ffffffffffffffffffffffffffffffffffffffff168173ffffffffffffffffffffffffffffffffffffffff160361068d576040517fcfe2ea6300000000000000000000000000000000000000000000000000000000815260040160405180910390fd5b80600e5f6101000a81548173ffffffffffffffffffffffffffffffffffffffff021916908373ffffffffffffffffffffffffffffffffffffffff1602179055508073ffffffffffffffffffffffffffffffffffffffff167f5cc4bdb402e519d4921d6bfaca9c17c16ea3a8e658ff5accd29e6080635562ce60405160405180910390a250565b5f610724838361087760201b60201c565b6107ff57600160085f8581526020019081526020015f205f015f8473ffffffffffffffffffffffffffffffffffffffff1673ffffffffffffffffffffffffffffffffffffffff1681526020019081526020015f205f6101000a81548160ff02191690831515021790555061079c6108db60201b60201c565b73ffffffffffffffffffffffffffffffffffffffff168273ffffffffffffffffffffffffffffffffffffffff16847f2f8788117e7eff1d82e926ec794901d17c78024a50270940304540a733656f0d60405160405180910390a460019050610803565b5f90505b92915050565b5f5f829050601f8151111561085557826040517f305a27a900000000000000000000000000000000000000000000000000000000815260040161084c9190611000565b60405180910390fd5b8051816108619061104d565b5f1c175f1b915050919050565b5f819050919050565b5f60085f8481526020019081526020015f205f015f8373ffffffffffffffffffffffffffffffffffffffff1673ffffffffffffffffffffffffffffffffffffffff1681526020019081526020015f205f9054906101000a900460ff16905092915050565b5f33905090565b7f4e487b71000000000000000000000000000000000000000000000000000000005f52602160045260245ffd5b5f604051905090565b5f5ffd5b5f5ffd5b5f73ffffffffffffffffffffffffffffffffffffffff82169050919050565b5f61094982610920565b9050919050565b6109598161093f565b8114610963575f5ffd5b50565b5f8151905061097481610950565b92915050565b5f5ffd5b5f5ffd5b5f601f19601f8301169050919050565b7f4e487b71000000000000000000000000000000000000000000000000000000005f52604160045260245ffd5b6109c882610982565b810181811067ffffffffffffffff821117156109e7576109e6610992565b5b80604052505050565b5f6109f961090f565b9050610a0582826109bf565b919050565b5f67ffffffffffffffff821115610a2457610a23610992565b5b610a2d82610982565b9050602081019050919050565b8281835e5f83830152505050565b5f610a5a610a5584610a0a565b6109f0565b905082815260208101848484011115610a7657610a7561097e565b5b610a81848285610a3a565b509392505050565b5f82601f830112610a9d57610a9c61097a565b5b8151610aad848260208601610a48565b91505092915050565b5f819050919050565b610ac881610ab6565b8114610ad2575f5ffd5b50565b5f81519050610ae381610abf565b92915050565b5f67ffffffffffffffff82169050919050565b610b0581610ae9565b8114610b0f575f5ffd5b50565b5f81519050610b2081610afc565b92915050565b5f5f5f5f5f5f5f60e0888a031215610b4157610b40610918565b5b5f610b4e8a828b01610966565b975050602088015167ffffffffffffffff811115610b6f57610b6e61091c565b5b610b7b8a828b01610a89565b965050604088015167ffffffffffffffff811115610b9c57610b9b61091c565b5b610ba88a828b01610a89565b9550506060610bb98a828b01610ad5565b9450506080610bca8a828b01610b12565b93505060a0610bdb8a828b01610b12565b92505060c0610bec8a828b01610966565b91505092959891949750929550565b5f81519050919050565b7f4e487b71000000000000000000000000000000000000000000000000000000005f52602260045260245ffd5b5f6002820490506001821680610c4957607f821691505b602082108103610c5c57610c5b610c05565b5b50919050565b5f819050815f5260205f209050919050565b5f6020601f8301049050919050565b5f82821b905092915050565b5f60088302610cbe7fffffffffffffffffffffffffffffffffffffffffffffffffffffffffffffffff82610c83565b610cc88683610c83565b95508019841693508086168417925050509392505050565b5f819050919050565b5f610d03610cfe610cf984610ab6565b610ce0565b610ab6565b9050919050565b5f819050919050565b610d1c83610ce9565b610d30610d2882610d0a565b848454610c8f565b825550505050565b5f5f905090565b610d47610d38565b610d52818484610d13565b505050565b5b81811015610d7557610d6a5f82610d3f565b600181019050610d58565b5050565b601f821115610dba57610d8b81610c62565b610d9484610c74565b81016020851015610da3578190505b610db7610daf85610c74565b830182610d57565b50505b505050565b5f82821c905092915050565b5f610dda5f1984600802610dbf565b1980831691505092915050565b5f610df28383610dcb565b9150826002028217905092915050565b610e0b82610bfb565b67ffffffffffffffff811115610e2457610e23610992565b5b610e2e8254610c32565b610e39828285610d79565b5f60209050601f831160018114610e6a575f8415610e58578287015190505b610e628582610de7565b865550610ec9565b601f198416610e7886610c62565b5f5b82811015610e9f57848901518255600182019150602085019450602081019050610e7a565b86831015610ebc5784890151610eb8601f891682610dcb565b8355505b6001600288020188555050505b505050505050565b7f4e487b71000000000000000000000000000000000000000000000000000000005f52601160045260245ffd5b5f610f0882610ab6565b9150610f1383610ab6565b9250828201905080821115610f2b57610f2a610ed1565b5b92915050565b5f819050919050565b610f4381610f31565b82525050565b610f5281610ab6565b82525050565b610f618161093f565b82525050565b5f60a082019050610f7a5f830188610f3a565b610f876020830187610f3a565b610f946040830186610f3a565b610fa16060830185610f49565b610fae6080830184610f58565b9695505050505050565b5f82825260208201905092915050565b5f610fd282610bfb565b610fdc8185610fb8565b9350610fec818560208601610a3a565b610ff581610982565b840191505092915050565b5f6020820190508181035f8301526110188184610fc8565b905092915050565b5f81519050919050565b5f819050602082019050919050565b5f6110448251610f31565b80915050919050565b5f61105782611020565b826110618461102a565b905061106c81611039565b925060208210156110ac576110a77fffffffffffffffffffffffffffffffffffffffffffffffffffffffffffffffff83602003600802610c83565b831692505b5050919050565b60805160a05160c05160e051610100516101205161014051610160516159d26111155f395f818161136e015261263401525f613a8601525f613a4b01525f61430201525f6142e101525f61347501525f6134cb01525f6134f401526159d25ff3fe608060405234801561000f575f5ffd5b5060043610610376575f3560e01c80637ecebe00116101d1578063c54e44eb11610102578063d547741f116100a0578063d9f98ef11161007a578063d9f98ef114610a07578063dbd5edc714610a23578063dd62ed3e14610a41578063fef4aea214610a7157610376565b8063d547741f1461099d578063d83993e8146109b9578063d9c146de146109e957610376565b8063cbe52ae3116100dc578063cbe52ae314610913578063cd59658314610945578063d11a57ec14610963578063d505accf1461098157610376565b8063c54e44eb146108a7578063c5f956af146108c5578063c824ecfa146108e357610376565b806395d89b411161016f578063a217fddf11610149578063a217fddf14610833578063a589d9f214610851578063a9059cbb1461086d578063b6e36c501461089d57610376565b806395d89b41146107ed57806398e3601f1461080b57806399b6f6071461081557610376565b806386651203116101ab57806386651203146107795780638832b7671461079557806389a302711461079f57806391d14854146107bd57610376565b80637ecebe00146106f557806382af18431461072557806384b0196e1461075557610376565b8063313ce567116102ab5780636083e59a1161024957806370a082311161022357806370a082311461066c578063719286291461069c57806375b238fc146106b857806376bc05ae146106d657610376565b80636083e59a146106165780636605bfda146106345780636e553f651461065057610376565b8063379333341161028557806337933334146105b45780633982d59b146105d2578063464dfa20146105dc578063503fd4a1146105fa57610376565b8063313ce5671461055c5780633644e5151461057a57806336568abe1461059857610376565b806312dc5ae611610318578063248a9ca3116102f2578063248a9ca3146104d45780632bbb3abc146105045780632bf08d23146105225780632f2ff15d1461054057610376565b806312dc5ae61461046a57806318160ddd1461048657806323b872dd146104a457610376565b806306fdde031161035457806306fdde03146103e2578063095ea7b3146104005780630b26cf66146104305780630f4e74691461044c57610376565b806301ffc9a71461037a5780630359632f146103aa578063063d11de146103c6575b5f5ffd5b610394600480360381019061038f9190614b69565b610a8f565b6040516103a19190614bae565b60405180910390f35b6103c460048036038101906103bf9190614c54565b610b08565b005b6103e060048036038101906103db9190614ca4565b610ddb565b005b6103ea611148565b6040516103f79190614d3f565b60405180910390f35b61041a60048036038101906104159190614d5f565b6111d8565b6040516104279190614bae565b60405180910390f35b61044a60048036038101906104459190614d9d565b6111fa565b005b61045461123c565b6040516104619190614e3b565b60405180910390f35b610484600480360381019061047f9190614e91565b611252565b005b61048e611313565b60405161049b9190614ecb565b60405180910390f35b6104be60048036038101906104b99190614ee4565b61131c565b6040516104cb9190614bae565b60405180910390f35b6104ee60048036038101906104e99190614f67565b61134a565b6040516104fb9190614fa1565b60405180910390f35b61050c611367565b6040516105199190614ecb565b60405180910390f35b61052a61136c565b6040516105379190614ecb565b60405180910390f35b61055a60048036038101906105559190614fba565b611390565b005b6105646113b2565b6040516105719190615013565b60405180910390f35b6105826113ba565b60405161058f9190614fa1565b60405180910390f35b6105b260048036038101906105ad9190614fba565b6113c8565b005b6105bc611443565b6040516105c99190614ecb565b60405180910390f35b6105da611449565b005b6105e461150b565b6040516105f19190614ecb565b60405180910390f35b610614600480360381019061060f91906150b7565b611511565b005b61061e611710565b60405161062b9190614ecb565b60405180910390f35b61064e60048036038101906106499190614d9d565b611776565b005b61066a60048036038101906106659190615114565b6117ad565b005b61068660048036038101906106819190614d9d565b6119cd565b6040516106939190614ecb565b60405180910390f35b6106b660048036038101906106b19190615152565b611a12565b005b6106c0611d74565b6040516106cd9190614fa1565b60405180910390f35b6106de611d98565b6040516106ec92919061519f565b60405180910390f35b61070f600480360381019061070a9190614d9d565b611dcf565b60405161071c9190614ecb565b60405180910390f35b61073f600480360381019061073a9190614c54565b611de0565b60405161074c9190614ecb565b60405180910390f35b61075d612132565b60405161077097969594939291906152c6565b60405180910390f35b610793600480360381019061078e9190614ca4565b6121d7565b005b61079d61229b565b005b6107a761235d565b6040516107b491906153a3565b60405180910390f35b6107d760048036038101906107d29190614fba565b612375565b6040516107e49190614bae565b60405180910390f35b6107f56123d9565b6040516108029190614d3f565b60405180910390f35b610813612469565b005b61081d61252a565b60405161082a91906153bc565b60405180910390f35b61083b612547565b6040516108489190614fa1565b60405180910390f35b61086b600480360381019061086691906153d5565b61254d565b005b61088760048036038101906108829190614d5f565b612610565b6040516108949190614bae565b60405180910390f35b6108a5612632565b005b6108af612698565b6040516108bc91906153a3565b60405180910390f35b6108cd6126b0565b6040516108da9190615413565b60405180910390f35b6108fd60048036038101906108f89190614d9d565b6126d8565b60405161090a9190614bae565b60405180910390f35b61092d60048036038101906109289190614d5f565b61272a565b60405161093c9392919061542c565b60405180910390f35b61094d61283e565b60405161095a9190615413565b60405180910390f35b61096b612866565b6040516109789190614fa1565b60405180910390f35b61099b6004803603810190610996919061548b565b61288a565b005b6109b760048036038101906109b29190614fba565b6129cf565b005b6109d360048036038101906109ce9190614ca4565b6129f1565b6040516109e09190614ecb565b60405180910390f35b6109f1612a0a565b6040516109fe91906153bc565b60405180910390f35b610a216004803603810190610a1c9190614c54565b612a26565b005b610a2b612be8565b604051610a389190614ecb565b60405180910390f35b610a5b6004803603810190610a569190615152565b612bf1565b604051610a689190614ecb565b60405180910390f35b610a79612c73565b604051610a869190614ecb565b60405180910390f35b5f7f7965db0b000000000000000000000000000000000000000000000000000000007bffffffffffffffffffffffffffffffffffffffffffffffffffffffff1916827bffffffffffffffffffffffffffffffffffffffffffffffffffffffff19161480610b015750610b0082612c79565b5b9050919050565b610b10612ce2565b6004806004811115610b2557610b24614dc8565b5b600e60149054906101000a900460ff166004811115610b4757610b46614dc8565b5b14610b9a57600e60149054906101000a900460ff16816040517f6b879df4000000000000000000000000000000000000000000000000000000008152600401610b91929190615528565b60405180910390fd5b835f8103610bd4576040517f1f2a200500000000000000000000000000000000000000000000000000000000815260040160405180910390fd5b82600d5f8273ffffffffffffffffffffffffffffffffffffffff1673ffffffffffffffffffffffffffffffffffffffff1681526020019081526020015f205f9054906101000a900460ff16610c55576040517fef4d50e600000000000000000000000000000000000000000000000000000000815260040160405180910390fd5b8373ffffffffffffffffffffffffffffffffffffffff163373ffffffffffffffffffffffffffffffffffffffff1614610c9457610c93843388612d28565b5b5f5f610ca0868961272a565b50915091508760105f828254610cb6919061557c565b925050819055505f811115610cde578060115f828254610cd6919061557c565b925050819055505b610ce88689612dbb565b5f821115610d3057610d2f878373dac17f958d2ee523a2206206994597c13d831ec773ffffffffffffffffffffffffffffffffffffffff16612e3a9092919063ffffffff16565b5b5f811115610d7857610d77878273a0b86991c6218b36c1d19d4a2e9eb0ce3606eb4873ffffffffffffffffffffffffffffffffffffffff16612e3a9092919063ffffffff16565b5b818673ffffffffffffffffffffffffffffffffffffffff167f817d7db54531c25c60d08a53debb99c4aa0c1375179953ef7befd12e1de35126838b604051610dc19291906155af565b60405180910390a35050505050610dd6612eb9565b505050565b610de3612ce2565b7fe1dcbdb91df27212a29bc27177c840cf2f819ecf2187432e1fac86c2dd5dfca9610e0d81612ec3565b6002806004811115610e2257610e21614dc8565b5b600e60149054906101000a900460ff166004811115610e4457610e43614dc8565b5b14610e9757600e60149054906101000a900460ff16816040517f6b879df4000000000000000000000000000000000000000000000000000000008152600401610e8e929190615528565b60405180910390fd5b5f73ffffffffffffffffffffffffffffffffffffffff16600e5f9054906101000a900473ffffffffffffffffffffffffffffffffffffffff1673ffffffffffffffffffffffffffffffffffffffff1603610f1d576040517fb2c4cce900000000000000000000000000000000000000000000000000000000815260040160405180910390fd5b825f8103610f57576040517f1f2a200500000000000000000000000000000000000000000000000000000000815260040160405180910390fd5b601154841115610f93576040517f88fc642900000000000000000000000000000000000000000000000000000000815260040160405180910390fd5b5f73a0b86991c6218b36c1d19d4a2e9eb0ce3606eb4873ffffffffffffffffffffffffffffffffffffffff166370a08231306040518263ffffffff1660e01b8152600401610fe19190615413565b602060405180830381865afa158015610ffc573d5f5f3e3d5ffd5b505050506040513d601f19601f8201168201806040525081019061102091906155ea565b90508085111561105c576040517f88fc642900000000000000000000000000000000000000000000000000000000815260040160405180910390fd5b8460115f82825461106d919061557c565b925050819055506110d4600e5f9054906101000a900473ffffffffffffffffffffffffffffffffffffffff168673a0b86991c6218b36c1d19d4a2e9eb0ce3606eb4873ffffffffffffffffffffffffffffffffffffffff16612e3a9092919063ffffffff16565b84600e5f9054906101000a900473ffffffffffffffffffffffffffffffffffffffff1673ffffffffffffffffffffffffffffffffffffffff167f233c84dc0c19fbf51f9fa92214ffd8a59f512e0098bff5827455d02e401221c060405160405180910390a350505050611145612eb9565b50565b60606003805461115790615642565b80601f016020809104026020016040519081016040528092919081815260200182805461118390615642565b80156111ce5780601f106111a5576101008083540402835291602001916111ce565b820191905f5260205f20905b8154815290600101906020018083116111b157829003601f168201915b5050505050905090565b5f5f6111e2612ed7565b90506111ef818585612ede565b600191505092915050565b7fa49807205ce4d355092ef5a8a18f56e8913cf4a201fbe287825b095693c2177561122481612ec3565b61122d82612ef0565b611238826001612fdb565b5050565b5f600e60149054906101000a900460ff16905090565b7fa49807205ce4d355092ef5a8a18f56e8913cf4a201fbe287825b095693c2177561127c81612ec3565b5f8060048111156112905761128f614dc8565b5b600e60149054906101000a900460ff1660048111156112b2576112b1614dc8565b5b1461130557600e60149054906101000a900460ff16816040517f6b879df40000000000000000000000000000000000000000000000000000000081526004016112fc929190615528565b60405180910390fd5b61130e83613179565b505050565b5f600254905090565b5f5f611326612ed7565b9050611333858285612d28565b61133e858585613298565b60019150509392505050565b5f60085f8381526020019081526020015f20600101549050919050565b606481565b7f000000000000000000000000000000000000000000000000000000000000000081565b6113998261134a565b6113a281612ec3565b6113ac8383613388565b50505050565b5f6006905090565b5f6113c3613472565b905090565b6113d0612ed7565b73ffffffffffffffffffffffffffffffffffffffff168173ffffffffffffffffffffffffffffffffffffffff1614611434576040517f6697b23200000000000000000000000000000000000000000000000000000000815260040160405180910390fd5b61143e8282613528565b505050565b600f5481565b7fa49807205ce4d355092ef5a8a18f56e8913cf4a201fbe287825b095693c2177561147381612ec3565b600280600481111561148857611487614dc8565b5b600e60149054906101000a900460ff1660048111156114aa576114a9614dc8565b5b146114fd57600e60149054906101000a900460ff16816040517f6b879df40000000000000000000000000000000000000000000000000000000081526004016114f4929190615528565b60405180910390fd5b6115076003613612565b5050565b60105481565b7fa49807205ce4d355092ef5a8a18f56e8913cf4a201fbe287825b095693c2177561153b81612ec3565b60018060048111156115505761154f614dc8565b5b600e60149054906101000a900460ff16600481111561157257611571614dc8565b5b146115c557600e60149054906101000a900460ff16816040517f6b879df40000000000000000000000000000000000000000000000000000000081526004016115bc929190615528565b60405180910390fd5b5f8585905090505f8103611605576040517fc2e5347d00000000000000000000000000000000000000000000000000000000815260040160405180910390fd5b606481111561164e578060646040517fbb1cb70b0000000000000000000000000000000000000000000000000000000081526004016116459291906155af565b60405180910390fd5b5f5f90505b81811015611707575f87878381811061166f5761166e615672565b5b90506020020160208101906116849190614d9d565b90505f73ffffffffffffffffffffffffffffffffffffffff168173ffffffffffffffffffffffffffffffffffffffff16036116eb576040517fd92e233d00000000000000000000000000000000000000000000000000000000815260040160405180910390fd5b6116f581876136a5565b816116ff9061569f565b915050611653565b50505050505050565b5f5f600481111561172457611723614dc8565b5b600e60149054906101000a900460ff16600481111561174657611745614dc8565b5b1415806117585750611756613795565b155b15611765575f9050611773565b611770600f546137ea565b90505b90565b7fa49807205ce4d355092ef5a8a18f56e8913cf4a201fbe287825b095693c217756117a081612ec3565b6117a982613810565b5050565b6117b5612ce2565b5f8060048111156117c9576117c8614dc8565b5b600e60149054906101000a900460ff1660048111156117eb576117ea614dc8565b5b1461183e57600e60149054906101000a900460ff16816040517f6b879df4000000000000000000000000000000000000000000000000000000008152600401611835929190615528565b60405180910390fd5b611846613795565b61187c576040517f0887610b00000000000000000000000000000000000000000000000000000000815260040160405180910390fd5b825f81036118b6576040517f1f2a200500000000000000000000000000000000000000000000000000000000815260040160405180910390fd5b6118be611710565b8411156118f7576040517fb42483d100000000000000000000000000000000000000000000000000000000815260040160405180910390fd5b61193833308673a0b86991c6218b36c1d19d4a2e9eb0ce3606eb4873ffffffffffffffffffffffffffffffffffffffff166138fb909392919063ffffffff16565b83600f5f82825461194991906156e6565b9250508190555061195a838561397d565b8273ffffffffffffffffffffffffffffffffffffffff163373ffffffffffffffffffffffffffffffffffffffff167f5548c837ab068cf56a2c2479df0882a4922fd203edb7517321831d95078c5f62866040516119b79190614ecb565b60405180910390a350506119c9612eb9565b5050565b5f5f5f8373ffffffffffffffffffffffffffffffffffffffff1673ffffffffffffffffffffffffffffffffffffffff1681526020019081526020015f20549050919050565b7fa49807205ce4d355092ef5a8a18f56e8913cf4a201fbe287825b095693c21775611a3c81612ec3565b825f73ffffffffffffffffffffffffffffffffffffffff168173ffffffffffffffffffffffffffffffffffffffff1603611aa2576040517fd92e233d00000000000000000000000000000000000000000000000000000000815260040160405180910390fd5b825f73ffffffffffffffffffffffffffffffffffffffff168173ffffffffffffffffffffffffffffffffffffffff1603611b08576040517fd92e233d00000000000000000000000000000000000000000000000000000000815260040160405180910390fd5b611b10612ce2565b5f8573ffffffffffffffffffffffffffffffffffffffff166370a08231306040518263ffffffff1660e01b8152600401611b4a9190615413565b602060405180830381865afa158015611b65573d5f5f3e3d5ffd5b505050506040513d601f19601f82011682018060405250810190611b8991906155ea565b90505f5f905073a0b86991c6218b36c1d19d4a2e9eb0ce3606eb4873ffffffffffffffffffffffffffffffffffffffff168773ffffffffffffffffffffffffffffffffffffffff1603611bed57601154600f54611be691906156e6565b9050611c86565b73dac17f958d2ee523a2206206994597c13d831ec773ffffffffffffffffffffffffffffffffffffffff168773ffffffffffffffffffffffffffffffffffffffff1603611c855773dac17f958d2ee523a2206206994597c13d831ec76040517fcbdd15a9000000000000000000000000000000000000000000000000000000008152600401611c7c9190615413565b60405180910390fd5b5b5f818311611c94575f611ca1565b8183611ca0919061557c565b5b90505f8103611cdc576040517f3bf4796e00000000000000000000000000000000000000000000000000000000815260040160405180910390fd5b611d0787828a73ffffffffffffffffffffffffffffffffffffffff16612e3a9092919063ffffffff16565b808773ffffffffffffffffffffffffffffffffffffffff168973ffffffffffffffffffffffffffffffffffffffff167f0469918f24999e267065319b4027a9fcb08e498e4081aa6a8d216836ae36f10160405160405180910390a4505050611d6d612eb9565b5050505050565b7fa49807205ce4d355092ef5a8a18f56e8913cf4a201fbe287825b095693c2177581565b5f5f600a5f9054906101000a900467ffffffffffffffff16600a60089054906101000a900467ffffffffffffffff16915091509091565b5f611dd9826139fc565b9050919050565b5f611de9612ce2565b835f8103611e23576040517f1f2a200500000000000000000000000000000000000000000000000000000000815260040160405180910390fd5b5f73ffffffffffffffffffffffffffffffffffffffff16600c5f9054906101000a900473ffffffffffffffffffffffffffffffffffffffff1673ffffffffffffffffffffffffffffffffffffffff1603611ea9576040517f733fa4c300000000000000000000000000000000000000000000000000000000815260040160405180910390fd5b600c5f9054906101000a900473ffffffffffffffffffffffffffffffffffffffff1673ffffffffffffffffffffffffffffffffffffffff163373ffffffffffffffffffffffffffffffffffffffff1614611f2f576040517fea0e1ccb00000000000000000000000000000000000000000000000000000000815260040160405180910390fd5b6003806004811115611f4457611f43614dc8565b5b600e60149054906101000a900460ff166004811115611f6657611f65614dc8565b5b14611fb957600e60149054906101000a900460ff16816040517f6b879df4000000000000000000000000000000000000000000000000000000008152600401611fb0929190615528565b60405180910390fd5b611fc3848761272a565b905050809350505f8303612003576040517f1f2a200500000000000000000000000000000000000000000000000000000000815260040160405180910390fd5b8373ffffffffffffffffffffffffffffffffffffffff163373ffffffffffffffffffffffffffffffffffffffff161461204257612041843388612d28565b5b8560105f828254612053919061557c565b925050819055506120648487612dbb565b6120a3858473dac17f958d2ee523a2206206994597c13d831ec773ffffffffffffffffffffffffffffffffffffffff16612e3a9092919063ffffffff16565b8373ffffffffffffffffffffffffffffffffffffffff168573ffffffffffffffffffffffffffffffffffffffff163373ffffffffffffffffffffffffffffffffffffffff167f3a117534609d03284c0de2e963d850ad74cede15eab049804095772d20d494c3868a6040516121199291906155af565b60405180910390a4505061212b612eb9565b9392505050565b5f6060805f5f5f6060612143613a42565b61214b613a7d565b46305f5f1b5f67ffffffffffffffff81111561216a57612169615719565b5b6040519080825280602002602001820160405280156121985781602001602082028036833780820191505090505b507f0f00000000000000000000000000000000000000000000000000000000000000959493929190965096509650965096509650965090919293949596565b7fa49807205ce4d355092ef5a8a18f56e8913cf4a201fbe287825b095693c2177561220181612ec3565b5f80600481111561221557612214614dc8565b5b600e60149054906101000a900460ff16600481111561223757612236614dc8565b5b1461228a57600e60149054906101000a900460ff16816040517f6b879df4000000000000000000000000000000000000000000000000000000008152600401612281929190615528565b60405180910390fd5b612296600f5484613ab8565b505050565b7fa49807205ce4d355092ef5a8a18f56e8913cf4a201fbe287825b095693c217756122c581612ec3565b60018060048111156122da576122d9614dc8565b5b600e60149054906101000a900460ff1660048111156122fc576122fb614dc8565b5b1461234f57600e60149054906101000a900460ff16816040517f6b879df4000000000000000000000000000000000000000000000000000000008152600401612346929190615528565b60405180910390fd5b6123596002613612565b5050565b73a0b86991c6218b36c1d19d4a2e9eb0ce3606eb4881565b5f60085f8481526020019081526020015f205f015f8373ffffffffffffffffffffffffffffffffffffffff1673ffffffffffffffffffffffffffffffffffffffff1681526020019081526020015f205f9054906101000a900460ff16905092915050565b6060600480546123e890615642565b80601f016020809104026020016040519081016040528092919081815260200182805461241490615642565b801561245f5780601f106124365761010080835404028352916020019161245f565b820191905f5260205f20905b81548152906001019060200180831161244257829003601f168201915b5050505050905090565b7fa49807205ce4d355092ef5a8a18f56e8913cf4a201fbe287825b095693c2177561249381612ec3565b5f8060048111156124a7576124a6614dc8565b5b600e60149054906101000a900460ff1660048111156124c9576124c8614dc8565b5b1461251c57600e60149054906101000a900460ff16816040517f6b879df4000000000000000000000000000000000000000000000000000000008152600401612513929190615528565b60405180910390fd5b6125266001613612565b5050565b5f600a60089054906101000a900467ffffffffffffffff16905090565b5f5f1b81565b7fa49807205ce4d355092ef5a8a18f56e8913cf4a201fbe287825b095693c2177561257781612ec3565b5f80600481111561258b5761258a614dc8565b5b600e60149054906101000a900460ff1660048111156125ad576125ac614dc8565b5b1461260057600e60149054906101000a900460ff16816040517f6b879df40000000000000000000000000000000000000000000000000000000081526004016125f7929190615528565b60405180910390fd5b61260a8484613b34565b50505050565b5f5f61261a612ed7565b9050612627818585613298565b600191505092915050565b7f000000000000000000000000000000000000000000000000000000000000000042101561268c576040517f1307e40f00000000000000000000000000000000000000000000000000000000815260040160405180910390fd5b6126966004613612565b565b73dac17f958d2ee523a2206206994597c13d831ec781565b5f600e5f9054906101000a900473ffffffffffffffffffffffffffffffffffffffff16905090565b5f600d5f8373ffffffffffffffffffffffffffffffffffffffff1673ffffffffffffffffffffffffffffffffffffffff1681526020019081526020015f205f9054906101000a900460ff169050919050565b5f5f5f612736856119cd565b84111561276f576040517ff4d678b800000000000000000000000000000000000000000000000000000000815260040160405180910390fd5b61277885613d98565b90508015612830576128188460105473dac17f958d2ee523a2206206994597c13d831ec773ffffffffffffffffffffffffffffffffffffffff166370a08231306040518263ffffffff1660e01b81526004016127d49190615413565b602060405180830381865afa1580156127ef573d5f5f3e3d5ffd5b505050506040513d601f19601f8201168201806040525081019061281391906155ea565b613dea565b925061282984601054601154613dea565b9150612837565b5f92508391505b9250925092565b5f600c5f9054906101000a900473ffffffffffffffffffffffffffffffffffffffff16905090565b7fe1dcbdb91df27212a29bc27177c840cf2f819ecf2187432e1fac86c2dd5dfca981565b834211156128cf57836040517f627913020000000000000000000000000000000000000000000000000000000081526004016128c69190614ecb565b60405180910390fd5b5f7f6e71edae12b1b97f4d1f60370fef10105fa2faae0126114a169c64845d6126c98888886128fd8c613e10565b8960405160200161291396959493929190615746565b6040516020818303038152906040528051906020012090505f61293582613e63565b90505f61294482878787613e7c565b90508973ffffffffffffffffffffffffffffffffffffffff168173ffffffffffffffffffffffffffffffffffffffff16146129b857808a6040517f4b800e460000000000000000000000000000000000000000000000000000000081526004016129af9291906157a5565b60405180910390fd5b6129c38a8a8a612ede565b50505050505050505050565b6129d88261134a565b6129e181612ec3565b6129eb8383613528565b50505050565b5f5f6129fd338461272a565b5050905080915050919050565b5f600a5f9054906101000a900467ffffffffffffffff16905090565b612a2e612ce2565b825f8103612a68576040517f1f2a200500000000000000000000000000000000000000000000000000000000815260040160405180910390fd5b81600d5f8273ffffffffffffffffffffffffffffffffffffffff1673ffffffffffffffffffffffffffffffffffffffff1681526020019081526020015f205f9054906101000a900460ff1615612aea576040517fa8fdf60100000000000000000000000000000000000000000000000000000000815260040160405180910390fd5b8273ffffffffffffffffffffffffffffffffffffffff163373ffffffffffffffffffffffffffffffffffffffff1614612b2957612b28833387612d28565b5b84600f5f828254612b3a919061557c565b92505081905550612b4b8386612dbb565b612b8a848673a0b86991c6218b36c1d19d4a2e9eb0ce3606eb4873ffffffffffffffffffffffffffffffffffffffff16612e3a9092919063ffffffff16565b848373ffffffffffffffffffffffffffffffffffffffff167f4e015b9ce8d388e64046b74a55b753a1677d9b274993c4630923f38824a2eca487604051612bd19190614ecb565b60405180910390a35050612be3612eb9565b505050565b5f600b54905090565b5f60015f8473ffffffffffffffffffffffffffffffffffffffff1673ffffffffffffffffffffffffffffffffffffffff1681526020019081526020015f205f8373ffffffffffffffffffffffffffffffffffffffff1673ffffffffffffffffffffffffffffffffffffffff1681526020019081526020015f2054905092915050565b60115481565b5f7f01ffc9a7000000000000000000000000000000000000000000000000000000007bffffffffffffffffffffffffffffffffffffffffffffffffffffffff1916827bffffffffffffffffffffffffffffffffffffffffffffffffffffffff1916149050919050565b600260095403612d1e576040517f3ee5aeb500000000000000000000000000000000000000000000000000000000815260040160405180910390fd5b6002600981905550565b5f612d338484612bf1565b90507fffffffffffffffffffffffffffffffffffffffffffffffffffffffffffffffff811015612db55781811015612da6578281836040517ffb8f41b2000000000000000000000000000000000000000000000000000000008152600401612d9d939291906157cc565b60405180910390fd5b612db484848484035f613eaa565b5b50505050565b5f73ffffffffffffffffffffffffffffffffffffffff168273ffffffffffffffffffffffffffffffffffffffff1603612e2b575f6040517f96c6fd1e000000000000000000000000000000000000000000000000000000008152600401612e229190615413565b60405180910390fd5b612e36825f83614079565b5050565b612eb4838473ffffffffffffffffffffffffffffffffffffffff1663a9059cbb8585604051602401612e6d929190615801565b604051602081830303815290604052915060e01b6020820180517bffffffffffffffffffffffffffffffffffffffffffffffffffffffff83818316178352505050506141d1565b505050565b6001600981905550565b612ed481612ecf612ed7565b61426c565b50565b5f33905090565b612eeb8383836001613eaa565b505050565b5f73ffffffffffffffffffffffffffffffffffffffff168173ffffffffffffffffffffffffffffffffffffffff1603612f55576040517fe9603e4b00000000000000000000000000000000000000000000000000000000815260040160405180910390fd5b80600c5f6101000a81548173ffffffffffffffffffffffffffffffffffffffff021916908373ffffffffffffffffffffffffffffffffffffffff1602179055508073ffffffffffffffffffffffffffffffffffffffff167fad098d6e912c08ed9aa3ee6ca9529da44a959d4c6251c6b8b088af216c1e350660405160405180910390a250565b5f73ffffffffffffffffffffffffffffffffffffffff168273ffffffffffffffffffffffffffffffffffffffff1603613040576040517f5b1b9ce500000000000000000000000000000000000000000000000000000000815260040160405180910390fd5b801515600d5f8473ffffffffffffffffffffffffffffffffffffffff1673ffffffffffffffffffffffffffffffffffffffff1681526020019081526020015f205f9054906101000a900460ff161515036130d35781816040517f7eb7c0bb0000000000000000000000000000000000000000000000000000000081526004016130ca929190615828565b60405180910390fd5b80600d5f8473ffffffffffffffffffffffffffffffffffffffff1673ffffffffffffffffffffffffffffffffffffffff1681526020019081526020015f205f6101000a81548160ff0219169083151502179055508173ffffffffffffffffffffffffffffffffffffffff167f1150430d66ba9cbeaa47be8b8dc1f6867193174dcabf0cf2e96685c655ff8e098260405161316d9190614bae565b60405180910390a25050565b42600a5f9054906101000a900467ffffffffffffffff1667ffffffffffffffff1611156131d2576040517f18b24c3600000000000000000000000000000000000000000000000000000000815260040160405180910390fd5b428167ffffffffffffffff1611613215576040517f4994dc0200000000000000000000000000000000000000000000000000000000815260040160405180910390fd5b80600a60086101000a81548167ffffffffffffffff021916908367ffffffffffffffff1602179055508067ffffffffffffffff16600a5f9054906101000a900467ffffffffffffffff1667ffffffffffffffff167f709a99e52f3ad08814a91314c2ce5127558c0ffeb6d0a5df5a637276cb804d6e60405160405180910390a350565b5f73ffffffffffffffffffffffffffffffffffffffff168373ffffffffffffffffffffffffffffffffffffffff1603613308575f6040517f96c6fd1e0000000000000000000000000000000000000000000000000000000081526004016132ff9190615413565b60405180910390fd5b5f73ffffffffffffffffffffffffffffffffffffffff168273ffffffffffffffffffffffffffffffffffffffff1603613378575f6040517fec442f0500000000000000000000000000000000000000000000000000000000815260040161336f9190615413565b60405180910390fd5b613383838383614079565b505050565b5f6133938383612375565b61346857600160085f8581526020019081526020015f205f015f8473ffffffffffffffffffffffffffffffffffffffff1673ffffffffffffffffffffffffffffffffffffffff1681526020019081526020015f205f6101000a81548160ff021916908315150217905550613405612ed7565b73ffffffffffffffffffffffffffffffffffffffff168273ffffffffffffffffffffffffffffffffffffffff16847f2f8788117e7eff1d82e926ec794901d17c78024a50270940304540a733656f0d60405160405180910390a46001905061346c565b5f90505b92915050565b5f7f000000000000000000000000000000000000000000000000000000000000000073ffffffffffffffffffffffffffffffffffffffff163073ffffffffffffffffffffffffffffffffffffffff161480156134ed57507f000000000000000000000000000000000000000000000000000000000000000046145b1561351a577f00000000000000000000000000000000000000000000000000000000000000009050613525565b6135226142bd565b90505b90565b5f6135338383612375565b15613608575f60085f8581526020019081526020015f205f015f8473ffffffffffffffffffffffffffffffffffffffff1673ffffffffffffffffffffffffffffffffffffffff1681526020019081526020015f205f6101000a81548160ff0219169083151502179055506135a5612ed7565b73ffffffffffffffffffffffffffffffffffffffff168273ffffffffffffffffffffffffffffffffffffffff16847ff6391f5c32d9c69d2a47ea670b442974b53935d1edc7fd64eb21e047a839171b60405160405180910390a46001905061360c565b5f90505b92915050565b5f600e60149054906101000a900460ff16905081600e60146101000a81548160ff0219169083600481111561364a57613649614dc8565b5b021790555081600481111561366257613661614dc8565b5b81600481111561367557613674614dc8565b5b7f9e0f6d6e2258787de46228cf9227a1ae6e49996f7b197041af59c99563f36a7460405160405180910390a35050565b5f6136af836119cd565b90505f81036136ea576040517fedac458500000000000000000000000000000000000000000000000000000000815260040160405180910390fd5b6136f48383612fdb565b81156137475780600f5f82825461370b919061557c565b925050819055508060105f82825461372391906156e6565b925050819055508060115f82825461373b91906156e6565b92505081905550613790565b80600f5f82825461375891906156e6565b925050819055508060105f828254613770919061557c565b925050819055508060115f828254613788919061557c565b925050819055505b505050565b5f600a5f9054906101000a900467ffffffffffffffff1667ffffffffffffffff1642101580156137e55750600a60089054906101000a900467ffffffffffffffff1667ffffffffffffffff164211155b905090565b5f81600b54116137fa575f613809565b81600b54613808919061557c565b5b9050919050565b5f73ffffffffffffffffffffffffffffffffffffffff168173ffffffffffffffffffffffffffffffffffffffff1603613875576040517fcfe2ea6300000000000000000000000000000000000000000000000000000000815260040160405180910390fd5b80600e5f6101000a81548173ffffffffffffffffffffffffffffffffffffffff021916908373ffffffffffffffffffffffffffffffffffffffff1602179055508073ffffffffffffffffffffffffffffffffffffffff167f5cc4bdb402e519d4921d6bfaca9c17c16ea3a8e658ff5accd29e6080635562ce60405160405180910390a250565b613977848573ffffffffffffffffffffffffffffffffffffffff166323b872dd8686866040516024016139309392919061584f565b604051602081830303815290604052915060e01b6020820180517bffffffffffffffffffffffffffffffffffffffffffffffffffffffff83818316178352505050506141d1565b50505050565b5f73ffffffffffffffffffffffffffffffffffffffff168273ffffffffffffffffffffffffffffffffffffffff16036139ed575f6040517fec442f050000000000000000000000000000000000000000000000000000000081526004016139e49190615413565b60405180910390fd5b6139f85f8383614079565b5050565b5f60075f8373ffffffffffffffffffffffffffffffffffffffff1673ffffffffffffffffffffffffffffffffffffffff1681526020019081526020015f20549050919050565b6060613a7860057f000000000000000000000000000000000000000000000000000000000000000061435290919063ffffffff16565b905090565b6060613ab360067f000000000000000000000000000000000000000000000000000000000000000061435290919063ffffffff16565b905090565b5f811480613ac557508181105b15613afc576040517f39423ae400000000000000000000000000000000000000000000000000000000815260040160405180910390fd5b80600b81905550807f50e5341d7a4ad030a1a03c7b2bccfa67438c0bdf5c398a3b1d7a64babfbf97fe60405160405180910390a25050565b5f5f600a5f9054906101000a900467ffffffffffffffff1667ffffffffffffffff16148015613b8257505f600a60089054906101000a900467ffffffffffffffff1667ffffffffffffffff16145b90505f5f600a5f9054906101000a900467ffffffffffffffff1667ffffffffffffffff1614158015613bd25750600a5f9054906101000a900467ffffffffffffffff1667ffffffffffffffff1642105b905081158015613be0575080155b15613c17576040517f18b24c3600000000000000000000000000000000000000000000000000000000815260040160405180910390fd5b5f8467ffffffffffffffff161480613c3857505f8367ffffffffffffffff16145b15613c6f576040517f4994dc0200000000000000000000000000000000000000000000000000000000815260040160405180910390fd5b8267ffffffffffffffff168467ffffffffffffffff1610613cbc576040517f4994dc0200000000000000000000000000000000000000000000000000000000815260040160405180910390fd5b428467ffffffffffffffff1611613cff576040517f4994dc0200000000000000000000000000000000000000000000000000000000815260040160405180910390fd5b83600a5f6101000a81548167ffffffffffffffff021916908367ffffffffffffffff16021790555082600a60086101000a81548167ffffffffffffffff021916908367ffffffffffffffff1602179055508267ffffffffffffffff168467ffffffffffffffff167f709a99e52f3ad08814a91314c2ce5127558c0ffeb6d0a5df5a637276cb804d6e60405160405180910390a350505050565b5f600d5f8373ffffffffffffffffffffffffffffffffffffffff1673ffffffffffffffffffffffffffffffffffffffff1681526020019081526020015f205f9054906101000a900460ff169050919050565b5f5f8303613dfa575f9050613e09565b613e068483855f6143ff565b90505b9392505050565b5f60075f8373ffffffffffffffffffffffffffffffffffffffff1673ffffffffffffffffffffffffffffffffffffffff1681526020019081526020015f205f815480929190600101919050559050919050565b5f613e75613e6f613472565b8361444c565b9050919050565b5f5f5f5f613e8c8888888861448c565b925092509250613e9c8282614573565b829350505050949350505050565b5f73ffffffffffffffffffffffffffffffffffffffff168473ffffffffffffffffffffffffffffffffffffffff1603613f1a575f6040517fe602df05000000000000000000000000000000000000000000000000000000008152600401613f119190615413565b60405180910390fd5b5f73ffffffffffffffffffffffffffffffffffffffff168373ffffffffffffffffffffffffffffffffffffffff1603613f8a575f6040517f94280d62000000000000000000000000000000000000000000000000000000008152600401613f819190615413565b60405180910390fd5b8160015f8673ffffffffffffffffffffffffffffffffffffffff1673ffffffffffffffffffffffffffffffffffffffff1681526020019081526020015f205f8573ffffffffffffffffffffffffffffffffffffffff1673ffffffffffffffffffffffffffffffffffffffff1681526020019081526020015f20819055508015614073578273ffffffffffffffffffffffffffffffffffffffff168473ffffffffffffffffffffffffffffffffffffffff167f8c5be1e5ebec7d5bd14f71427d1e84f3dd0314c0f7b2291e5b200ac8c7c3b9258460405161406a9190614ecb565b60405180910390a35b50505050565b5f73ffffffffffffffffffffffffffffffffffffffff168373ffffffffffffffffffffffffffffffffffffffff1614806140de57505f73ffffffffffffffffffffffffffffffffffffffff168273ffffffffffffffffffffffffffffffffffffffff16145b806141855750600360048111156140f8576140f7614dc8565b5b600e60149054906101000a900460ff16600481111561411a57614119614dc8565b5b14801561412c575061412b83613d98565b5b80156141845750600c5f9054906101000a900473ffffffffffffffffffffffffffffffffffffffff1673ffffffffffffffffffffffffffffffffffffffff168273ffffffffffffffffffffffffffffffffffffffff16145b5b1561419a576141958383836146d5565b6141cc565b6040517f8574adcf00000000000000000000000000000000000000000000000000000000815260040160405180910390fd5b505050565b5f5f60205f8451602086015f885af1806141f0576040513d5f823e3d81fd5b3d92505f519150505f8214614209576001811415614224565b5f8473ffffffffffffffffffffffffffffffffffffffff163b145b1561426657836040517f5274afe700000000000000000000000000000000000000000000000000000000815260040161425d9190615413565b60405180910390fd5b50505050565b6142768282612375565b6142b95780826040517fe2517d3f0000000000000000000000000000000000000000000000000000000081526004016142b0929190615884565b60405180910390fd5b5050565b5f7f8b73c3c69bb8fe3d512ecc4cf759cc79239f7b179b0ffacaa9a75d522b39400f7f00000000000000000000000000000000000000000000000000000000000000007f000000000000000000000000000000000000000000000000000000000000000046306040516020016143379594939291906158ab565b60405160208183030381529060405280519060200120905090565b606060ff5f1b831461436e57614367836148ee565b90506143f9565b81805461437a90615642565b80601f01602080910402602001604051908101604052809291908181526020018280546143a690615642565b80156143f15780601f106143c8576101008083540402835291602001916143f1565b820191905f5260205f20905b8154815290600101906020018083116143d457829003601f168201915b505050505090505b92915050565b5f61442d61440c83614960565b801561442857505f8480614423576144226158fc565b5b868809115b61498d565b614438868686614998565b61444291906156e6565b9050949350505050565b5f6040517f190100000000000000000000000000000000000000000000000000000000000081528360028201528260228201526042812091505092915050565b5f5f5f7f7fffffffffffffffffffffffffffffff5d576e7357a4501ddfe92f46681b20a0845f1c11156144c8575f600385925092509250614569565b5f6001888888886040515f81526020016040526040516144eb9493929190615929565b6020604051602081039080840390855afa15801561450b573d5f5f3e3d5ffd5b5050506020604051035190505f73ffffffffffffffffffffffffffffffffffffffff168173ffffffffffffffffffffffffffffffffffffffff160361455c575f60015f5f1b93509350935050614569565b805f5f5f1b935093509350505b9450945094915050565b5f600381111561458657614585614dc8565b5b82600381111561459957614598614dc8565b5b03156146d157600160038111156145b3576145b2614dc8565b5b8260038111156145c6576145c5614dc8565b5b036145fd576040517ff645eedf00000000000000000000000000000000000000000000000000000000815260040160405180910390fd5b6002600381111561461157614610614dc8565b5b82600381111561462457614623614dc8565b5b0361466857805f1c6040517ffce698f700000000000000000000000000000000000000000000000000000000815260040161465f9190614ecb565b60405180910390fd5b60038081111561467b5761467a614dc8565b5b82600381111561468e5761468d614dc8565b5b036146d057806040517fd78bce0c0000000000000000000000000000000000000000000000000000000081526004016146c79190614fa1565b60405180910390fd5b5b5050565b5f73ffffffffffffffffffffffffffffffffffffffff168373ffffffffffffffffffffffffffffffffffffffff1603614725578060025f82825461471991906156e6565b925050819055506147f3565b5f5f5f8573ffffffffffffffffffffffffffffffffffffffff1673ffffffffffffffffffffffffffffffffffffffff1681526020019081526020015f20549050818110156147ae578381836040517fe450d38c0000000000000000000000000000000000000000000000000000000081526004016147a5939291906157cc565b60405180910390fd5b8181035f5f8673ffffffffffffffffffffffffffffffffffffffff1673ffffffffffffffffffffffffffffffffffffffff1681526020019081526020015f2081905550505b5f73ffffffffffffffffffffffffffffffffffffffff168273ffffffffffffffffffffffffffffffffffffffff160361483a578060025f8282540392505081905550614884565b805f5f8473ffffffffffffffffffffffffffffffffffffffff1673ffffffffffffffffffffffffffffffffffffffff1681526020019081526020015f205f82825401925050819055505b8173ffffffffffffffffffffffffffffffffffffffff168373ffffffffffffffffffffffffffffffffffffffff167fddf252ad1be2c89b69c2b068fc378daa952ba7f163c4a11628f55a4df523b3ef836040516148e19190614ecb565b60405180910390a3505050565b60605f6148fa83614a77565b90505f602067ffffffffffffffff81111561491857614917615719565b5b6040519080825280601f01601f19166020018201604052801561494a5781602001600182028036833780820191505090505b5090508181528360208201528092505050919050565b5f6001600283600381111561497857614977614dc8565b5b614982919061596c565b60ff16149050919050565b5f8115159050919050565b5f5f5f6149a58686614ac5565b915091505f82036149ca578381816149c0576149bf6158fc565b5b0492505050614a70565b8184116149e9576149e86149e35f861460126011614ae2565b614afb565b5b5f8486880990508181118303925080820391505f855f038616905080860495508083049250600181825f0304019050808402831792505f600287600302189050808702600203810290508087026002038102905080870260020381029050808702600203810290508087026002038102905080870260020381029050808402955050505050505b9392505050565b5f5f60ff835f1c169050601f811115614abc576040517fb3512b0c00000000000000000000000000000000000000000000000000000000815260040160405180910390fd5b80915050919050565b5f5f5f198385098385029150818110828203039250509250929050565b5f614aec8461498d565b82841802821890509392505050565b634e487b715f52806020526024601cfd5b5f5ffd5b5f5ffd5b5f7fffffffff0000000000000000000000000000000000000000000000000000000082169050919050565b614b4881614b14565b8114614b52575f5ffd5b50565b5f81359050614b6381614b3f565b92915050565b5f60208284031215614b7e57614b7d614b0c565b5b5f614b8b84828501614b55565b91505092915050565b5f8115159050919050565b614ba881614b94565b82525050565b5f602082019050614bc15f830184614b9f565b92915050565b5f819050919050565b614bd981614bc7565b8114614be3575f5ffd5b50565b5f81359050614bf481614bd0565b92915050565b5f73ffffffffffffffffffffffffffffffffffffffff82169050919050565b5f614c2382614bfa565b9050919050565b614c3381614c19565b8114614c3d575f5ffd5b50565b5f81359050614c4e81614c2a565b92915050565b5f5f5f60608486031215614c6b57614c6a614b0c565b5b5f614c7886828701614be6565b9350506020614c8986828701614c40565b9250506040614c9a86828701614c40565b9150509250925092565b5f60208284031215614cb957614cb8614b0c565b5b5f614cc684828501614be6565b91505092915050565b5f81519050919050565b5f82825260208201905092915050565b8281835e5f83830152505050565b5f601f19601f8301169050919050565b5f614d1182614ccf565b614d1b8185614cd9565b9350614d2b818560208601614ce9565b614d3481614cf7565b840191505092915050565b5f6020820190508181035f830152614d578184614d07565b905092915050565b5f5f60408385031215614d7557614d74614b0c565b5b5f614d8285828601614c40565b9250506020614d9385828601614be6565b9150509250929050565b5f60208284031215614db257614db1614b0c565b5b5f614dbf84828501614c40565b91505092915050565b7f4e487b71000000000000000000000000000000000000000000000000000000005f52602160045260245ffd5b60058110614e0657614e05614dc8565b5b50565b5f819050614e1682614df5565b919050565b5f614e2582614e09565b9050919050565b614e3581614e1b565b82525050565b5f602082019050614e4e5f830184614e2c565b92915050565b5f67ffffffffffffffff82169050919050565b614e7081614e54565b8114614e7a575f5ffd5b50565b5f81359050614e8b81614e67565b92915050565b5f60208284031215614ea657614ea5614b0c565b5b5f614eb384828501614e7d565b91505092915050565b614ec581614bc7565b82525050565b5f602082019050614ede5f830184614ebc565b92915050565b5f5f5f60608486031215614efb57614efa614b0c565b5b5f614f0886828701614c40565b9350506020614f1986828701614c40565b9250506040614f2a86828701614be6565b9150509250925092565b5f819050919050565b614f4681614f34565b8114614f50575f5ffd5b50565b5f81359050614f6181614f3d565b92915050565b5f60208284031215614f7c57614f7b614b0c565b5b5f614f8984828501614f53565b91505092915050565b614f9b81614f34565b82525050565b5f602082019050614fb45f830184614f92565b92915050565b5f5f60408385031215614fd057614fcf614b0c565b5b5f614fdd85828601614f53565b9250506020614fee85828601614c40565b9150509250929050565b5f60ff82169050919050565b61500d81614ff8565b82525050565b5f6020820190506150265f830184615004565b92915050565b5f5ffd5b5f5ffd5b5f5ffd5b5f5f83601f84011261504d5761504c61502c565b5b8235905067ffffffffffffffff81111561506a57615069615030565b5b60208301915083602082028301111561508657615085615034565b5b9250929050565b61509681614b94565b81146150a0575f5ffd5b50565b5f813590506150b18161508d565b92915050565b5f5f5f604084860312156150ce576150cd614b0c565b5b5f84013567ffffffffffffffff8111156150eb576150ea614b10565b5b6150f786828701615038565b9350935050602061510a868287016150a3565b9150509250925092565b5f5f6040838503121561512a57615129614b0c565b5b5f61513785828601614be6565b925050602061514885828601614c40565b9150509250929050565b5f5f6040838503121561516857615167614b0c565b5b5f61517585828601614c40565b925050602061518685828601614c40565b9150509250929050565b61519981614e54565b82525050565b5f6040820190506151b25f830185615190565b6151bf6020830184615190565b9392505050565b5f7fff0000000000000000000000000000000000000000000000000000000000000082169050919050565b6151fa816151c6565b82525050565b61520981614c19565b82525050565b5f81519050919050565b5f82825260208201905092915050565b5f819050602082019050919050565b61524181614bc7565b82525050565b5f6152528383615238565b60208301905092915050565b5f602082019050919050565b5f6152748261520f565b61527e8185615219565b935061528983615229565b805f5b838110156152b95781516152a08882615247565b97506152ab8361525e565b92505060018101905061528c565b5085935050505092915050565b5f60e0820190506152d95f83018a6151f1565b81810360208301526152eb8189614d07565b905081810360408301526152ff8188614d07565b905061530e6060830187614ebc565b61531b6080830186615200565b61532860a0830185614f92565b81810360c083015261533a818461526a565b905098975050505050505050565b5f819050919050565b5f61536b61536661536184614bfa565b615348565b614bfa565b9050919050565b5f61537c82615351565b9050919050565b5f61538d82615372565b9050919050565b61539d81615383565b82525050565b5f6020820190506153b65f830184615394565b92915050565b5f6020820190506153cf5f830184615190565b92915050565b5f5f604083850312156153eb576153ea614b0c565b5b5f6153f885828601614e7d565b925050602061540985828601614e7d565b9150509250929050565b5f6020820190506154265f830184615200565b92915050565b5f60608201905061543f5f830186614ebc565b61544c6020830185614ebc565b6154596040830184614b9f565b949350505050565b61546a81614ff8565b8114615474575f5ffd5b50565b5f8135905061548581615461565b92915050565b5f5f5f5f5f5f5f60e0888a0312156154a6576154a5614b0c565b5b5f6154b38a828b01614c40565b97505060206154c48a828b01614c40565b96505060406154d58a828b01614be6565b95505060606154e68a828b01614be6565b94505060806154f78a828b01615477565b93505060a06155088a828b01614f53565b92505060c06155198a828b01614f53565b91505092959891949750929550565b5f60408201905061553b5f830185614e2c565b6155486020830184614e2c565b9392505050565b7f4e487b71000000000000000000000000000000000000000000000000000000005f52601160045260245ffd5b5f61558682614bc7565b915061559183614bc7565b92508282039050818111156155a9576155a861554f565b5b92915050565b5f6040820190506155c25f830185614ebc565b6155cf6020830184614ebc565b9392505050565b5f815190506155e481614bd0565b92915050565b5f602082840312156155ff576155fe614b0c565b5b5f61560c848285016155d6565b91505092915050565b7f4e487b71000000000000000000000000000000000000000000000000000000005f52602260045260245ffd5b5f600282049050600182168061565957607f821691505b60208210810361566c5761566b615615565b5b50919050565b7f4e487b71000000000000000000000000000000000000000000000000000000005f52603260045260245ffd5b5f6156a982614bc7565b91507fffffffffffffffffffffffffffffffffffffffffffffffffffffffffffffffff82036156db576156da61554f565b5b600182019050919050565b5f6156f082614bc7565b91506156fb83614bc7565b92508282019050808211156157135761571261554f565b5b92915050565b7f4e487b71000000000000000000000000000000000000000000000000000000005f52604160045260245ffd5b5f60c0820190506157595f830189614f92565b6157666020830188615200565b6157736040830187615200565b6157806060830186614ebc565b61578d6080830185614ebc565b61579a60a0830184614ebc565b979650505050505050565b5f6040820190506157b85f830185615200565b6157c56020830184615200565b9392505050565b5f6060820190506157df5f830186615200565b6157ec6020830185614ebc565b6157f96040830184614ebc565b949350505050565b5f6040820190506158145f830185615200565b6158216020830184614ebc565b9392505050565b5f60408201905061583b5f830185615200565b6158486020830184614b9f565b9392505050565b5f6060820190506158625f830186615200565b61586f6020830185615200565b61587c6040830184614ebc565b949350505050565b5f6040820190506158975f830185615200565b6158a46020830184614f92565b9392505050565b5f60a0820190506158be5f830188614f92565b6158cb6020830187614f92565b6158d86040830186614f92565b6158e56060830185614ebc565b6158f26080830184615200565b9695505050505050565b7f4e487b71000000000000000000000000000000000000000000000000000000005f52601260045260245ffd5b5f60808201905061593c5f830187614f92565b6159496020830186615004565b6159566040830185614f92565b6159636060830184614f92565b95945050505050565b5f61597682614ff8565b915061598183614ff8565b925082615991576159906158fc565b5b82820690509291505056fea2646970667358221220e06495322894ab9b95cd596af3359db8a6deb2ac77d8ede63d87de0c5e18f0a164736f6c634300081e0033",
			"opcodes": "PUSH2 0x180 PUSH1 0x40 MSTORE PUSH0 PUSH1 0xE PUSH1 0x14 PUSH2 0x100 EXP DUP2 SLOAD DUP2 PUSH1 0xFF MUL NOT AND SWAP1 DUP4 PUSH1 0x4 DUP2 GT ISZERO PUSH2 0x2A JUMPI PUSH2 0x29 PUSH2 0x8E2 JUMP JUMPDEST JUMPDEST MUL OR SWAP1 SSTORE POP CALLVALUE DUP1 ISZERO PUSH2 0x3A JUMPI PUSH0 PUSH0 REVERT JUMPDEST POP PUSH1 0x40 MLOAD PUSH2 0x6AE7 CODESIZE SUB DUP1 PUSH2 0x6AE7 DUP4 CODECOPY DUP2 DUP2 ADD PUSH1 0x40 MSTORE DUP2 ADD SWAP1 PUSH2 0x5C SWAP2 SWAP1 PUSH2 0xB26 JUMP JUMPDEST DUP1 DUP5 DUP5 DUP5 DUP10 DUP1 PUSH1 0x40 MLOAD DUP1 PUSH1 0x40 ADD PUSH1 0x40 MSTORE DUP1 PUSH1 0x1 DUP2 MSTORE PUSH1 0x20 ADD PUSH32 0x3100000000000000000000000000000000000000000000000000000000000000 DUP2 MSTORE POP DUP13 DUP13 DUP2 PUSH1 0x3 SWAP1 DUP2 PUSH2 0xA9 SWAP2 SWAP1 PUSH2 0xE02 JUMP JUMPDEST POP DUP1 PUSH1 0x4 SWAP1 DUP2 PUSH2 0xB9 SWAP2 SWAP1 PUSH2 0xE02 JUMP JUMPDEST POP POP POP PUSH2 0xD0 PUSH1 0x5 DUP4 PUSH2 0x2A1 PUSH1 0x20 SHL SWAP1 SWAP2 SWAP1 PUSH1 0x20 SHR JUMP JUMPDEST PUSH2 0x120 DUP2 DUP2 MSTORE POP POP PUSH2 0xEC PUSH1 0x6 DUP3 PUSH2 0x2A1 PUSH1 0x20 SHL SWAP1 SWAP2 SWAP1 PUSH1 0x20 SHR JUMP JUMPDEST PUSH2 0x140 DUP2 DUP2 MSTORE POP POP DUP2 DUP1 MLOAD SWAP1 PUSH1 0x20 ADD KECCAK256 PUSH1 0xE0 DUP2 DUP2 MSTORE POP POP DUP1 DUP1 MLOAD SWAP1 PUSH1 0x20 ADD KECCAK256 PUSH2 0x100 DUP2 DUP2 MSTORE POP POP CHAINID PUSH1 0xA0 DUP2 DUP2 MSTORE POP POP PUSH2 0x129 PUSH2 0x2EE PUSH1 0x20 SHL PUSH1 0x20 SHR JUMP JUMPDEST PUSH1 0x80 DUP2 DUP2 MSTORE POP POP ADDRESS PUSH20 0xFFFFFFFFFFFFFFFFFFFFFFFFFFFFFFFFFFFFFFFF AND PUSH1 0xC0 DUP2 PUSH20 0xFFFFFFFFFFFFFFFFFFFFFFFFFFFFFFFFFFFFFFFF AND DUP2 MSTORE POP POP POP POP POP PUSH1 0x1 PUSH1 0x9 DUP2 SWAP1 SSTORE POP PUSH2 0x17F DUP3 DUP3 PUSH2 0x348 PUSH1 0x20 SHL PUSH1 0x20 SHR JUMP JUMPDEST POP POP PUSH2 0x191 PUSH0 DUP3 PUSH2 0x5AC PUSH1 0x20 SHL PUSH1 0x20 SHR JUMP JUMPDEST POP PUSH2 0x1A1 DUP2 PUSH2 0x628 PUSH1 0x20 SHL PUSH1 0x20 SHR JUMP JUMPDEST POP DUP7 PUSH0 PUSH20 0xFFFFFFFFFFFFFFFFFFFFFFFFFFFFFFFFFFFFFFFF AND DUP2 PUSH20 0xFFFFFFFFFFFFFFFFFFFFFFFFFFFFFFFFFFFFFFFF AND SUB PUSH2 0x208 JUMPI PUSH1 0x40 MLOAD PUSH32 0xD92E233D00000000000000000000000000000000000000000000000000000000 DUP2 MSTORE PUSH1 0x4 ADD PUSH1 0x40 MLOAD DUP1 SWAP2 SUB SWAP1 REVERT JUMPDEST PUSH2 0x21A PUSH0 PUSH0 SHL DUP10 PUSH2 0x713 PUSH1 0x20 SHL PUSH1 0x20 SHR JUMP JUMPDEST POP PUSH2 0x24B PUSH32 0xA49807205CE4D355092EF5A8A18F56E8913CF4A201FBE287825B095693C21775 DUP10 PUSH2 0x713 PUSH1 0x20 SHL PUSH1 0x20 SHR JUMP JUMPDEST POP PUSH2 0x27C PUSH32 0xE1DCBDB91DF27212A29BC27177C840CF2F819ECF2187432E1FAC86C2DD5DFCA9 DUP10 PUSH2 0x713 PUSH1 0x20 SHL PUSH1 0x20 SHR JUMP JUMPDEST POP PUSH3 0xED4E00 TIMESTAMP PUSH2 0x28C SWAP2 SWAP1 PUSH2 0xEFE JUMP JUMPDEST PUSH2 0x160 DUP2 DUP2 MSTORE POP POP POP POP POP POP POP POP POP POP PUSH2 0x10B3 JUMP JUMPDEST PUSH0 PUSH1 0x20 DUP4 MLOAD LT ISZERO PUSH2 0x2C2 JUMPI PUSH2 0x2BB DUP4 PUSH2 0x809 PUSH1 0x20 SHL PUSH1 0x20 SHR JUMP JUMPDEST SWAP1 POP PUSH2 0x2E8 JUMP JUMPDEST DUP3 PUSH2 0x2D2 DUP4 PUSH2 0x86E PUSH1 0x20 SHL PUSH1 0x20 SHR JUMP JUMPDEST PUSH0 ADD SWAP1 DUP2 PUSH2 0x2E0 SWAP2 SWAP1 PUSH2 0xE02 JUMP JUMPDEST POP PUSH1 0xFF PUSH0 SHL SWAP1 POP JUMPDEST SWAP3 SWAP2 POP POP JUMP JUMPDEST PUSH0 PUSH32 0x8B73C3C69BB8FE3D512ECC4CF759CC79239F7B179B0FFACAA9A75D522B39400F PUSH1 0xE0 MLOAD PUSH2 0x100 MLOAD CHAINID ADDRESS PUSH1 0x40 MLOAD PUSH1 0x20 ADD PUSH2 0x32D SWAP6 SWAP5 SWAP4 SWAP3 SWAP2 SWAP1 PUSH2 0xF67 JUMP JUMPDEST PUSH1 0x40 MLOAD PUSH1 0x20 DUP2 DUP4 SUB SUB DUP2 MSTORE SWAP1 PUSH1 0x40 MSTORE DUP1 MLOAD SWAP1 PUSH1 0x20 ADD KECCAK256 SWAP1 POP SWAP1 JUMP JUMPDEST PUSH0 PUSH0 PUSH1 0xA PUSH0 SWAP1 SLOAD SWAP1 PUSH2 0x100 EXP SWAP1 DIV PUSH8 0xFFFFFFFFFFFFFFFF AND PUSH8 0xFFFFFFFFFFFFFFFF AND EQ DUP1 ISZERO PUSH2 0x396 JUMPI POP PUSH0 PUSH1 0xA PUSH1 0x8 SWAP1 SLOAD SWAP1 PUSH2 0x100 EXP SWAP1 DIV PUSH8 0xFFFFFFFFFFFFFFFF AND PUSH8 0xFFFFFFFFFFFFFFFF AND EQ JUMPDEST SWAP1 POP PUSH0 PUSH0 PUSH1 0xA PUSH0 SWAP1 SLOAD SWAP1 PUSH2 0x100 EXP SWAP1 DIV PUSH8 0xFFFFFFFFFFFFFFFF AND PUSH8 0xFFFFFFFFFFFFFFFF AND EQ ISZERO DUP1 ISZERO PUSH2 0x3E6 JUMPI POP PUSH1 0xA PUSH0 SWAP1 SLOAD SWAP1 PUSH2 0x100 EXP SWAP1 DIV PUSH8 0xFFFFFFFFFFFFFFFF AND PUSH8 0xFFFFFFFFFFFFFFFF AND TIMESTAMP LT JUMPDEST SWAP1 POP DUP2 ISZERO DUP1 ISZERO PUSH2 0x3F4 JUMPI POP DUP1 ISZERO JUMPDEST ISZERO PUSH2 0x42B JUMPI PUSH1 0x40 MLOAD PUSH32 0x18B24C3600000000000000000000000000000000000000000000000000000000 DUP2 MSTORE PUSH1 0x4 ADD PUSH1 0x40 MLOAD DUP1 SWAP2 SUB SWAP1 REVERT JUMPDEST PUSH0 DUP5 PUSH8 0xFFFFFFFFFFFFFFFF AND EQ DUP1 PUSH2 0x44C JUMPI POP PUSH0 DUP4 PUSH8 0xFFFFFFFFFFFFFFFF AND EQ JUMPDEST ISZERO PUSH2 0x483 JUMPI PUSH1 0x40 MLOAD PUSH32 0x4994DC0200000000000000000000000000000000000000000000000000000000 DUP2 MSTORE PUSH1 0x4 ADD PUSH1 0x40 MLOAD DUP1 SWAP2 SUB SWAP1 REVERT JUMPDEST DUP3 PUSH8 0xFFFFFFFFFFFFFFFF AND DUP5 PUSH8 0xFFFFFFFFFFFFFFFF AND LT PUSH2 0x4D0 JUMPI PUSH1 0x40 MLOAD PUSH32 0x4994DC0200000000000000000000000000000000000000000000000000000000 DUP2 MSTORE PUSH1 0x4 ADD PUSH1 0x40 MLOAD DUP1 SWAP2 SUB SWAP1 REVERT JUMPDEST TIMESTAMP DUP5 PUSH8 0xFFFFFFFFFFFFFFFF AND GT PUSH2 0x513 JUMPI PUSH1 0x40 MLOAD PUSH32 0x4994DC0200000000000000000000000000000000000000000000000000000000 DUP2 MSTORE PUSH1 0x4 ADD PUSH1 0x40 MLOAD DUP1 SWAP2 SUB SWAP1 REVERT JUMPDEST DUP4 PUSH1 0xA PUSH0 PUSH2 0x100 EXP DUP2 SLOAD DUP2 PUSH8 0xFFFFFFFFFFFFFFFF MUL NOT AND SWAP1 DUP4 PUSH8 0xFFFFFFFFFFFFFFFF AND MUL OR SWAP1 SSTORE POP DUP3 PUSH1 0xA PUSH1 0x8 PUSH2 0x100 EXP DUP2 SLOAD DUP2 PUSH8 0xFFFFFFFFFFFFFFFF MUL NOT AND SWAP1 DUP4 PUSH8 0xFFFFFFFFFFFFFFFF AND MUL OR SWAP1 SSTORE POP DUP3 PUSH8 0xFFFFFFFFFFFFFFFF AND DUP5 PUSH8 0xFFFFFFFFFFFFFFFF AND PUSH32 0x709A99E52F3AD08814A91314C2CE5127558C0FFEB6D0A5DF5A637276CB804D6E PUSH1 0x40 MLOAD PUSH1 0x40 MLOAD DUP1 SWAP2 SUB SWAP1 LOG3 POP POP POP POP JUMP JUMPDEST PUSH0 DUP2 EQ DUP1 PUSH2 0x5B9 JUMPI POP DUP2 DUP2 LT JUMPDEST ISZERO PUSH2 0x5F0 JUMPI PUSH1 0x40 MLOAD PUSH32 0x39423AE400000000000000000000000000000000000000000000000000000000 DUP2 MSTORE PUSH1 0x4 ADD PUSH1 0x40 MLOAD DUP1 SWAP2 SUB SWAP1 REVERT JUMPDEST DUP1 PUSH1 0xB DUP2 SWAP1 SSTORE POP DUP1 PUSH32 0x50E5341D7A4AD030A1A03C7B2BCCFA67438C0BDF5C398A3B1D7A64BABFBF97FE PUSH1 0x40 MLOAD PUSH1 0x40 MLOAD DUP1 SWAP2 SUB SWAP1 LOG2 POP POP JUMP JUMPDEST PUSH0 PUSH20 0xFFFFFFFFFFFFFFFFFFFFFFFFFFFFFFFFFFFFFFFF AND DUP2 PUSH20 0xFFFFFFFFFFFFFFFFFFFFFFFFFFFFFFFFFFFFFFFF AND SUB PUSH2 0x68D JUMPI PUSH1 0x40 MLOAD PUSH32 0xCFE2EA6300000000000000000000000000000000000000000000000000000000 DUP2 MSTORE PUSH1 0x4 ADD PUSH1 0x40 MLOAD DUP1 SWAP2 SUB SWAP1 REVERT JUMPDEST DUP1 PUSH1 0xE PUSH0 PUSH2 0x100 EXP DUP2 SLOAD DUP2 PUSH20 0xFFFFFFFFFFFFFFFFFFFFFFFFFFFFFFFFFFFFFFFF MUL NOT AND SWAP1 DUP4 PUSH20 0xFFFFFFFFFFFFFFFFFFFFFFFFFFFFFFFFFFFFFFFF AND MUL OR SWAP1 SSTORE POP DUP1 PUSH20 0xFFFFFFFFFFFFFFFFFFFFFFFFFFFFFFFFFFFFFFFF AND PUSH32 0x5CC4BDB402E519D4921D6BFACA9C17C16EA3A8E658FF5ACCD29E6080635562CE PUSH1 0x40 MLOAD PUSH1 0x40 MLOAD DUP1 SWAP2 SUB SWAP1 LOG2 POP JUMP JUMPDEST PUSH0 PUSH2 0x724 DUP4 DUP4 PUSH2 0x877 PUSH1 0x20 SHL PUSH1 0x20 SHR JUMP JUMPDEST PUSH2 0x7FF JUMPI PUSH1 0x1 PUSH1 0x8 PUSH0 DUP6 DUP2 MSTORE PUSH1 0x20 ADD SWAP1 DUP2 MSTORE PUSH1 0x20 ADD PUSH0 KECCAK256 PUSH0 ADD PUSH0 DUP5 PUSH20 0xFFFFFFFFFFFFFFFFFFFFFFFFFFFFFFFFFFFFFFFF AND PUSH20 0xFFFFFFFFFFFFFFFFFFFFFFFFFFFFFFFFFFFFFFFF AND DUP2 MSTORE PUSH1 0x20 ADD SWAP1 DUP2 MSTORE PUSH1 0x20 ADD PUSH0 KECCAK256 PUSH0 PUSH2 0x100 EXP DUP2 SLOAD DUP2 PUSH1 0xFF MUL NOT AND SWAP1 DUP4 ISZERO ISZERO MUL OR SWAP1 SSTORE POP PUSH2 0x79C PUSH2 0x8DB PUSH1 0x20 SHL PUSH1 0x20 SHR JUMP JUMPDEST PUSH20 0xFFFFFFFFFFFFFFFFFFFFFFFFFFFFFFFFFFFFFFFF AND DUP3 PUSH20 0xFFFFFFFFFFFFFFFFFFFFFFFFFFFFFFFFFFFFFFFF AND DUP5 PUSH32 0x2F8788117E7EFF1D82E926EC794901D17C78024A50270940304540A733656F0D PUSH1 0x40 MLOAD PUSH1 0x40 MLOAD DUP1 SWAP2 SUB SWAP1 LOG4 PUSH1 0x1 SWAP1 POP PUSH2 0x803 JUMP JUMPDEST PUSH0 SWAP1 POP JUMPDEST SWAP3 SWAP2 POP POP JUMP JUMPDEST PUSH0 PUSH0 DUP3 SWAP1 POP PUSH1 0x1F DUP2 MLOAD GT ISZERO PUSH2 0x855 JUMPI DUP3 PUSH1 0x40 MLOAD PUSH32 0x305A27A900000000000000000000000000000000000000000000000000000000 DUP2 MSTORE PUSH1 0x4 ADD PUSH2 0x84C SWAP2 SWAP1 PUSH2 0x1000 JUMP JUMPDEST PUSH1 0x40 MLOAD DUP1 SWAP2 SUB SWAP1 REVERT JUMPDEST DUP1 MLOAD DUP2 PUSH2 0x861 SWAP1 PUSH2 0x104D JUMP JUMPDEST PUSH0 SHR OR PUSH0 SHL SWAP2 POP POP SWAP2 SWAP1 POP JUMP JUMPDEST PUSH0 DUP2 SWAP1 POP SWAP2 SWAP1 POP JUMP JUMPDEST PUSH0 PUSH1 0x8 PUSH0 DUP5 DUP2 MSTORE PUSH1 0x20 ADD SWAP1 DUP2 MSTORE PUSH1 0x20 ADD PUSH0 KECCAK256 PUSH0 ADD PUSH0 DUP4 PUSH20 0xFFFFFFFFFFFFFFFFFFFFFFFFFFFFFFFFFFFFFFFF AND PUSH20 0xFFFFFFFFFFFFFFFFFFFFFFFFFFFFFFFFFFFFFFFF AND DUP2 MSTORE PUSH1 0x20 ADD SWAP1 DUP2 MSTORE PUSH1 0x20 ADD PUSH0 KECCAK256 PUSH0 SWAP1 SLOAD SWAP1 PUSH2 0x100 EXP SWAP1 DIV PUSH1 0xFF AND SWAP1 POP SWAP3 SWAP2 POP POP JUMP JUMPDEST PUSH0 CALLER SWAP1 POP SWAP1 JUMP JUMPDEST PUSH32 0x4E487B7100000000000000000000000000000000000000000000000000000000 PUSH0 MSTORE PUSH1 0x21 PUSH1 0x4 MSTORE PUSH1 0x24 PUSH0 REVERT JUMPDEST PUSH0 PUSH1 0x40 MLOAD SWAP1 POP SWAP1 JUMP JUMPDEST PUSH0 PUSH0 REVERT JUMPDEST PUSH0 PUSH0 REVERT JUMPDEST PUSH0 PUSH20 0xFFFFFFFFFFFFFFFFFFFFFFFFFFFFFFFFFFFFFFFF DUP3 AND SWAP1 POP SWAP2 SWAP1 POP JUMP JUMPDEST PUSH0 PUSH2 0x949 DUP3 PUSH2 0x920 JUMP JUMPDEST SWAP1 POP SWAP2 SWAP1 POP JUMP JUMPDEST PUSH2 0x959 DUP2 PUSH2 0x93F JUMP JUMPDEST DUP2 EQ PUSH2 0x963 JUMPI PUSH0 PUSH0 REVERT JUMPDEST POP JUMP JUMPDEST PUSH0 DUP2 MLOAD SWAP1 POP PUSH2 0x974 DUP2 PUSH2 0x950 JUMP JUMPDEST SWAP3 SWAP2 POP POP JUMP JUMPDEST PUSH0 PUSH0 REVERT JUMPDEST PUSH0 PUSH0 REVERT JUMPDEST PUSH0 PUSH1 0x1F NOT PUSH1 0x1F DUP4 ADD AND SWAP1 POP SWAP2 SWAP1 POP JUMP JUMPDEST PUSH32 0x4E487B7100000000000000000000000000000000000000000000000000000000 PUSH0 MSTORE PUSH1 0x41 PUSH1 0x4 MSTORE PUSH1 0x24 PUSH0 REVERT JUMPDEST PUSH2 0x9C8 DUP3 PUSH2 0x982 JUMP JUMPDEST DUP2 ADD DUP2 DUP2 LT PUSH8 0xFFFFFFFFFFFFFFFF DUP3 GT OR ISZERO PUSH2 0x9E7 JUMPI PUSH2 0x9E6 PUSH2 0x992 JUMP JUMPDEST JUMPDEST DUP1 PUSH1 0x40 MSTORE POP POP POP JUMP JUMPDEST PUSH0 PUSH2 0x9F9 PUSH2 0x90F JUMP JUMPDEST SWAP1 POP PUSH2 0xA05 DUP3 DUP3 PUSH2 0x9BF JUMP JUMPDEST SWAP2 SWAP1 POP JUMP JUMPDEST PUSH0 PUSH8 0xFFFFFFFFFFFFFFFF DUP3 GT ISZERO PUSH2 0xA24 JUMPI PUSH2 0xA23 PUSH2 0x992 JUMP JUMPDEST JUMPDEST PUSH2 0xA2D DUP3 PUSH2 0x982 JUMP JUMPDEST SWAP1 POP PUSH1 0x20 DUP2 ADD SWAP1 POP SWAP2 SWAP1 POP JUMP JUMPDEST DUP3 DUP2 DUP4 MCOPY PUSH0 DUP4 DUP4 ADD MSTORE POP POP POP JUMP JUMPDEST PUSH0 PUSH2 0xA5A PUSH2 0xA55 DUP5 PUSH2 0xA0A JUMP JUMPDEST PUSH2 0x9F0 JUMP JUMPDEST SWAP1 POP DUP3 DUP2 MSTORE PUSH1 0x20 DUP2 ADD DUP5 DUP5 DUP5 ADD GT ISZERO PUSH2 0xA76 JUMPI PUSH2 0xA75 PUSH2 0x97E JUMP JUMPDEST JUMPDEST PUSH2 0xA81 DUP5 DUP3 DUP6 PUSH2 0xA3A JUMP JUMPDEST POP SWAP4 SWAP3 POP POP POP JUMP JUMPDEST PUSH0 DUP3 PUSH1 0x1F DUP4 ADD SLT PUSH2 0xA9D JUMPI PUSH2 0xA9C PUSH2 0x97A JUMP JUMPDEST JUMPDEST DUP2 MLOAD PUSH2 0xAAD DUP5 DUP3 PUSH1 0x20 DUP7 ADD PUSH2 0xA48 JUMP JUMPDEST SWAP2 POP POP SWAP3 SWAP2 POP POP JUMP JUMPDEST PUSH0 DUP2 SWAP1 POP SWAP2 SWAP1 POP JUMP JUMPDEST PUSH2 0xAC8 DUP2 PUSH2 0xAB6 JUMP JUMPDEST DUP2 EQ PUSH2 0xAD2 JUMPI PUSH0 PUSH0 REVERT JUMPDEST POP JUMP JUMPDEST PUSH0 DUP2 MLOAD SWAP1 POP PUSH2 0xAE3 DUP2 PUSH2 0xABF JUMP JUMPDEST SWAP3 SWAP2 POP POP JUMP JUMPDEST PUSH0 PUSH8 0xFFFFFFFFFFFFFFFF DUP3 AND SWAP1 POP SWAP2 SWAP1 POP JUMP JUMPDEST PUSH2 0xB05 DUP2 PUSH2 0xAE9 JUMP JUMPDEST DUP2 EQ PUSH2 0xB0F JUMPI PUSH0 PUSH0 REVERT JUMPDEST POP JUMP JUMPDEST PUSH0 DUP2 MLOAD SWAP1 POP PUSH2 0xB20 DUP2 PUSH2 0xAFC JUMP JUMPDEST SWAP3 SWAP2 POP POP JUMP JUMPDEST PUSH0 PUSH0 PUSH0 PUSH0 PUSH0 PUSH0 PUSH0 PUSH1 0xE0 DUP9 DUP11 SUB SLT ISZERO PUSH2 0xB41 JUMPI PUSH2 0xB40 PUSH2 0x918 JUMP JUMPDEST JUMPDEST PUSH0 PUSH2 0xB4E DUP11 DUP3 DUP12 ADD PUSH2 0x966 JUMP JUMPDEST SWAP8 POP POP PUSH1 0x20 DUP9 ADD MLOAD PUSH8 0xFFFFFFFFFFFFFFFF DUP2 GT ISZERO PUSH2 0xB6F JUMPI PUSH2 0xB6E PUSH2 0x91C JUMP JUMPDEST JUMPDEST PUSH2 0xB7B DUP11 DUP3 DUP12 ADD PUSH2 0xA89 JUMP JUMPDEST SWAP7 POP POP PUSH1 0x40 DUP9 ADD MLOAD PUSH8 0xFFFFFFFFFFFFFFFF DUP2 GT ISZERO PUSH2 0xB9C JUMPI PUSH2 0xB9B PUSH2 0x91C JUMP JUMPDEST JUMPDEST PUSH2 0xBA8 DUP11 DUP3 DUP12 ADD PUSH2 0xA89 JUMP JUMPDEST SWAP6 POP POP PUSH1 0x60 PUSH2 0xBB9 DUP11 DUP3 DUP12 ADD PUSH2 0xAD5 JUMP JUMPDEST SWAP5 POP POP PUSH1 0x80 PUSH2 0xBCA DUP11 DUP3 DUP12 ADD PUSH2 0xB12 JUMP JUMPDEST SWAP4 POP POP PUSH1 0xA0 PUSH2 0xBDB DUP11 DUP3 DUP12 ADD PUSH2 0xB12 JUMP JUMPDEST SWAP3 POP POP PUSH1 0xC0 PUSH2 0xBEC DUP11 DUP3 DUP12 ADD PUSH2 0x966 JUMP JUMPDEST SWAP2 POP POP SWAP3 SWAP6 SWAP9 SWAP2 SWAP5 SWAP8 POP SWAP3 SWAP6 POP JUMP JUMPDEST PUSH0 DUP2 MLOAD SWAP1 POP SWAP2 SWAP1 POP JUMP JUMPDEST PUSH32 0x4E487B7100000000000000000000000000000000000000000000000000000000 PUSH0 MSTORE PUSH1 0x22 PUSH1 0x4 MSTORE PUSH1 0x24 PUSH0 REVERT JUMPDEST PUSH0 PUSH1 0x2 DUP3 DIV SWAP1 POP PUSH1 0x1 DUP3 AND DUP1 PUSH2 0xC49 JUMPI PUSH1 0x7F DUP3 AND SWAP2 POP JUMPDEST PUSH1 0x20 DUP3 LT DUP2 SUB PUSH2 0xC5C JUMPI PUSH2 0xC5B PUSH2 0xC05 JUMP JUMPDEST JUMPDEST POP SWAP2 SWAP1 POP JUMP JUMPDEST PUSH0 DUP2 SWAP1 POP DUP2 PUSH0 MSTORE PUSH1 0x20 PUSH0 KECCAK256 SWAP1 POP SWAP2 SWAP1 POP JUMP JUMPDEST PUSH0 PUSH1 0x20 PUSH1 0x1F DUP4 ADD DIV SWAP1 POP SWAP2 SWAP1 POP JUMP JUMPDEST PUSH0 DUP3 DUP3 SHL SWAP1 POP SWAP3 SWAP2 POP POP JUMP JUMPDEST PUSH0 PUSH1 0x8 DUP4 MUL PUSH2 0xCBE PUSH32 0xFFFFFFFFFFFFFFFFFFFFFFFFFFFFFFFFFFFFFFFFFFFFFFFFFFFFFFFFFFFFFFFF DUP3 PUSH2 0xC83 JUMP JUMPDEST PUSH2 0xCC8 DUP7 DUP4 PUSH2 0xC83 JUMP JUMPDEST SWAP6 POP DUP1 NOT DUP5 AND SWAP4 POP DUP1 DUP7 AND DUP5 OR SWAP3 POP POP POP SWAP4 SWAP3 POP POP POP JUMP JUMPDEST PUSH0 DUP2 SWAP1 POP SWAP2 SWAP1 POP JUMP JUMPDEST PUSH0 PUSH2 0xD03 PUSH2 0xCFE PUSH2 0xCF9 DUP5 PUSH2 0xAB6 JUMP JUMPDEST PUSH2 0xCE0 JUMP JUMPDEST PUSH2 0xAB6 JUMP JUMPDEST SWAP1 POP SWAP2 SWAP1 POP JUMP JUMPDEST PUSH0 DUP2 SWAP1 POP SWAP2 SWAP1 POP JUMP JUMPDEST PUSH2 0xD1C DUP4 PUSH2 0xCE9 JUMP JUMPDEST PUSH2 0xD30 PUSH2 0xD28 DUP3 PUSH2 0xD0A JUMP JUMPDEST DUP5 DUP5 SLOAD PUSH2 0xC8F JUMP JUMPDEST DUP3 SSTORE POP POP POP POP JUMP JUMPDEST PUSH0 PUSH0 SWAP1 POP SWAP1 JUMP JUMPDEST PUSH2 0xD47 PUSH2 0xD38 JUMP JUMPDEST PUSH2 0xD52 DUP2 DUP5 DUP5 PUSH2 0xD13 JUMP JUMPDEST POP POP POP JUMP JUMPDEST JUMPDEST DUP2 DUP2 LT ISZERO PUSH2 0xD75 JUMPI PUSH2 0xD6A PUSH0 DUP3 PUSH2 0xD3F JUMP JUMPDEST PUSH1 0x1 DUP2 ADD SWAP1 POP PUSH2 0xD58 JUMP JUMPDEST POP POP JUMP JUMPDEST PUSH1 0x1F DUP3 GT ISZERO PUSH2 0xDBA JUMPI PUSH2 0xD8B DUP2 PUSH2 0xC62 JUMP JUMPDEST PUSH2 0xD94 DUP5 PUSH2 0xC74 JUMP JUMPDEST DUP2 ADD PUSH1 0x20 DUP6 LT ISZERO PUSH2 0xDA3 JUMPI DUP2 SWAP1 POP JUMPDEST PUSH2 0xDB7 PUSH2 0xDAF DUP6 PUSH2 0xC74 JUMP JUMPDEST DUP4 ADD DUP3 PUSH2 0xD57 JUMP JUMPDEST POP POP JUMPDEST POP POP POP JUMP JUMPDEST PUSH0 DUP3 DUP3 SHR SWAP1 POP SWAP3 SWAP2 POP POP JUMP JUMPDEST PUSH0 PUSH2 0xDDA PUSH0 NOT DUP5 PUSH1 0x8 MUL PUSH2 0xDBF JUMP JUMPDEST NOT DUP1 DUP4 AND SWAP2 POP POP SWAP3 SWAP2 POP POP JUMP JUMPDEST PUSH0 PUSH2 0xDF2 DUP4 DUP4 PUSH2 0xDCB JUMP JUMPDEST SWAP2 POP DUP3 PUSH1 0x2 MUL DUP3 OR SWAP1 POP SWAP3 SWAP2 POP POP JUMP JUMPDEST PUSH2 0xE0B DUP3 PUSH2 0xBFB JUMP JUMPDEST PUSH8 0xFFFFFFFFFFFFFFFF DUP2 GT ISZERO PUSH2 0xE24 JUMPI PUSH2 0xE23 PUSH2 0x992 JUMP JUMPDEST JUMPDEST PUSH2 0xE2E DUP3 SLOAD PUSH2 0xC32 JUMP JUMPDEST PUSH2 0xE39 DUP3 DUP3 DUP6 PUSH2 0xD79 JUMP JUMPDEST PUSH0 PUSH1 0x20 SWAP1 POP PUSH1 0x1F DUP4 GT PUSH1 0x1 DUP2 EQ PUSH2 0xE6A JUMPI PUSH0 DUP5 ISZERO PUSH2 0xE58 JUMPI DUP3 DUP8 ADD MLOAD SWAP1 POP JUMPDEST PUSH2 0xE62 DUP6 DUP3 PUSH2 0xDE7 JUMP JUMPDEST DUP7 SSTORE POP PUSH2 0xEC9 JUMP JUMPDEST PUSH1 0x1F NOT DUP5 AND PUSH2 0xE78 DUP7 PUSH2 0xC62 JUMP JUMPDEST PUSH0 JUMPDEST DUP3 DUP2 LT ISZERO PUSH2 0xE9F JUMPI DUP5 DUP10 ADD MLOAD DUP3 SSTORE PUSH1 0x1 DUP3 ADD SWAP2 POP PUSH1 0x20 DUP6 ADD SWAP5 POP PUSH1 0x20 DUP2 ADD SWAP1 POP PUSH2 0xE7A JUMP JUMPDEST DUP7 DUP4 LT ISZERO PUSH2 0xEBC JUMPI DUP5 DUP10 ADD MLOAD PUSH2 0xEB8 PUSH1 0x1F DUP10 AND DUP3 PUSH2 0xDCB JUMP JUMPDEST DUP4 SSTORE POP JUMPDEST PUSH1 0x1 PUSH1 0x2 DUP9 MUL ADD DUP9 SSTORE POP POP POP JUMPDEST POP POP POP POP POP POP JUMP JUMPDEST PUSH32 0x4E487B7100000000000000000000000000000000000000000000000000000000 PUSH0 MSTORE PUSH1 0x11 PUSH1 0x4 MSTORE PUSH1 0x24 PUSH0 REVERT JUMPDEST PUSH0 PUSH2 0xF08 DUP3 PUSH2 0xAB6 JUMP JUMPDEST SWAP2 POP PUSH2 0xF13 DUP4 PUSH2 0xAB6 JUMP JUMPDEST SWAP3 POP DUP3 DUP3 ADD SWAP1 POP DUP1 DUP3 GT ISZERO PUSH2 0xF2B JUMPI PUSH2 0xF2A PUSH2 0xED1 JUMP JUMPDEST JUMPDEST SWAP3 SWAP2 POP POP JUMP JUMPDEST PUSH0 DUP2 SWAP1 POP SWAP2 SWAP1 POP JUMP JUMPDEST PUSH2 0xF43 DUP2 PUSH2 0xF31 JUMP JUMPDEST DUP3 MSTORE POP POP JUMP JUMPDEST PUSH2 0xF52 DUP2 PUSH2 0xAB6 JUMP JUMPDEST DUP3 MSTORE POP POP JUMP JUMPDEST PUSH2 0xF61 DUP2 PUSH2 0x93F JUMP JUMPDEST DUP3 MSTORE POP POP JUMP JUMPDEST PUSH0 PUSH1 0xA0 DUP3 ADD SWAP1 POP PUSH2 0xF7A PUSH0 DUP4 ADD DUP9 PUSH2 0xF3A JUMP JUMPDEST PUSH2 0xF87 PUSH1 0x20 DUP4 ADD DUP8 PUSH2 0xF3A JUMP JUMPDEST PUSH2 0xF94 PUSH1 0x40 DUP4 ADD DUP7 PUSH2 0xF3A JUMP JUMPDEST PUSH2 0xFA1 PUSH1 0x60 DUP4 ADD DUP6 PUSH2 0xF49 JUMP JUMPDEST PUSH2 0xFAE PUSH1 0x80 DUP4 ADD DUP5 PUSH2 0xF58 JUMP JUMPDEST SWAP7 SWAP6 POP POP POP POP POP POP JUMP JUMPDEST PUSH0 DUP3 DUP3 MSTORE PUSH1 0x20 DUP3 ADD SWAP1 POP SWAP3 SWAP2 POP POP JUMP JUMPDEST PUSH0 PUSH2 0xFD2 DUP3 PUSH2 0xBFB JUMP JUMPDEST PUSH2 0xFDC DUP2 DUP6 PUSH2 0xFB8 JUMP JUMPDEST SWAP4 POP PUSH2 0xFEC DUP2 DUP6 PUSH1 0x20 DUP7 ADD PUSH2 0xA3A JUMP JUMPDEST PUSH2 0xFF5 DUP2 PUSH2 0x982 JUMP JUMPDEST DUP5 ADD SWAP2 POP POP SWAP3 SWAP2 POP POP JUMP JUMPDEST PUSH0 PUSH1 0x20 DUP3 ADD SWAP1 POP DUP2 DUP2 SUB PUSH0 DUP4 ADD MSTORE PUSH2 0x1018 DUP2 DUP5 PUSH2 0xFC8 JUMP JUMPDEST SWAP1 POP SWAP3 SWAP2 POP POP JUMP JUMPDEST PUSH0 DUP2 MLOAD SWAP1 POP SWAP2 SWAP1 POP JUMP JUMPDEST PUSH0 DUP2 SWAP1 POP PUSH1 0x20 DUP3 ADD SWAP1 POP SWAP2 SWAP1 POP JUMP JUMPDEST PUSH0 PUSH2 0x1044 DUP3 MLOAD PUSH2 0xF31 JUMP JUMPDEST DUP1 SWAP2 POP POP SWAP2 SWAP1 POP JUMP JUMPDEST PUSH0 PUSH2 0x1057 DUP3 PUSH2 0x1020 JUMP JUMPDEST DUP3 PUSH2 0x1061 DUP5 PUSH2 0x102A JUMP JUMPDEST SWAP1 POP PUSH2 0x106C DUP2 PUSH2 0x1039 JUMP JUMPDEST SWAP3 POP PUSH1 0x20 DUP3 LT ISZERO PUSH2 0x10AC JUMPI PUSH2 0x10A7 PUSH32 0xFFFFFFFFFFFFFFFFFFFFFFFFFFFFFFFFFFFFFFFFFFFFFFFFFFFFFFFFFFFFFFFF DUP4 PUSH1 0x20 SUB PUSH1 0x8 MUL PUSH2 0xC83 JUMP JUMPDEST DUP4 AND SWAP3 POP JUMPDEST POP POP SWAP2 SWAP1 POP JUMP JUMPDEST PUSH1 0x80 MLOAD PUSH1 0xA0 MLOAD PUSH1 0xC0 MLOAD PUSH1 0xE0 MLOAD PUSH2 0x100 MLOAD PUSH2 0x120 MLOAD PUSH2 0x140 MLOAD PUSH2 0x160 MLOAD PUSH2 0x59D2 PUSH2 0x1115 PUSH0 CODECOPY PUSH0 DUP2 DUP2 PUSH2 0x136E ADD MSTORE PUSH2 0x2634 ADD MSTORE PUSH0 PUSH2 0x3A86 ADD MSTORE PUSH0 PUSH2 0x3A4B ADD MSTORE PUSH0 PUSH2 0x4302 ADD MSTORE PUSH0 PUSH2 0x42E1 ADD MSTORE PUSH0 PUSH2 0x3475 ADD MSTORE PUSH0 PUSH2 0x34CB ADD MSTORE PUSH0 PUSH2 0x34F4 ADD MSTORE PUSH2 0x59D2 PUSH0 RETURN INVALID PUSH1 0x80 PUSH1 0x40 MSTORE CALLVALUE DUP1 ISZERO PUSH2 0xF JUMPI PUSH0 PUSH0 REVERT JUMPDEST POP PUSH1 0x4 CALLDATASIZE LT PUSH2 0x376 JUMPI PUSH0 CALLDATALOAD PUSH1 0xE0 SHR DUP1 PUSH4 0x7ECEBE00 GT PUSH2 0x1D1 JUMPI DUP1 PUSH4 0xC54E44EB GT PUSH2 0x102 JUMPI DUP1 PUSH4 0xD547741F GT PUSH2 0xA0 JUMPI DUP1 PUSH4 0xD9F98EF1 GT PUSH2 0x7A JUMPI DUP1 PUSH4 0xD9F98EF1 EQ PUSH2 0xA07 JUMPI DUP1 PUSH4 0xDBD5EDC7 EQ PUSH2 0xA23 JUMPI DUP1 PUSH4 0xDD62ED3E EQ PUSH2 0xA41 JUMPI DUP1 PUSH4 0xFEF4AEA2 EQ PUSH2 0xA71 JUMPI PUSH2 0x376 JUMP JUMPDEST DUP1 PUSH4 0xD547741F EQ PUSH2 0x99D JUMPI DUP1 PUSH4 0xD83993E8 EQ PUSH2 0x9B9 JUMPI DUP1 PUSH4 0xD9C146DE EQ PUSH2 0x9E9 JUMPI PUSH2 0x376 JUMP JUMPDEST DUP1 PUSH4 0xCBE52AE3 GT PUSH2 0xDC JUMPI DUP1 PUSH4 0xCBE52AE3 EQ PUSH2 0x913 JUMPI DUP1 PUSH4 0xCD596583 EQ PUSH2 0x945 JUMPI DUP1 PUSH4 0xD11A57EC EQ PUSH2 0x963 JUMPI DUP1 PUSH4 0xD505ACCF EQ PUSH2 0x981 JUMPI PUSH2 0x376 JUMP JUMPDEST DUP1 PUSH4 0xC54E44EB EQ PUSH2 0x8A7 JUMPI DUP1 PUSH4 0xC5F956AF EQ PUSH2 0x8C5 JUMPI DUP1 PUSH4 0xC824ECFA EQ PUSH2 0x8E3 JUMPI PUSH2 0x376 JUMP JUMPDEST DUP1 PUSH4 0x95D89B41 GT PUSH2 0x16F JUMPI DUP1 PUSH4 0xA217FDDF GT PUSH2 0x149 JUMPI DUP1 PUSH4 0xA217FDDF EQ PUSH2 0x833 JUMPI DUP1 PUSH4 0xA589D9F2 EQ PUSH2 0x851 JUMPI DUP1 PUSH4 0xA9059CBB EQ PUSH2 0x86D JUMPI DUP1 PUSH4 0xB6E36C50 EQ PUSH2 0x89D JUMPI PUSH2 0x376 JUMP JUMPDEST DUP1 PUSH4 0x95D89B41 EQ PUSH2 0x7ED JUMPI DUP1 PUSH4 0x98E3601F EQ PUSH2 0x80B JUMPI DUP1 PUSH4 0x99B6F607 EQ PUSH2 0x815 JUMPI PUSH2 0x376 JUMP JUMPDEST DUP1 PUSH4 0x86651203 GT PUSH2 0x1AB JUMPI DUP1 PUSH4 0x86651203 EQ PUSH2 0x779 JUMPI DUP1 PUSH4 0x8832B767 EQ PUSH2 0x795 JUMPI DUP1 PUSH4 0x89A30271 EQ PUSH2 0x79F JUMPI DUP1 PUSH4 0x91D14854 EQ PUSH2 0x7BD JUMPI PUSH2 0x376 JUMP JUMPDEST DUP1 PUSH4 0x7ECEBE00 EQ PUSH2 0x6F5 JUMPI DUP1 PUSH4 0x82AF1843 EQ PUSH2 0x725 JUMPI DUP1 PUSH4 0x84B0196E EQ PUSH2 0x755 JUMPI PUSH2 0x376 JUMP JUMPDEST DUP1 PUSH4 0x313CE567 GT PUSH2 0x2AB JUMPI DUP1 PUSH4 0x6083E59A GT PUSH2 0x249 JUMPI DUP1 PUSH4 0x70A08231 GT PUSH2 0x223 JUMPI DUP1 PUSH4 0x70A08231 EQ PUSH2 0x66C JUMPI DUP1 PUSH4 0x71928629 EQ PUSH2 0x69C JUMPI DUP1 PUSH4 0x75B238FC EQ PUSH2 0x6B8 JUMPI DUP1 PUSH4 0x76BC05AE EQ PUSH2 0x6D6 JUMPI PUSH2 0x376 JUMP JUMPDEST DUP1 PUSH4 0x6083E59A EQ PUSH2 0x616 JUMPI DUP1 PUSH4 0x6605BFDA EQ PUSH2 0x634 JUMPI DUP1 PUSH4 0x6E553F65 EQ PUSH2 0x650 JUMPI PUSH2 0x376 JUMP JUMPDEST DUP1 PUSH4 0x37933334 GT PUSH2 0x285 JUMPI DUP1 PUSH4 0x37933334 EQ PUSH2 0x5B4 JUMPI DUP1 PUSH4 0x3982D59B EQ PUSH2 0x5D2 JUMPI DUP1 PUSH4 0x464DFA20 EQ PUSH2 0x5DC JUMPI DUP1 PUSH4 0x503FD4A1 EQ PUSH2 0x5FA JUMPI PUSH2 0x376 JUMP JUMPDEST DUP1 PUSH4 0x313CE567 EQ PUSH2 0x55C JUMPI DUP1 PUSH4 0x3644E515 EQ PUSH2 0x57A JUMPI DUP1 PUSH4 0x36568ABE EQ PUSH2 0x598 JUMPI PUSH2 0x376 JUMP JUMPDEST DUP1 PUSH4 0x12DC5AE6 GT PUSH2 0x318 JUMPI DUP1 PUSH4 0x248A9CA3 GT PUSH2 0x2F2 JUMPI DUP1 PUSH4 0x248A9CA3 EQ PUSH2 0x4D4 JUMPI DUP1 PUSH4 0x2BBB3ABC EQ PUSH2 0x504 JUMPI DUP1 PUSH4 0x2BF08D23 EQ PUSH2 0x522 JUMPI DUP1 PUSH4 0x2F2FF15D EQ PUSH2 0x540 JUMPI PUSH2 0x376 JUMP JUMPDEST DUP1 PUSH4 0x12DC5AE6 EQ PUSH2 0x46A JUMPI DUP1 PUSH4 0x18160DDD EQ PUSH2 0x486 JUMPI DUP1 PUSH4 0x23B872DD EQ PUSH2 0x4A4 JUMPI PUSH2 0x376 JUMP JUMPDEST DUP1 PUSH4 0x6FDDE03 GT PUSH2 0x354 JUMPI DUP1 PUSH4 0x6FDDE03 EQ PUSH2 0x3E2 JUMPI DUP1 PUSH4 0x95EA7B3 EQ PUSH2 0x400 JUMPI DUP1 PUSH4 0xB26CF66 EQ PUSH2 0x430 JUMPI DUP1 PUSH4 0xF4E7469 EQ PUSH2 0x44C JUMPI PUSH2 0x376 JUMP JUMPDEST DUP1 PUSH4 0x1FFC9A7 EQ PUSH2 0x37A JUMPI DUP1 PUSH4 0x359632F EQ PUSH2 0x3AA JUMPI DUP1 PUSH4 0x63D11DE EQ PUSH2 0x3C6 JUMPI JUMPDEST PUSH0 PUSH0 REVERT JUMPDEST PUSH2 0x394 PUSH1 0x4 DUP1 CALLDATASIZE SUB DUP2 ADD SWAP1 PUSH2 0x38F SWAP2 SWAP1 PUSH2 0x4B69 JUMP JUMPDEST PUSH2 0xA8F JUMP JUMPDEST PUSH1 0x40 MLOAD PUSH2 0x3A1 SWAP2 SWAP1 PUSH2 0x4BAE JUMP JUMPDEST PUSH1 0x40 MLOAD DUP1 SWAP2 SUB SWAP1 RETURN JUMPDEST PUSH2 0x3C4 PUSH1 0x4 DUP1 CALLDATASIZE SUB DUP2 ADD SWAP1 PUSH2 0x3BF SWAP2 SWAP1 PUSH2 0x4C54 JUMP JUMPDEST PUSH2 0xB08 JUMP JUMPDEST STOP JUMPDEST PUSH2 0x3E0 PUSH1 0x4 DUP1 CALLDATASIZE SUB DUP2 ADD SWAP1 PUSH2 0x3DB SWAP2 SWAP1 PUSH2 0x4CA4 JUMP JUMPDEST PUSH2 0xDDB JUMP JUMPDEST STOP JUMPDEST PUSH2 0x3EA PUSH2 0x1148 JUMP JUMPDEST PUSH1 0x40 MLOAD PUSH2 0x3F7 SWAP2 SWAP1 PUSH2 0x4D3F JUMP JUMPDEST PUSH1 0x40 MLOAD DUP1 SWAP2 SUB SWAP1 RETURN JUMPDEST PUSH2 0x41A PUSH1 0x4 DUP1 CALLDATASIZE SUB DUP2 ADD SWAP1 PUSH2 0x415 SWAP2 SWAP1 PUSH2 0x4D5F JUMP JUMPDEST PUSH2 0x11D8 JUMP JUMPDEST PUSH1 0x40 MLOAD PUSH2 0x427 SWAP2 SWAP1 PUSH2 0x4BAE JUMP JUMPDEST PUSH1 0x40 MLOAD DUP1 SWAP2 SUB SWAP1 RETURN JUMPDEST PUSH2 0x44A PUSH1 0x4 DUP1 CALLDATASIZE SUB DUP2 ADD SWAP1 PUSH2 0x445 SWAP2 SWAP1 PUSH2 0x4D9D JUMP JUMPDEST PUSH2 0x11FA JUMP JUMPDEST STOP JUMPDEST PUSH2 0x454 PUSH2 0x123C JUMP JUMPDEST PUSH1 0x40 MLOAD PUSH2 0x461 SWAP2 SWAP1 PUSH2 0x4E3B JUMP JUMPDEST PUSH1 0x40 MLOAD DUP1 SWAP2 SUB SWAP1 RETURN JUMPDEST PUSH2 0x484 PUSH1 0x4 DUP1 CALLDATASIZE SUB DUP2 ADD SWAP1 PUSH2 0x47F SWAP2 SWAP1 PUSH2 0x4E91 JUMP JUMPDEST PUSH2 0x1252 JUMP JUMPDEST STOP JUMPDEST PUSH2 0x48E PUSH2 0x1313 JUMP JUMPDEST PUSH1 0x40 MLOAD PUSH2 0x49B SWAP2 SWAP1 PUSH2 0x4ECB JUMP JUMPDEST PUSH1 0x40 MLOAD DUP1 SWAP2 SUB SWAP1 RETURN JUMPDEST PUSH2 0x4BE PUSH1 0x4 DUP1 CALLDATASIZE SUB DUP2 ADD SWAP1 PUSH2 0x4B9 SWAP2 SWAP1 PUSH2 0x4EE4 JUMP JUMPDEST PUSH2 0x131C JUMP JUMPDEST PUSH1 0x40 MLOAD PUSH2 0x4CB SWAP2 SWAP1 PUSH2 0x4BAE JUMP JUMPDEST PUSH1 0x40 MLOAD DUP1 SWAP2 SUB SWAP1 RETURN JUMPDEST PUSH2 0x4EE PUSH1 0x4 DUP1 CALLDATASIZE SUB DUP2 ADD SWAP1 PUSH2 0x4E9 SWAP2 SWAP1 PUSH2 0x4F67 JUMP JUMPDEST PUSH2 0x134A JUMP JUMPDEST PUSH1 0x40 MLOAD PUSH2 0x4FB SWAP2 SWAP1 PUSH2 0x4FA1 JUMP JUMPDEST PUSH1 0x40 MLOAD DUP1 SWAP2 SUB SWAP1 RETURN JUMPDEST PUSH2 0x50C PUSH2 0x1367 JUMP JUMPDEST PUSH1 0x40 MLOAD PUSH2 0x519 SWAP2 SWAP1 PUSH2 0x4ECB JUMP JUMPDEST PUSH1 0x40 MLOAD DUP1 SWAP2 SUB SWAP1 RETURN JUMPDEST PUSH2 0x52A PUSH2 0x136C JUMP JUMPDEST PUSH1 0x40 MLOAD PUSH2 0x537 SWAP2 SWAP1 PUSH2 0x4ECB JUMP JUMPDEST PUSH1 0x40 MLOAD DUP1 SWAP2 SUB SWAP1 RETURN JUMPDEST PUSH2 0x55A PUSH1 0x4 DUP1 CALLDATASIZE SUB DUP2 ADD SWAP1 PUSH2 0x555 SWAP2 SWAP1 PUSH2 0x4FBA JUMP JUMPDEST PUSH2 0x1390 JUMP JUMPDEST STOP JUMPDEST PUSH2 0x564 PUSH2 0x13B2 JUMP JUMPDEST PUSH1 0x40 MLOAD PUSH2 0x571 SWAP2 SWAP1 PUSH2 0x5013 JUMP JUMPDEST PUSH1 0x40 MLOAD DUP1 SWAP2 SUB SWAP1 RETURN JUMPDEST PUSH2 0x582 PUSH2 0x13BA JUMP JUMPDEST PUSH1 0x40 MLOAD PUSH2 0x58F SWAP2 SWAP1 PUSH2 0x4FA1 JUMP JUMPDEST PUSH1 0x40 MLOAD DUP1 SWAP2 SUB SWAP1 RETURN JUMPDEST PUSH2 0x5B2 PUSH1 0x4 DUP1 CALLDATASIZE SUB DUP2 ADD SWAP1 PUSH2 0x5AD SWAP2 SWAP1 PUSH2 0x4FBA JUMP JUMPDEST PUSH2 0x13C8 JUMP JUMPDEST STOP JUMPDEST PUSH2 0x5BC PUSH2 0x1443 JUMP JUMPDEST PUSH1 0x40 MLOAD PUSH2 0x5C9 SWAP2 SWAP1 PUSH2 0x4ECB JUMP JUMPDEST PUSH1 0x40 MLOAD DUP1 SWAP2 SUB SWAP1 RETURN JUMPDEST PUSH2 0x5DA PUSH2 0x1449 JUMP JUMPDEST STOP JUMPDEST PUSH2 0x5E4 PUSH2 0x150B JUMP JUMPDEST PUSH1 0x40 MLOAD PUSH2 0x5F1 SWAP2 SWAP1 PUSH2 0x4ECB JUMP JUMPDEST PUSH1 0x40 MLOAD DUP1 SWAP2 SUB SWAP1 RETURN JUMPDEST PUSH2 0x614 PUSH1 0x4 DUP1 CALLDATASIZE SUB DUP2 ADD SWAP1 PUSH2 0x60F SWAP2 SWAP1 PUSH2 0x50B7 JUMP JUMPDEST PUSH2 0x1511 JUMP JUMPDEST STOP JUMPDEST PUSH2 0x61E PUSH2 0x1710 JUMP JUMPDEST PUSH1 0x40 MLOAD PUSH2 0x62B SWAP2 SWAP1 PUSH2 0x4ECB JUMP JUMPDEST PUSH1 0x40 MLOAD DUP1 SWAP2 SUB SWAP1 RETURN JUMPDEST PUSH2 0x64E PUSH1 0x4 DUP1 CALLDATASIZE SUB DUP2 ADD SWAP1 PUSH2 0x649 SWAP2 SWAP1 PUSH2 0x4D9D JUMP JUMPDEST PUSH2 0x1776 JUMP JUMPDEST STOP JUMPDEST PUSH2 0x66A PUSH1 0x4 DUP1 CALLDATASIZE SUB DUP2 ADD SWAP1 PUSH2 0x665 SWAP2 SWAP1 PUSH2 0x5114 JUMP JUMPDEST PUSH2 0x17AD JUMP JUMPDEST STOP JUMPDEST PUSH2 0x686 PUSH1 0x4 DUP1 CALLDATASIZE SUB DUP2 ADD SWAP1 PUSH2 0x681 SWAP2 SWAP1 PUSH2 0x4D9D JUMP JUMPDEST PUSH2 0x19CD JUMP JUMPDEST PUSH1 0x40 MLOAD PUSH2 0x693 SWAP2 SWAP1 PUSH2 0x4ECB JUMP JUMPDEST PUSH1 0x40 MLOAD DUP1 SWAP2 SUB SWAP1 RETURN JUMPDEST PUSH2 0x6B6 PUSH1 0x4 DUP1 CALLDATASIZE SUB DUP2 ADD SWAP1 PUSH2 0x6B1 SWAP2 SWAP1 PUSH2 0x5152 JUMP JUMPDEST PUSH2 0x1A12 JUMP JUMPDEST STOP JUMPDEST PUSH2 0x6C0 PUSH2 0x1D74 JUMP JUMPDEST PUSH1 0x40 MLOAD PUSH2 0x6CD SWAP2 SWAP1 PUSH2 0x4FA1 JUMP JUMPDEST PUSH1 0x40 MLOAD DUP1 SWAP2 SUB SWAP1 RETURN JUMPDEST PUSH2 0x6DE PUSH2 0x1D98 JUMP JUMPDEST PUSH1 0x40 MLOAD PUSH2 0x6EC SWAP3 SWAP2 SWAP1 PUSH2 0x519F JUMP JUMPDEST PUSH1 0x40 MLOAD DUP1 SWAP2 SUB SWAP1 RETURN JUMPDEST PUSH2 0x70F PUSH1 0x4 DUP1 CALLDATASIZE SUB DUP2 ADD SWAP1 PUSH2 0x70A SWAP2 SWAP1 PUSH2 0x4D9D JUMP JUMPDEST PUSH2 0x1DCF JUMP JUMPDEST PUSH1 0x40 MLOAD PUSH2 0x71C SWAP2 SWAP1 PUSH2 0x4ECB JUMP JUMPDEST PUSH1 0x40 MLOAD DUP1 SWAP2 SUB SWAP1 RETURN JUMPDEST PUSH2 0x73F PUSH1 0x4 DUP1 CALLDATASIZE SUB DUP2 ADD SWAP1 PUSH2 0x73A SWAP2 SWAP1 PUSH2 0x4C54 JUMP JUMPDEST PUSH2 0x1DE0 JUMP JUMPDEST PUSH1 0x40 MLOAD PUSH2 0x74C SWAP2 SWAP1 PUSH2 0x4ECB JUMP JUMPDEST PUSH1 0x40 MLOAD DUP1 SWAP2 SUB SWAP1 RETURN JUMPDEST PUSH2 0x75D PUSH2 0x2132 JUMP JUMPDEST PUSH1 0x40 MLOAD PUSH2 0x770 SWAP8 SWAP7 SWAP6 SWAP5 SWAP4 SWAP3 SWAP2 SWAP1 PUSH2 0x52C6 JUMP JUMPDEST PUSH1 0x40 MLOAD DUP1 SWAP2 SUB SWAP1 RETURN JUMPDEST PUSH2 0x793 PUSH1 0x4 DUP1 CALLDATASIZE SUB DUP2 ADD SWAP1 PUSH2 0x78E SWAP2 SWAP1 PUSH2 0x4CA4 JUMP JUMPDEST PUSH2 0x21D7 JUMP JUMPDEST STOP JUMPDEST PUSH2 0x79D PUSH2 0x229B JUMP JUMPDEST STOP JUMPDEST PUSH2 0x7A7 PUSH2 0x235D JUMP JUMPDEST PUSH1 0x40 MLOAD PUSH2 0x7B4 SWAP2 SWAP1 PUSH2 0x53A3 JUMP JUMPDEST PUSH1 0x40 MLOAD DUP1 SWAP2 SUB SWAP1 RETURN JUMPDEST PUSH2 0x7D7 PUSH1 0x4 DUP1 CALLDATASIZE SUB DUP2 ADD SWAP1 PUSH2 0x7D2 SWAP2 SWAP1 PUSH2 0x4FBA JUMP JUMPDEST PUSH2 0x2375 JUMP JUMPDEST PUSH1 0x40 MLOAD PUSH2 0x7E4 SWAP2 SWAP1 PUSH2 0x4BAE JUMP JUMPDEST PUSH1 0x40 MLOAD DUP1 SWAP2 SUB SWAP1 RETURN JUMPDEST PUSH2 0x7F5 PUSH2 0x23D9 JUMP JUMPDEST PUSH1 0x40 MLOAD PUSH2 0x802 SWAP2 SWAP1 PUSH2 0x4D3F JUMP JUMPDEST PUSH1 0x40 MLOAD DUP1 SWAP2 SUB SWAP1 RETURN JUMPDEST PUSH2 0x813 PUSH2 0x2469 JUMP JUMPDEST STOP JUMPDEST PUSH2 0x81D PUSH2 0x252A JUMP JUMPDEST PUSH1 0x40 MLOAD PUSH2 0x82A SWAP2 SWAP1 PUSH2 0x53BC JUMP JUMPDEST PUSH1 0x40 MLOAD DUP1 SWAP2 SUB SWAP1 RETURN JUMPDEST PUSH2 0x83B PUSH2 0x2547 JUMP JUMPDEST PUSH1 0x40 MLOAD PUSH2 0x848 SWAP2 SWAP1 PUSH2 0x4FA1 JUMP JUMPDEST PUSH1 0x40 MLOAD DUP1 SWAP2 SUB SWAP1 RETURN JUMPDEST PUSH2 0x86B PUSH1 0x4 DUP1 CALLDATASIZE SUB DUP2 ADD SWAP1 PUSH2 0x866 SWAP2 SWAP1 PUSH2 0x53D5 JUMP JUMPDEST PUSH2 0x254D JUMP JUMPDEST STOP JUMPDEST PUSH2 0x887 PUSH1 0x4 DUP1 CALLDATASIZE SUB DUP2 ADD SWAP1 PUSH2 0x882 SWAP2 SWAP1 PUSH2 0x4D5F JUMP JUMPDEST PUSH2 0x2610 JUMP JUMPDEST PUSH1 0x40 MLOAD PUSH2 0x894 SWAP2 SWAP1 PUSH2 0x4BAE JUMP JUMPDEST PUSH1 0x40 MLOAD DUP1 SWAP2 SUB SWAP1 RETURN JUMPDEST PUSH2 0x8A5 PUSH2 0x2632 JUMP JUMPDEST STOP JUMPDEST PUSH2 0x8AF PUSH2 0x2698 JUMP JUMPDEST PUSH1 0x40 MLOAD PUSH2 0x8BC SWAP2 SWAP1 PUSH2 0x53A3 JUMP JUMPDEST PUSH1 0x40 MLOAD DUP1 SWAP2 SUB SWAP1 RETURN JUMPDEST PUSH2 0x8CD PUSH2 0x26B0 JUMP JUMPDEST PUSH1 0x40 MLOAD PUSH2 0x8DA SWAP2 SWAP1 PUSH2 0x5413 JUMP JUMPDEST PUSH1 0x40 MLOAD DUP1 SWAP2 SUB SWAP1 RETURN JUMPDEST PUSH2 0x8FD PUSH1 0x4 DUP1 CALLDATASIZE SUB DUP2 ADD SWAP1 PUSH2 0x8F8 SWAP2 SWAP1 PUSH2 0x4D9D JUMP JUMPDEST PUSH2 0x26D8 JUMP JUMPDEST PUSH1 0x40 MLOAD PUSH2 0x90A SWAP2 SWAP1 PUSH2 0x4BAE JUMP JUMPDEST PUSH1 0x40 MLOAD DUP1 SWAP2 SUB SWAP1 RETURN JUMPDEST PUSH2 0x92D PUSH1 0x4 DUP1 CALLDATASIZE SUB DUP2 ADD SWAP1 PUSH2 0x928 SWAP2 SWAP1 PUSH2 0x4D5F JUMP JUMPDEST PUSH2 0x272A JUMP JUMPDEST PUSH1 0x40 MLOAD PUSH2 0x93C SWAP4 SWAP3 SWAP2 SWAP1 PUSH2 0x542C JUMP JUMPDEST PUSH1 0x40 MLOAD DUP1 SWAP2 SUB SWAP1 RETURN JUMPDEST PUSH2 0x94D PUSH2 0x283E JUMP JUMPDEST PUSH1 0x40 MLOAD PUSH2 0x95A SWAP2 SWAP1 PUSH2 0x5413 JUMP JUMPDEST PUSH1 0x40 MLOAD DUP1 SWAP2 SUB SWAP1 RETURN JUMPDEST PUSH2 0x96B PUSH2 0x2866 JUMP JUMPDEST PUSH1 0x40 MLOAD PUSH2 0x978 SWAP2 SWAP1 PUSH2 0x4FA1 JUMP JUMPDEST PUSH1 0x40 MLOAD DUP1 SWAP2 SUB SWAP1 RETURN JUMPDEST PUSH2 0x99B PUSH1 0x4 DUP1 CALLDATASIZE SUB DUP2 ADD SWAP1 PUSH2 0x996 SWAP2 SWAP1 PUSH2 0x548B JUMP JUMPDEST PUSH2 0x288A JUMP JUMPDEST STOP JUMPDEST PUSH2 0x9B7 PUSH1 0x4 DUP1 CALLDATASIZE SUB DUP2 ADD SWAP1 PUSH2 0x9B2 SWAP2 SWAP1 PUSH2 0x4FBA JUMP JUMPDEST PUSH2 0x29CF JUMP JUMPDEST STOP JUMPDEST PUSH2 0x9D3 PUSH1 0x4 DUP1 CALLDATASIZE SUB DUP2 ADD SWAP1 PUSH2 0x9CE SWAP2 SWAP1 PUSH2 0x4CA4 JUMP JUMPDEST PUSH2 0x29F1 JUMP JUMPDEST PUSH1 0x40 MLOAD PUSH2 0x9E0 SWAP2 SWAP1 PUSH2 0x4ECB JUMP JUMPDEST PUSH1 0x40 MLOAD DUP1 SWAP2 SUB SWAP1 RETURN JUMPDEST PUSH2 0x9F1 PUSH2 0x2A0A JUMP JUMPDEST PUSH1 0x40 MLOAD PUSH2 0x9FE SWAP2 SWAP1 PUSH2 0x53BC JUMP JUMPDEST PUSH1 0x40 MLOAD DUP1 SWAP2 SUB SWAP1 RETURN JUMPDEST PUSH2 0xA21 PUSH1 0x4 DUP1 CALLDATASIZE SUB DUP2 ADD SWAP1 PUSH2 0xA1C SWAP2 SWAP1 PUSH2 0x4C54 JUMP JUMPDEST PUSH2 0x2A26 JUMP JUMPDEST STOP JUMPDEST PUSH2 0xA2B PUSH2 0x2BE8 JUMP JUMPDEST PUSH1 0x40 MLOAD PUSH2 0xA38 SWAP2 SWAP1 PUSH2 0x4ECB JUMP JUMPDEST PUSH1 0x40 MLOAD DUP1 SWAP2 SUB SWAP1 RETURN JUMPDEST PUSH2 0xA5B PUSH1 0x4 DUP1 CALLDATASIZE SUB DUP2 ADD SWAP1 PUSH2 0xA56 SWAP2 SWAP1 PUSH2 0x5152 JUMP JUMPDEST PUSH2 0x2BF1 JUMP JUMPDEST PUSH1 0x40 MLOAD PUSH2 0xA68 SWAP2 SWAP1 PUSH2 0x4ECB JUMP JUMPDEST PUSH1 0x40 MLOAD DUP1 SWAP2 SUB SWAP1 RETURN JUMPDEST PUSH2 0xA79 PUSH2 0x2C73 JUMP JUMPDEST PUSH1 0x40 MLOAD PUSH2 0xA86 SWAP2 SWAP1 PUSH2 0x4ECB JUMP JUMPDEST PUSH1 0x40 MLOAD DUP1 SWAP2 SUB SWAP1 RETURN JUMPDEST PUSH0 PUSH32 0x7965DB0B00000000000000000000000000000000000000000000000000000000 PUSH28 0xFFFFFFFFFFFFFFFFFFFFFFFFFFFFFFFFFFFFFFFFFFFFFFFFFFFFFFFF NOT AND DUP3 PUSH28 0xFFFFFFFFFFFFFFFFFFFFFFFFFFFFFFFFFFFFFFFFFFFFFFFFFFFFFFFF NOT AND EQ DUP1 PUSH2 0xB01 JUMPI POP PUSH2 0xB00 DUP3 PUSH2 0x2C79 JUMP JUMPDEST JUMPDEST SWAP1 POP SWAP2 SWAP1 POP JUMP JUMPDEST PUSH2 0xB10 PUSH2 0x2CE2 JUMP JUMPDEST PUSH1 0x4 DUP1 PUSH1 0x4 DUP2 GT ISZERO PUSH2 0xB25 JUMPI PUSH2 0xB24 PUSH2 0x4DC8 JUMP JUMPDEST JUMPDEST PUSH1 0xE PUSH1 0x14 SWAP1 SLOAD SWAP1 PUSH2 0x100 EXP SWAP1 DIV PUSH1 0xFF AND PUSH1 0x4 DUP2 GT ISZERO PUSH2 0xB47 JUMPI PUSH2 0xB46 PUSH2 0x4DC8 JUMP JUMPDEST JUMPDEST EQ PUSH2 0xB9A JUMPI PUSH1 0xE PUSH1 0x14 SWAP1 SLOAD SWAP1 PUSH2 0x100 EXP SWAP1 DIV PUSH1 0xFF AND DUP2 PUSH1 0x40 MLOAD PUSH32 0x6B879DF400000000000000000000000000000000000000000000000000000000 DUP2 MSTORE PUSH1 0x4 ADD PUSH2 0xB91 SWAP3 SWAP2 SWAP1 PUSH2 0x5528 JUMP JUMPDEST PUSH1 0x40 MLOAD DUP1 SWAP2 SUB SWAP1 REVERT JUMPDEST DUP4 PUSH0 DUP2 SUB PUSH2 0xBD4 JUMPI PUSH1 0x40 MLOAD PUSH32 0x1F2A200500000000000000000000000000000000000000000000000000000000 DUP2 MSTORE PUSH1 0x4 ADD PUSH1 0x40 MLOAD DUP1 SWAP2 SUB SWAP1 REVERT JUMPDEST DUP3 PUSH1 0xD PUSH0 DUP3 PUSH20 0xFFFFFFFFFFFFFFFFFFFFFFFFFFFFFFFFFFFFFFFF AND PUSH20 0xFFFFFFFFFFFFFFFFFFFFFFFFFFFFFFFFFFFFFFFF AND DUP2 MSTORE PUSH1 0x20 ADD SWAP1 DUP2 MSTORE PUSH1 0x20 ADD PUSH0 KECCAK256 PUSH0 SWAP1 SLOAD SWAP1 PUSH2 0x100 EXP SWAP1 DIV PUSH1 0xFF AND PUSH2 0xC55 JUMPI PUSH1 0x40 MLOAD PUSH32 0xEF4D50E600000000000000000000000000000000000000000000000000000000 DUP2 MSTORE PUSH1 0x4 ADD PUSH1 0x40 MLOAD DUP1 SWAP2 SUB SWAP1 REVERT JUMPDEST DUP4 PUSH20 0xFFFFFFFFFFFFFFFFFFFFFFFFFFFFFFFFFFFFFFFF AND CALLER PUSH20 0xFFFFFFFFFFFFFFFFFFFFFFFFFFFFFFFFFFFFFFFF AND EQ PUSH2 0xC94 JUMPI PUSH2 0xC93 DUP5 CALLER DUP9 PUSH2 0x2D28 JUMP JUMPDEST JUMPDEST PUSH0 PUSH0 PUSH2 0xCA0 DUP7 DUP10 PUSH2 0x272A JUMP JUMPDEST POP SWAP2 POP SWAP2 POP DUP8 PUSH1 0x10 PUSH0 DUP3 DUP3 SLOAD PUSH2 0xCB6 SWAP2 SWAP1 PUSH2 0x557C JUMP JUMPDEST SWAP3 POP POP DUP2 SWAP1 SSTORE POP PUSH0 DUP2 GT ISZERO PUSH2 0xCDE JUMPI DUP1 PUSH1 0x11 PUSH0 DUP3 DUP3 SLOAD PUSH2 0xCD6 SWAP2 SWAP1 PUSH2 0x557C JUMP JUMPDEST SWAP3 POP POP DUP2 SWAP1 SSTORE POP JUMPDEST PUSH2 0xCE8 DUP7 DUP10 PUSH2 0x2DBB JUMP JUMPDEST PUSH0 DUP3 GT ISZERO PUSH2 0xD30 JUMPI PUSH2 0xD2F DUP8 DUP4 PUSH20 0xDAC17F958D2EE523A2206206994597C13D831EC7 PUSH20 0xFFFFFFFFFFFFFFFFFFFFFFFFFFFFFFFFFFFFFFFF AND PUSH2 0x2E3A SWAP1 SWAP3 SWAP2 SWAP1 PUSH4 0xFFFFFFFF AND JUMP JUMPDEST JUMPDEST PUSH0 DUP2 GT ISZERO PUSH2 0xD78 JUMPI PUSH2 0xD77 DUP8 DUP3 PUSH20 0xA0B86991C6218B36C1D19D4A2E9EB0CE3606EB48 PUSH20 0xFFFFFFFFFFFFFFFFFFFFFFFFFFFFFFFFFFFFFFFF AND PUSH2 0x2E3A SWAP1 SWAP3 SWAP2 SWAP1 PUSH4 0xFFFFFFFF AND JUMP JUMPDEST JUMPDEST DUP2 DUP7 PUSH20 0xFFFFFFFFFFFFFFFFFFFFFFFFFFFFFFFFFFFFFFFF AND PUSH32 0x817D7DB54531C25C60D08A53DEBB99C4AA0C1375179953EF7BEFD12E1DE35126 DUP4 DUP12 PUSH1 0x40 MLOAD PUSH2 0xDC1 SWAP3 SWAP2 SWAP1 PUSH2 0x55AF JUMP JUMPDEST PUSH1 0x40 MLOAD DUP1 SWAP2 SUB SWAP1 LOG3 POP POP POP POP POP PUSH2 0xDD6 PUSH2 0x2EB9 JUMP JUMPDEST POP POP POP JUMP JUMPDEST PUSH2 0xDE3 PUSH2 0x2CE2 JUMP JUMPDEST PUSH32 0xE1DCBDB91DF27212A29BC27177C840CF2F819ECF2187432E1FAC86C2DD5DFCA9 PUSH2 0xE0D DUP2 PUSH2 0x2EC3 JUMP JUMPDEST PUSH1 0x2 DUP1 PUSH1 0x4 DUP2 GT ISZERO PUSH2 0xE22 JUMPI PUSH2 0xE21 PUSH2 0x4DC8 JUMP JUMPDEST JUMPDEST PUSH1 0xE PUSH1 0x14 SWAP1 SLOAD SWAP1 PUSH2 0x100 EXP SWAP1 DIV PUSH1 0xFF AND PUSH1 0x4 DUP2 GT ISZERO PUSH2 0xE44 JUMPI PUSH2 0xE43 PUSH2 0x4DC8 JUMP JUMPDEST JUMPDEST EQ PUSH2 0xE97 JUMPI PUSH1 0xE PUSH1 0x14 SWAP1 SLOAD SWAP1 PUSH2 0x100 EXP SWAP1 DIV PUSH1 0xFF AND DUP2 PUSH1 0x40 MLOAD PUSH32 0x6B879DF400000000000000000000000000000000000000000000000000000000 DUP2 MSTORE PUSH1 0x4 ADD PUSH2 0xE8E SWAP3 SWAP2 SWAP1 PUSH2 0x5528 JUMP JUMPDEST PUSH1 0x40 MLOAD DUP1 SWAP2 SUB SWAP1 REVERT JUMPDEST PUSH0 PUSH20 0xFFFFFFFFFFFFFFFFFFFFFFFFFFFFFFFFFFFFFFFF AND PUSH1 0xE PUSH0 SWAP1 SLOAD SWAP1 PUSH2 0x100 EXP SWAP1 DIV PUSH20 0xFFFFFFFFFFFFFFFFFFFFFFFFFFFFFFFFFFFFFFFF AND PUSH20 0xFFFFFFFFFFFFFFFFFFFFFFFFFFFFFFFFFFFFFFFF AND SUB PUSH2 0xF1D JUMPI PUSH1 0x40 MLOAD PUSH32 0xB2C4CCE900000000000000000000000000000000000000000000000000000000 DUP2 MSTORE PUSH1 0x4 ADD PUSH1 0x40 MLOAD DUP1 SWAP2 SUB SWAP1 REVERT JUMPDEST DUP3 PUSH0 DUP2 SUB PUSH2 0xF57 JUMPI PUSH1 0x40 MLOAD PUSH32 0x1F2A200500000000000000000000000000000000000000000000000000000000 DUP2 MSTORE PUSH1 0x4 ADD PUSH1 0x40 MLOAD DUP1 SWAP2 SUB SWAP1 REVERT JUMPDEST PUSH1 0x11 SLOAD DUP5 GT ISZERO PUSH2 0xF93 JUMPI PUSH1 0x40 MLOAD PUSH32 0x88FC642900000000000000000000000000000000000000000000000000000000 DUP2 MSTORE PUSH1 0x4 ADD PUSH1 0x40 MLOAD DUP1 SWAP2 SUB SWAP1 REVERT JUMPDEST PUSH0 PUSH20 0xA0B86991C6218B36C1D19D4A2E9EB0CE3606EB48 PUSH20 0xFFFFFFFFFFFFFFFFFFFFFFFFFFFFFFFFFFFFFFFF AND PUSH4 0x70A08231 ADDRESS PUSH1 0x40 MLOAD DUP3 PUSH4 0xFFFFFFFF AND PUSH1 0xE0 SHL DUP2 MSTORE PUSH1 0x4 ADD PUSH2 0xFE1 SWAP2 SWAP1 PUSH2 0x5413 JUMP JUMPDEST PUSH1 0x20 PUSH1 0x40 MLOAD DUP1 DUP4 SUB DUP2 DUP7 GAS STATICCALL ISZERO DUP1 ISZERO PUSH2 0xFFC JUMPI RETURNDATASIZE PUSH0 PUSH0 RETURNDATACOPY RETURNDATASIZE PUSH0 REVERT JUMPDEST POP POP POP POP PUSH1 0x40 MLOAD RETURNDATASIZE PUSH1 0x1F NOT PUSH1 0x1F DUP3 ADD AND DUP3 ADD DUP1 PUSH1 0x40 MSTORE POP DUP2 ADD SWAP1 PUSH2 0x1020 SWAP2 SWAP1 PUSH2 0x55EA JUMP JUMPDEST SWAP1 POP DUP1 DUP6 GT ISZERO PUSH2 0x105C JUMPI PUSH1 0x40 MLOAD PUSH32 0x88FC642900000000000000000000000000000000000000000000000000000000 DUP2 MSTORE PUSH1 0x4 ADD PUSH1 0x40 MLOAD DUP1 SWAP2 SUB SWAP1 REVERT JUMPDEST DUP5 PUSH1 0x11 PUSH0 DUP3 DUP3 SLOAD PUSH2 0x106D SWAP2 SWAP1 PUSH2 0x557C JUMP JUMPDEST SWAP3 POP POP DUP2 SWAP1 SSTORE POP PUSH2 0x10D4 PUSH1 0xE PUSH0 SWAP1 SLOAD SWAP1 PUSH2 0x100 EXP SWAP1 DIV PUSH20 0xFFFFFFFFFFFFFFFFFFFFFFFFFFFFFFFFFFFFFFFF AND DUP7 PUSH20 0xA0B86991C6218B36C1D19D4A2E9EB0CE3606EB48 PUSH20 0xFFFFFFFFFFFFFFFFFFFFFFFFFFFFFFFFFFFFFFFF AND PUSH2 0x2E3A SWAP1 SWAP3 SWAP2 SWAP1 PUSH4 0xFFFFFFFF AND JUMP JUMPDEST DUP5 PUSH1 0xE PUSH0 SWAP1 SLOAD SWAP1 PUSH2 0x100 EXP SWAP1 DIV PUSH20 0xFFFFFFFFFFFFFFFFFFFFFFFFFFFFFFFFFFFFFFFF AND PUSH20 0xFFFFFFFFFFFFFFFFFFFFFFFFFFFFFFFFFFFFFFFF AND PUSH32 0x233C84DC0C19FBF51F9FA92214FFD8A59F512E0098BFF5827455D02E401221C0 PUSH1 0x40 MLOAD PUSH1 0x40 MLOAD DUP1 SWAP2 SUB SWAP1 LOG3 POP POP POP POP PUSH2 0x1145 PUSH2 0x2EB9 JUMP JUMPDEST POP JUMP JUMPDEST PUSH1 0x60 PUSH1 0x3 DUP1 SLOAD PUSH2 0x1157 SWAP1 PUSH2 0x5642 JUMP JUMPDEST DUP1 PUSH1 0x1F ADD PUSH1 0x20 DUP1 SWAP2 DIV MUL PUSH1 0x20 ADD PUSH1 0x40 MLOAD SWAP1 DUP2 ADD PUSH1 0x40 MSTORE DUP1 SWAP3 SWAP2 SWAP1 DUP2 DUP2 MSTORE PUSH1 0x20 ADD DUP3 DUP1 SLOAD PUSH2 0x1183 SWAP1 PUSH2 0x5642 JUMP JUMPDEST DUP1 ISZERO PUSH2 0x11CE JUMPI DUP1 PUSH1 0x1F LT PUSH2 0x11A5 JUMPI PUSH2 0x100 DUP1 DUP4 SLOAD DIV MUL DUP4 MSTORE SWAP2 PUSH1 0x20 ADD SWAP2 PUSH2 0x11CE JUMP JUMPDEST DUP3 ADD SWAP2 SWAP1 PUSH0 MSTORE PUSH1 0x20 PUSH0 KECCAK256 SWAP1 JUMPDEST DUP2 SLOAD DUP2 MSTORE SWAP1 PUSH1 0x1 ADD SWAP1 PUSH1 0x20 ADD DUP1 DUP4 GT PUSH2 0x11B1 JUMPI DUP3 SWAP1 SUB PUSH1 0x1F AND DUP3 ADD SWAP2 JUMPDEST POP POP POP POP POP SWAP1 POP SWAP1 JUMP JUMPDEST PUSH0 PUSH0 PUSH2 0x11E2 PUSH2 0x2ED7 JUMP JUMPDEST SWAP1 POP PUSH2 0x11EF DUP2 DUP6 DUP6 PUSH2 0x2EDE JUMP JUMPDEST PUSH1 0x1 SWAP2 POP POP SWAP3 SWAP2 POP POP JUMP JUMPDEST PUSH32 0xA49807205CE4D355092EF5A8A18F56E8913CF4A201FBE287825B095693C21775 PUSH2 0x1224 DUP2 PUSH2 0x2EC3 JUMP JUMPDEST PUSH2 0x122D DUP3 PUSH2 0x2EF0 JUMP JUMPDEST PUSH2 0x1238 DUP3 PUSH1 0x1 PUSH2 0x2FDB JUMP JUMPDEST POP POP JUMP JUMPDEST PUSH0 PUSH1 0xE PUSH1 0x14 SWAP1 SLOAD SWAP1 PUSH2 0x100 EXP SWAP1 DIV PUSH1 0xFF AND SWAP1 POP SWAP1 JUMP JUMPDEST PUSH32 0xA49807205CE4D355092EF5A8A18F56E8913CF4A201FBE287825B095693C21775 PUSH2 0x127C DUP2 PUSH2 0x2EC3 JUMP JUMPDEST PUSH0 DUP1 PUSH1 0x4 DUP2 GT ISZERO PUSH2 0x1290 JUMPI PUSH2 0x128F PUSH2 0x4DC8 JUMP JUMPDEST JUMPDEST PUSH1 0xE PUSH1 0x14 SWAP1 SLOAD SWAP1 PUSH2 0x100 EXP SWAP1 DIV PUSH1 0xFF AND PUSH1 0x4 DUP2 GT ISZERO PUSH2 0x12B2 JUMPI PUSH2 0x12B1 PUSH2 0x4DC8 JUMP JUMPDEST JUMPDEST EQ PUSH2 0x1305 JUMPI PUSH1 0xE PUSH1 0x14 SWAP1 SLOAD SWAP1 PUSH2 0x100 EXP SWAP1 DIV PUSH1 0xFF AND DUP2 PUSH1 0x40 MLOAD PUSH32 0x6B879DF400000000000000000000000000000000000000000000000000000000 DUP2 MSTORE PUSH1 0x4 ADD PUSH2 0x12FC SWAP3 SWAP2 SWAP1 PUSH2 0x5528 JUMP JUMPDEST PUSH1 0x40 MLOAD DUP1 SWAP2 SUB SWAP1 REVERT JUMPDEST PUSH2 0x130E DUP4 PUSH2 0x3179 JUMP JUMPDEST POP POP POP JUMP JUMPDEST PUSH0 PUSH1 0x2 SLOAD SWAP1 POP SWAP1 JUMP JUMPDEST PUSH0 PUSH0 PUSH2 0x1326 PUSH2 0x2ED7 JUMP JUMPDEST SWAP1 POP PUSH2 0x1333 DUP6 DUP3 DUP6 PUSH2 0x2D28 JUMP JUMPDEST PUSH2 0x133E DUP6 DUP6 DUP6 PUSH2 0x3298 JUMP JUMPDEST PUSH1 0x1 SWAP2 POP POP SWAP4 SWAP3 POP POP POP JUMP JUMPDEST PUSH0 PUSH1 0x8 PUSH0 DUP4 DUP2 MSTORE PUSH1 0x20 ADD SWAP1 DUP2 MSTORE PUSH1 0x20 ADD PUSH0 KECCAK256 PUSH1 0x1 ADD SLOAD SWAP1 POP SWAP2 SWAP1 POP JUMP JUMPDEST PUSH1 0x64 DUP2 JUMP JUMPDEST PUSH32 0x0 DUP2 JUMP JUMPDEST PUSH2 0x1399 DUP3 PUSH2 0x134A JUMP JUMPDEST PUSH2 0x13A2 DUP2 PUSH2 0x2EC3 JUMP JUMPDEST PUSH2 0x13AC DUP4 DUP4 PUSH2 0x3388 JUMP JUMPDEST POP POP POP POP JUMP JUMPDEST PUSH0 PUSH1 0x6 SWAP1 POP SWAP1 JUMP JUMPDEST PUSH0 PUSH2 0x13C3 PUSH2 0x3472 JUMP JUMPDEST SWAP1 POP SWAP1 JUMP JUMPDEST PUSH2 0x13D0 PUSH2 0x2ED7 JUMP JUMPDEST PUSH20 0xFFFFFFFFFFFFFFFFFFFFFFFFFFFFFFFFFFFFFFFF AND DUP2 PUSH20 0xFFFFFFFFFFFFFFFFFFFFFFFFFFFFFFFFFFFFFFFF AND EQ PUSH2 0x1434 JUMPI PUSH1 0x40 MLOAD PUSH32 0x6697B23200000000000000000000000000000000000000000000000000000000 DUP2 MSTORE PUSH1 0x4 ADD PUSH1 0x40 MLOAD DUP1 SWAP2 SUB SWAP1 REVERT JUMPDEST PUSH2 0x143E DUP3 DUP3 PUSH2 0x3528 JUMP JUMPDEST POP POP POP JUMP JUMPDEST PUSH1 0xF SLOAD DUP2 JUMP JUMPDEST PUSH32 0xA49807205CE4D355092EF5A8A18F56E8913CF4A201FBE287825B095693C21775 PUSH2 0x1473 DUP2 PUSH2 0x2EC3 JUMP JUMPDEST PUSH1 0x2 DUP1 PUSH1 0x4 DUP2 GT ISZERO PUSH2 0x1488 JUMPI PUSH2 0x1487 PUSH2 0x4DC8 JUMP JUMPDEST JUMPDEST PUSH1 0xE PUSH1 0x14 SWAP1 SLOAD SWAP1 PUSH2 0x100 EXP SWAP1 DIV PUSH1 0xFF AND PUSH1 0x4 DUP2 GT ISZERO PUSH2 0x14AA JUMPI PUSH2 0x14A9 PUSH2 0x4DC8 JUMP JUMPDEST JUMPDEST EQ PUSH2 0x14FD JUMPI PUSH1 0xE PUSH1 0x14 SWAP1 SLOAD SWAP1 PUSH2 0x100 EXP SWAP1 DIV PUSH1 0xFF AND DUP2 PUSH1 0x40 MLOAD PUSH32 0x6B879DF400000000000000000000000000000000000000000000000000000000 DUP2 MSTORE PUSH1 0x4 ADD PUSH2 0x14F4 SWAP3 SWAP2 SWAP1 PUSH2 0x5528 JUMP JUMPDEST PUSH1 0x40 MLOAD DUP1 SWAP2 SUB SWAP1 REVERT JUMPDEST PUSH2 0x1507 PUSH1 0x3 PUSH2 0x3612 JUMP JUMPDEST POP POP JUMP JUMPDEST PUSH1 0x10 SLOAD DUP2 JUMP JUMPDEST PUSH32 0xA49807205CE4D355092EF5A8A18F56E8913CF4A201FBE287825B095693C21775 PUSH2 0x153B DUP2 PUSH2 0x2EC3 JUMP JUMPDEST PUSH1 0x1 DUP1 PUSH1 0x4 DUP2 GT ISZERO PUSH2 0x1550 JUMPI PUSH2 0x154F PUSH2 0x4DC8 JUMP JUMPDEST JUMPDEST PUSH1 0xE PUSH1 0x14 SWAP1 SLOAD SWAP1 PUSH2 0x100 EXP SWAP1 DIV PUSH1 0xFF AND PUSH1 0x4 DUP2 GT ISZERO PUSH2 0x1572 JUMPI PUSH2 0x1571 PUSH2 0x4DC8 JUMP JUMPDEST JUMPDEST EQ PUSH2 0x15C5 JUMPI PUSH1 0xE PUSH1 0x14 SWAP1 SLOAD SWAP1 PUSH2 0x100 EXP SWAP1 DIV PUSH1 0xFF AND DUP2 PUSH1 0x40 MLOAD PUSH32 0x6B879DF400000000000000000000000000000000000000000000000000000000 DUP2 MSTORE PUSH1 0x4 ADD PUSH2 0x15BC SWAP3 SWAP2 SWAP1 PUSH2 0x5528 JUMP JUMPDEST PUSH1 0x40 MLOAD DUP1 SWAP2 SUB SWAP1 REVERT JUMPDEST PUSH0 DUP6 DUP6 SWAP1 POP SWAP1 POP PUSH0 DUP2 SUB PUSH2 0x1605 JUMPI PUSH1 0x40 MLOAD PUSH32 0xC2E5347D00000000000000000000000000000000000000000000000000000000 DUP2 MSTORE PUSH1 0x4 ADD PUSH1 0x40 MLOAD DUP1 SWAP2 SUB SWAP1 REVERT JUMPDEST PUSH1 0x64 DUP2 GT ISZERO PUSH2 0x164E JUMPI DUP1 PUSH1 0x64 PUSH1 0x40 MLOAD PUSH32 0xBB1CB70B00000000000000000000000000000000000000000000000000000000 DUP2 MSTORE PUSH1 0x4 ADD PUSH2 0x1645 SWAP3 SWAP2 SWAP1 PUSH2 0x55AF JUMP JUMPDEST PUSH1 0x40 MLOAD DUP1 SWAP2 SUB SWAP1 REVERT JUMPDEST PUSH0 PUSH0 SWAP1 POP JUMPDEST DUP2 DUP2 LT ISZERO PUSH2 0x1707 JUMPI PUSH0 DUP8 DUP8 DUP4 DUP2 DUP2 LT PUSH2 0x166F JUMPI PUSH2 0x166E PUSH2 0x5672 JUMP JUMPDEST JUMPDEST SWAP1 POP PUSH1 0x20 MUL ADD PUSH1 0x20 DUP2 ADD SWAP1 PUSH2 0x1684 SWAP2 SWAP1 PUSH2 0x4D9D JUMP JUMPDEST SWAP1 POP PUSH0 PUSH20 0xFFFFFFFFFFFFFFFFFFFFFFFFFFFFFFFFFFFFFFFF AND DUP2 PUSH20 0xFFFFFFFFFFFFFFFFFFFFFFFFFFFFFFFFFFFFFFFF AND SUB PUSH2 0x16EB JUMPI PUSH1 0x40 MLOAD PUSH32 0xD92E233D00000000000000000000000000000000000000000000000000000000 DUP2 MSTORE PUSH1 0x4 ADD PUSH1 0x40 MLOAD DUP1 SWAP2 SUB SWAP1 REVERT JUMPDEST PUSH2 0x16F5 DUP2 DUP8 PUSH2 0x36A5 JUMP JUMPDEST DUP2 PUSH2 0x16FF SWAP1 PUSH2 0x569F JUMP JUMPDEST SWAP2 POP POP PUSH2 0x1653 JUMP JUMPDEST POP POP POP POP POP POP POP JUMP JUMPDEST PUSH0 PUSH0 PUSH1 0x4 DUP2 GT ISZERO PUSH2 0x1724 JUMPI PUSH2 0x1723 PUSH2 0x4DC8 JUMP JUMPDEST JUMPDEST PUSH1 0xE PUSH1 0x14 SWAP1 SLOAD SWAP1 PUSH2 0x100 EXP SWAP1 DIV PUSH1 0xFF AND PUSH1 0x4 DUP2 GT ISZERO PUSH2 0x1746 JUMPI PUSH2 0x1745 PUSH2 0x4DC8 JUMP JUMPDEST JUMPDEST EQ ISZERO DUP1 PUSH2 0x1758 JUMPI POP PUSH2 0x1756 PUSH2 0x3795 JUMP JUMPDEST ISZERO JUMPDEST ISZERO PUSH2 0x1765 JUMPI PUSH0 SWAP1 POP PUSH2 0x1773 JUMP JUMPDEST PUSH2 0x1770 PUSH1 0xF SLOAD PUSH2 0x37EA JUMP JUMPDEST SWAP1 POP JUMPDEST SWAP1 JUMP JUMPDEST PUSH32 0xA49807205CE4D355092EF5A8A18F56E8913CF4A201FBE287825B095693C21775 PUSH2 0x17A0 DUP2 PUSH2 0x2EC3 JUMP JUMPDEST PUSH2 0x17A9 DUP3 PUSH2 0x3810 JUMP JUMPDEST POP POP JUMP JUMPDEST PUSH2 0x17B5 PUSH2 0x2CE2 JUMP JUMPDEST PUSH0 DUP1 PUSH1 0x4 DUP2 GT ISZERO PUSH2 0x17C9 JUMPI PUSH2 0x17C8 PUSH2 0x4DC8 JUMP JUMPDEST JUMPDEST PUSH1 0xE PUSH1 0x14 SWAP1 SLOAD SWAP1 PUSH2 0x100 EXP SWAP1 DIV PUSH1 0xFF AND PUSH1 0x4 DUP2 GT ISZERO PUSH2 0x17EB JUMPI PUSH2 0x17EA PUSH2 0x4DC8 JUMP JUMPDEST JUMPDEST EQ PUSH2 0x183E JUMPI PUSH1 0xE PUSH1 0x14 SWAP1 SLOAD SWAP1 PUSH2 0x100 EXP SWAP1 DIV PUSH1 0xFF AND DUP2 PUSH1 0x40 MLOAD PUSH32 0x6B879DF400000000000000000000000000000000000000000000000000000000 DUP2 MSTORE PUSH1 0x4 ADD PUSH2 0x1835 SWAP3 SWAP2 SWAP1 PUSH2 0x5528 JUMP JUMPDEST PUSH1 0x40 MLOAD DUP1 SWAP2 SUB SWAP1 REVERT JUMPDEST PUSH2 0x1846 PUSH2 0x3795 JUMP JUMPDEST PUSH2 0x187C JUMPI PUSH1 0x40 MLOAD PUSH32 0x887610B00000000000000000000000000000000000000000000000000000000 DUP2 MSTORE PUSH1 0x4 ADD PUSH1 0x40 MLOAD DUP1 SWAP2 SUB SWAP1 REVERT JUMPDEST DUP3 PUSH0 DUP2 SUB PUSH2 0x18B6 JUMPI PUSH1 0x40 MLOAD PUSH32 0x1F2A200500000000000000000000000000000000000000000000000000000000 DUP2 MSTORE PUSH1 0x4 ADD PUSH1 0x40 MLOAD DUP1 SWAP2 SUB SWAP1 REVERT JUMPDEST PUSH2 0x18BE PUSH2 0x1710 JUMP JUMPDEST DUP5 GT ISZERO PUSH2 0x18F7 JUMPI PUSH1 0x40 MLOAD PUSH32 0xB42483D100000000000000000000000000000000000000000000000000000000 DUP2 MSTORE PUSH1 0x4 ADD PUSH1 0x40 MLOAD DUP1 SWAP2 SUB SWAP1 REVERT JUMPDEST PUSH2 0x1938 CALLER ADDRESS DUP7 PUSH20 0xA0B86991C6218B36C1D19D4A2E9EB0CE3606EB48 PUSH20 0xFFFFFFFFFFFFFFFFFFFFFFFFFFFFFFFFFFFFFFFF AND PUSH2 0x38FB SWAP1 SWAP4 SWAP3 SWAP2 SWAP1 PUSH4 0xFFFFFFFF AND JUMP JUMPDEST DUP4 PUSH1 0xF PUSH0 DUP3 DUP3 SLOAD PUSH2 0x1949 SWAP2 SWAP1 PUSH2 0x56E6 JUMP JUMPDEST SWAP3 POP POP DUP2 SWAP1 SSTORE POP PUSH2 0x195A DUP4 DUP6 PUSH2 0x397D JUMP JUMPDEST DUP3 PUSH20 0xFFFFFFFFFFFFFFFFFFFFFFFFFFFFFFFFFFFFFFFF AND CALLER PUSH20 0xFFFFFFFFFFFFFFFFFFFFFFFFFFFFFFFFFFFFFFFF AND PUSH32 0x5548C837AB068CF56A2C2479DF0882A4922FD203EDB7517321831D95078C5F62 DUP7 PUSH1 0x40 MLOAD PUSH2 0x19B7 SWAP2 SWAP1 PUSH2 0x4ECB JUMP JUMPDEST PUSH1 0x40 MLOAD DUP1 SWAP2 SUB SWAP1 LOG3 POP POP PUSH2 0x19C9 PUSH2 0x2EB9 JUMP JUMPDEST POP POP JUMP JUMPDEST PUSH0 PUSH0 PUSH0 DUP4 PUSH20 0xFFFFFFFFFFFFFFFFFFFFFFFFFFFFFFFFFFFFFFFF AND PUSH20 0xFFFFFFFFFFFFFFFFFFFFFFFFFFFFFFFFFFFFFFFF AND DUP2 MSTORE PUSH1 0x20 ADD SWAP1 DUP2 MSTORE PUSH1 0x20 ADD PUSH0 KECCAK256 SLOAD SWAP1 POP SWAP2 SWAP1 POP JUMP JUMPDEST PUSH32 0xA49807205CE4D355092EF5A8A18F56E8913CF4A201FBE287825B095693C21775 PUSH2 0x1A3C DUP2 PUSH2 0x2EC3 JUMP JUMPDEST DUP3 PUSH0 PUSH20 0xFFFFFFFFFFFFFFFFFFFFFFFFFFFFFFFFFFFFFFFF AND DUP2 PUSH20 0xFFFFFFFFFFFFFFFFFFFFFFFFFFFFFFFFFFFFFFFF AND SUB PUSH2 0x1AA2 JUMPI PUSH1 0x40 MLOAD PUSH32 0xD92E233D00000000000000000000000000000000000000000000000000000000 DUP2 MSTORE PUSH1 0x4 ADD PUSH1 0x40 MLOAD DUP1 SWAP2 SUB SWAP1 REVERT JUMPDEST DUP3 PUSH0 PUSH20 0xFFFFFFFFFFFFFFFFFFFFFFFFFFFFFFFFFFFFFFFF AND DUP2 PUSH20 0xFFFFFFFFFFFFFFFFFFFFFFFFFFFFFFFFFFFFFFFF AND SUB PUSH2 0x1B08 JUMPI PUSH1 0x40 MLOAD PUSH32 0xD92E233D00000000000000000000000000000000000000000000000000000000 DUP2 MSTORE PUSH1 0x4 ADD PUSH1 0x40 MLOAD DUP1 SWAP2 SUB SWAP1 REVERT JUMPDEST PUSH2 0x1B10 PUSH2 0x2CE2 JUMP JUMPDEST PUSH0 DUP6 PUSH20 0xFFFFFFFFFFFFFFFFFFFFFFFFFFFFFFFFFFFFFFFF AND PUSH4 0x70A08231 ADDRESS PUSH1 0x40 MLOAD DUP3 PUSH4 0xFFFFFFFF AND PUSH1 0xE0 SHL DUP2 MSTORE PUSH1 0x4 ADD PUSH2 0x1B4A SWAP2 SWAP1 PUSH2 0x5413 JUMP JUMPDEST PUSH1 0x20 PUSH1 0x40 MLOAD DUP1 DUP4 SUB DUP2 DUP7 GAS STATICCALL ISZERO DUP1 ISZERO PUSH2 0x1B65 JUMPI RETURNDATASIZE PUSH0 PUSH0 RETURNDATACOPY RETURNDATASIZE PUSH0 REVERT JUMPDEST POP POP POP POP PUSH1 0x40 MLOAD RETURNDATASIZE PUSH1 0x1F NOT PUSH1 0x1F DUP3 ADD AND DUP3 ADD DUP1 PUSH1 0x40 MSTORE POP DUP2 ADD SWAP1 PUSH2 0x1B89 SWAP2 SWAP1 PUSH2 0x55EA JUMP JUMPDEST SWAP1 POP PUSH0 PUSH0 SWAP1 POP PUSH20 0xA0B86991C6218B36C1D19D4A2E9EB0CE3606EB48 PUSH20 0xFFFFFFFFFFFFFFFFFFFFFFFFFFFFFFFFFFFFFFFF AND DUP8 PUSH20 0xFFFFFFFFFFFFFFFFFFFFFFFFFFFFFFFFFFFFFFFF AND SUB PUSH2 0x1BED JUMPI PUSH1 0x11 SLOAD PUSH1 0xF SLOAD PUSH2 0x1BE6 SWAP2 SWAP1 PUSH2 0x56E6 JUMP JUMPDEST SWAP1 POP PUSH2 0x1C86 JUMP JUMPDEST PUSH20 0xDAC17F958D2EE523A2206206994597C13D831EC7 PUSH20 0xFFFFFFFFFFFFFFFFFFFFFFFFFFFFFFFFFFFFFFFF AND DUP8 PUSH20 0xFFFFFFFFFFFFFFFFFFFFFFFFFFFFFFFFFFFFFFFF AND SUB PUSH2 0x1C85 JUMPI PUSH20 0xDAC17F958D2EE523A2206206994597C13D831EC7 PUSH1 0x40 MLOAD PUSH32 0xCBDD15A900000000000000000000000000000000000000000000000000000000 DUP2 MSTORE PUSH1 0x4 ADD PUSH2 0x1C7C SWAP2 SWAP1 PUSH2 0x5413 JUMP JUMPDEST PUSH1 0x40 MLOAD DUP1 SWAP2 SUB SWAP1 REVERT JUMPDEST JUMPDEST PUSH0 DUP2 DUP4 GT PUSH2 0x1C94 JUMPI PUSH0 PUSH2 0x1CA1 JUMP JUMPDEST DUP2 DUP4 PUSH2 0x1CA0 SWAP2 SWAP1 PUSH2 0x557C JUMP JUMPDEST JUMPDEST SWAP1 POP PUSH0 DUP2 SUB PUSH2 0x1CDC JUMPI PUSH1 0x40 MLOAD PUSH32 0x3BF4796E00000000000000000000000000000000000000000000000000000000 DUP2 MSTORE PUSH1 0x4 ADD PUSH1 0x40 MLOAD DUP1 SWAP2 SUB SWAP1 REVERT JUMPDEST PUSH2 0x1D07 DUP8 DUP3 DUP11 PUSH20 0xFFFFFFFFFFFFFFFFFFFFFFFFFFFFFFFFFFFFFFFF AND PUSH2 0x2E3A SWAP1 SWAP3 SWAP2 SWAP1 PUSH4 0xFFFFFFFF AND JUMP JUMPDEST DUP1 DUP8 PUSH20 0xFFFFFFFFFFFFFFFFFFFFFFFFFFFFFFFFFFFFFFFF AND DUP10 PUSH20 0xFFFFFFFFFFFFFFFFFFFFFFFFFFFFFFFFFFFFFFFF AND PUSH32 0x469918F24999E267065319B4027A9FCB08E498E4081AA6A8D216836AE36F101 PUSH1 0x40 MLOAD PUSH1 0x40 MLOAD DUP1 SWAP2 SUB SWAP1 LOG4 POP POP POP PUSH2 0x1D6D PUSH2 0x2EB9 JUMP JUMPDEST POP POP POP POP POP JUMP JUMPDEST PUSH32 0xA49807205CE4D355092EF5A8A18F56E8913CF4A201FBE287825B095693C21775 DUP2 JUMP JUMPDEST PUSH0 PUSH0 PUSH1 0xA PUSH0 SWAP1 SLOAD SWAP1 PUSH2 0x100 EXP SWAP1 DIV PUSH8 0xFFFFFFFFFFFFFFFF AND PUSH1 0xA PUSH1 0x8 SWAP1 SLOAD SWAP1 PUSH2 0x100 EXP SWAP1 DIV PUSH8 0xFFFFFFFFFFFFFFFF AND SWAP2 POP SWAP2 POP SWAP1 SWAP2 JUMP JUMPDEST PUSH0 PUSH2 0x1DD9 DUP3 PUSH2 0x39FC JUMP JUMPDEST SWAP1 POP SWAP2 SWAP1 POP JUMP JUMPDEST PUSH0 PUSH2 0x1DE9 PUSH2 0x2CE2 JUMP JUMPDEST DUP4 PUSH0 DUP2 SUB PUSH2 0x1E23 JUMPI PUSH1 0x40 MLOAD PUSH32 0x1F2A200500000000000000000000000000000000000000000000000000000000 DUP2 MSTORE PUSH1 0x4 ADD PUSH1 0x40 MLOAD DUP1 SWAP2 SUB SWAP1 REVERT JUMPDEST PUSH0 PUSH20 0xFFFFFFFFFFFFFFFFFFFFFFFFFFFFFFFFFFFFFFFF AND PUSH1 0xC PUSH0 SWAP1 SLOAD SWAP1 PUSH2 0x100 EXP SWAP1 DIV PUSH20 0xFFFFFFFFFFFFFFFFFFFFFFFFFFFFFFFFFFFFFFFF AND PUSH20 0xFFFFFFFFFFFFFFFFFFFFFFFFFFFFFFFFFFFFFFFF AND SUB PUSH2 0x1EA9 JUMPI PUSH1 0x40 MLOAD PUSH32 0x733FA4C300000000000000000000000000000000000000000000000000000000 DUP2 MSTORE PUSH1 0x4 ADD PUSH1 0x40 MLOAD DUP1 SWAP2 SUB SWAP1 REVERT JUMPDEST PUSH1 0xC PUSH0 SWAP1 SLOAD SWAP1 PUSH2 0x100 EXP SWAP1 DIV PUSH20 0xFFFFFFFFFFFFFFFFFFFFFFFFFFFFFFFFFFFFFFFF AND PUSH20 0xFFFFFFFFFFFFFFFFFFFFFFFFFFFFFFFFFFFFFFFF AND CALLER PUSH20 0xFFFFFFFFFFFFFFFFFFFFFFFFFFFFFFFFFFFFFFFF AND EQ PUSH2 0x1F2F JUMPI PUSH1 0x40 MLOAD PUSH32 0xEA0E1CCB00000000000000000000000000000000000000000000000000000000 DUP2 MSTORE PUSH1 0x4 ADD PUSH1 0x40 MLOAD DUP1 SWAP2 SUB SWAP1 REVERT JUMPDEST PUSH1 0x3 DUP1 PUSH1 0x4 DUP2 GT ISZERO PUSH2 0x1F44 JUMPI PUSH2 0x1F43 PUSH2 0x4DC8 JUMP JUMPDEST JUMPDEST PUSH1 0xE PUSH1 0x14 SWAP1 SLOAD SWAP1 PUSH2 0x100 EXP SWAP1 DIV PUSH1 0xFF AND PUSH1 0x4 DUP2 GT ISZERO PUSH2 0x1F66 JUMPI PUSH2 0x1F65 PUSH2 0x4DC8 JUMP JUMPDEST JUMPDEST EQ PUSH2 0x1FB9 JUMPI PUSH1 0xE PUSH1 0x14 SWAP1 SLOAD SWAP1 PUSH2 0x100 EXP SWAP1 DIV PUSH1 0xFF AND DUP2 PUSH1 0x40 MLOAD PUSH32 0x6B879DF400000000000000000000000000000000000000000000000000000000 DUP2 MSTORE PUSH1 0x4 ADD PUSH2 0x1FB0 SWAP3 SWAP2 SWAP1 PUSH2 0x5528 JUMP JUMPDEST PUSH1 0x40 MLOAD DUP1 SWAP2 SUB SWAP1 REVERT JUMPDEST PUSH2 0x1FC3 DUP5 DUP8 PUSH2 0x272A JUMP JUMPDEST SWAP1 POP POP DUP1 SWAP4 POP POP PUSH0 DUP4 SUB PUSH2 0x2003 JUMPI PUSH1 0x40 MLOAD PUSH32 0x1F2A200500000000000000000000000000000000000000000000000000000000 DUP2 MSTORE PUSH1 0x4 ADD PUSH1 0x40 MLOAD DUP1 SWAP2 SUB SWAP1 REVERT JUMPDEST DUP4 PUSH20 0xFFFFFFFFFFFFFFFFFFFFFFFFFFFFFFFFFFFFFFFF AND CALLER PUSH20 0xFFFFFFFFFFFFFFFFFFFFFFFFFFFFFFFFFFFFFFFF AND EQ PUSH2 0x2042 JUMPI PUSH2 0x2041 DUP5 CALLER DUP9 PUSH2 0x2D28 JUMP JUMPDEST JUMPDEST DUP6 PUSH1 0x10 PUSH0 DUP3 DUP3 SLOAD PUSH2 0x2053 SWAP2 SWAP1 PUSH2 0x557C JUMP JUMPDEST SWAP3 POP POP DUP2 SWAP1 SSTORE POP PUSH2 0x2064 DUP5 DUP8 PUSH2 0x2DBB JUMP JUMPDEST PUSH2 0x20A3 DUP6 DUP5 PUSH20 0xDAC17F958D2EE523A2206206994597C13D831EC7 PUSH20 0xFFFFFFFFFFFFFFFFFFFFFFFFFFFFFFFFFFFFFFFF AND PUSH2 0x2E3A SWAP1 SWAP3 SWAP2 SWAP1 PUSH4 0xFFFFFFFF AND JUMP JUMPDEST DUP4 PUSH20 0xFFFFFFFFFFFFFFFFFFFFFFFFFFFFFFFFFFFFFFFF AND DUP6 PUSH20 0xFFFFFFFFFFFFFFFFFFFFFFFFFFFFFFFFFFFFFFFF AND CALLER PUSH20 0xFFFFFFFFFFFFFFFFFFFFFFFFFFFFFFFFFFFFFFFF AND PUSH32 0x3A117534609D03284C0DE2E963D850AD74CEDE15EAB049804095772D20D494C3 DUP7 DUP11 PUSH1 0x40 MLOAD PUSH2 0x2119 SWAP3 SWAP2 SWAP1 PUSH2 0x55AF JUMP JUMPDEST PUSH1 0x40 MLOAD DUP1 SWAP2 SUB SWAP1 LOG4 POP POP PUSH2 0x212B PUSH2 0x2EB9 JUMP JUMPDEST SWAP4 SWAP3 POP POP POP JUMP JUMPDEST PUSH0 PUSH1 0x60 DUP1 PUSH0 PUSH0 PUSH0 PUSH1 0x60 PUSH2 0x2143 PUSH2 0x3A42 JUMP JUMPDEST PUSH2 0x214B PUSH2 0x3A7D JUMP JUMPDEST CHAINID ADDRESS PUSH0 PUSH0 SHL PUSH0 PUSH8 0xFFFFFFFFFFFFFFFF DUP2 GT ISZERO PUSH2 0x216A JUMPI PUSH2 0x2169 PUSH2 0x5719 JUMP JUMPDEST JUMPDEST PUSH1 0x40 MLOAD SWAP1 DUP1 DUP3 MSTORE DUP1 PUSH1 0x20 MUL PUSH1 0x20 ADD DUP3 ADD PUSH1 0x40 MSTORE DUP1 ISZERO PUSH2 0x2198 JUMPI DUP2 PUSH1 0x20 ADD PUSH1 0x20 DUP3 MUL DUP1 CALLDATASIZE DUP4 CALLDATACOPY DUP1 DUP3 ADD SWAP2 POP POP SWAP1 POP JUMPDEST POP PUSH32 0xF00000000000000000000000000000000000000000000000000000000000000 SWAP6 SWAP5 SWAP4 SWAP3 SWAP2 SWAP1 SWAP7 POP SWAP7 POP SWAP7 POP SWAP7 POP SWAP7 POP SWAP7 POP SWAP7 POP SWAP1 SWAP2 SWAP3 SWAP4 SWAP5 SWAP6 SWAP7 JUMP JUMPDEST PUSH32 0xA49807205CE4D355092EF5A8A18F56E8913CF4A201FBE287825B095693C21775 PUSH2 0x2201 DUP2 PUSH2 0x2EC3 JUMP JUMPDEST PUSH0 DUP1 PUSH1 0x4 DUP2 GT ISZERO PUSH2 0x2215 JUMPI PUSH2 0x2214 PUSH2 0x4DC8 JUMP JUMPDEST JUMPDEST PUSH1 0xE PUSH1 0x14 SWAP1 SLOAD SWAP1 PUSH2 0x100 EXP SWAP1 DIV PUSH1 0xFF AND PUSH1 0x4 DUP2 GT ISZERO PUSH2 0x2237 JUMPI PUSH2 0x2236 PUSH2 0x4DC8 JUMP JUMPDEST JUMPDEST EQ PUSH2 0x228A JUMPI PUSH1 0xE PUSH1 0x14 SWAP1 SLOAD SWAP1 PUSH2 0x100 EXP SWAP1 DIV PUSH1 0xFF AND DUP2 PUSH1 0x40 MLOAD PUSH32 0x6B879DF400000000000000000000000000000000000000000000000000000000 DUP2 MSTORE PUSH1 0x4 ADD PUSH2 0x2281 SWAP3 SWAP2 SWAP1 PUSH2 0x5528 JUMP JUMPDEST PUSH1 0x40 MLOAD DUP1 SWAP2 SUB SWAP1 REVERT JUMPDEST PUSH2 0x2296 PUSH1 0xF SLOAD DUP5 PUSH2 0x3AB8 JUMP JUMPDEST POP POP POP JUMP JUMPDEST PUSH32 0xA49807205CE4D355092EF5A8A18F56E8913CF4A201FBE287825B095693C21775 PUSH2 0x22C5 DUP2 PUSH2 0x2EC3 JUMP JUMPDEST PUSH1 0x1 DUP1 PUSH1 0x4 DUP2 GT ISZERO PUSH2 0x22DA JUMPI PUSH2 0x22D9 PUSH2 0x4DC8 JUMP JUMPDEST JUMPDEST PUSH1 0xE PUSH1 0x14 SWAP1 SLOAD SWAP1 PUSH2 0x100 EXP SWAP1 DIV PUSH1 0xFF AND PUSH1 0x4 DUP2 GT ISZERO PUSH2 0x22FC JUMPI PUSH2 0x22FB PUSH2 0x4DC8 JUMP JUMPDEST JUMPDEST EQ PUSH2 0x234F JUMPI PUSH1 0xE PUSH1 0x14 SWAP1 SLOAD SWAP1 PUSH2 0x100 EXP SWAP1 DIV PUSH1 0xFF AND DUP2 PUSH1 0x40 MLOAD PUSH32 0x6B879DF400000000000000000000000000000000000000000000000000000000 DUP2 MSTORE PUSH1 0x4 ADD PUSH2 0x2346 SWAP3 SWAP2 SWAP1 PUSH2 0x5528 JUMP JUMPDEST PUSH1 0x40 MLOAD DUP1 SWAP2 SUB SWAP1 REVERT JUMPDEST PUSH2 0x2359 PUSH1 0x2 PUSH2 0x3612 JUMP JUMPDEST POP POP JUMP JUMPDEST PUSH20 0xA0B86991C6218B36C1D19D4A2E9EB0CE3606EB48 DUP2 JUMP JUMPDEST PUSH0 PUSH1 0x8 PUSH0 DUP5 DUP2 MSTORE PUSH1 0x20 ADD SWAP1 DUP2 MSTORE PUSH1 0x20 ADD PUSH0 KECCAK256 PUSH0 ADD PUSH0 DUP4 PUSH20 0xFFFFFFFFFFFFFFFFFFFFFFFFFFFFFFFFFFFFFFFF AND PUSH20 0xFFFFFFFFFFFFFFFFFFFFFFFFFFFFFFFFFFFFFFFF AND DUP2 MSTORE PUSH1 0x20 ADD SWAP1 DUP2 MSTORE PUSH1 0x20 ADD PUSH0 KECCAK256 PUSH0 SWAP1 SLOAD SWAP1 PUSH2 0x100 EXP SWAP1 DIV PUSH1 0xFF AND SWAP1 POP SWAP3 SWAP2 POP POP JUMP JUMPDEST PUSH1 0x60 PUSH1 0x4 DUP1 SLOAD PUSH2 0x23E8 SWAP1 PUSH2 0x5642 JUMP JUMPDEST DUP1 PUSH1 0x1F ADD PUSH1 0x20 DUP1 SWAP2 DIV MUL PUSH1 0x20 ADD PUSH1 0x40 MLOAD SWAP1 DUP2 ADD PUSH1 0x40 MSTORE DUP1 SWAP3 SWAP2 SWAP1 DUP2 DUP2 MSTORE PUSH1 0x20 ADD DUP3 DUP1 SLOAD PUSH2 0x2414 SWAP1 PUSH2 0x5642 JUMP JUMPDEST DUP1 ISZERO PUSH2 0x245F JUMPI DUP1 PUSH1 0x1F LT PUSH2 0x2436 JUMPI PUSH2 0x100 DUP1 DUP4 SLOAD DIV MUL DUP4 MSTORE SWAP2 PUSH1 0x20 ADD SWAP2 PUSH2 0x245F JUMP JUMPDEST DUP3 ADD SWAP2 SWAP1 PUSH0 MSTORE PUSH1 0x20 PUSH0 KECCAK256 SWAP1 JUMPDEST DUP2 SLOAD DUP2 MSTORE SWAP1 PUSH1 0x1 ADD SWAP1 PUSH1 0x20 ADD DUP1 DUP4 GT PUSH2 0x2442 JUMPI DUP3 SWAP1 SUB PUSH1 0x1F AND DUP3 ADD SWAP2 JUMPDEST POP POP POP POP POP SWAP1 POP SWAP1 JUMP JUMPDEST PUSH32 0xA49807205CE4D355092EF5A8A18F56E8913CF4A201FBE287825B095693C21775 PUSH2 0x2493 DUP2 PUSH2 0x2EC3 JUMP JUMPDEST PUSH0 DUP1 PUSH1 0x4 DUP2 GT ISZERO PUSH2 0x24A7 JUMPI PUSH2 0x24A6 PUSH2 0x4DC8 JUMP JUMPDEST JUMPDEST PUSH1 0xE PUSH1 0x14 SWAP1 SLOAD SWAP1 PUSH2 0x100 EXP SWAP1 DIV PUSH1 0xFF AND PUSH1 0x4 DUP2 GT ISZERO PUSH2 0x24C9 JUMPI PUSH2 0x24C8 PUSH2 0x4DC8 JUMP JUMPDEST JUMPDEST EQ PUSH2 0x251C JUMPI PUSH1 0xE PUSH1 0x14 SWAP1 SLOAD SWAP1 PUSH2 0x100 EXP SWAP1 DIV PUSH1 0xFF AND DUP2 PUSH1 0x40 MLOAD PUSH32 0x6B879DF400000000000000000000000000000000000000000000000000000000 DUP2 MSTORE PUSH1 0x4 ADD PUSH2 0x2513 SWAP3 SWAP2 SWAP1 PUSH2 0x5528 JUMP JUMPDEST PUSH1 0x40 MLOAD DUP1 SWAP2 SUB SWAP1 REVERT JUMPDEST PUSH2 0x2526 PUSH1 0x1 PUSH2 0x3612 JUMP JUMPDEST POP POP JUMP JUMPDEST PUSH0 PUSH1 0xA PUSH1 0x8 SWAP1 SLOAD SWAP1 PUSH2 0x100 EXP SWAP1 DIV PUSH8 0xFFFFFFFFFFFFFFFF AND SWAP1 POP SWAP1 JUMP JUMPDEST PUSH0 PUSH0 SHL DUP2 JUMP JUMPDEST PUSH32 0xA49807205CE4D355092EF5A8A18F56E8913CF4A201FBE287825B095693C21775 PUSH2 0x2577 DUP2 PUSH2 0x2EC3 JUMP JUMPDEST PUSH0 DUP1 PUSH1 0x4 DUP2 GT ISZERO PUSH2 0x258B JUMPI PUSH2 0x258A PUSH2 0x4DC8 JUMP JUMPDEST JUMPDEST PUSH1 0xE PUSH1 0x14 SWAP1 SLOAD SWAP1 PUSH2 0x100 EXP SWAP1 DIV PUSH1 0xFF AND PUSH1 0x4 DUP2 GT ISZERO PUSH2 0x25AD JUMPI PUSH2 0x25AC PUSH2 0x4DC8 JUMP JUMPDEST JUMPDEST EQ PUSH2 0x2600 JUMPI PUSH1 0xE PUSH1 0x14 SWAP1 SLOAD SWAP1 PUSH2 0x100 EXP SWAP1 DIV PUSH1 0xFF AND DUP2 PUSH1 0x40 MLOAD PUSH32 0x6B879DF400000000000000000000000000000000000000000000000000000000 DUP2 MSTORE PUSH1 0x4 ADD PUSH2 0x25F7 SWAP3 SWAP2 SWAP1 PUSH2 0x5528 JUMP JUMPDEST PUSH1 0x40 MLOAD DUP1 SWAP2 SUB SWAP1 REVERT JUMPDEST PUSH2 0x260A DUP5 DUP5 PUSH2 0x3B34 JUMP JUMPDEST POP POP POP POP JUMP JUMPDEST PUSH0 PUSH0 PUSH2 0x261A PUSH2 0x2ED7 JUMP JUMPDEST SWAP1 POP PUSH2 0x2627 DUP2 DUP6 DUP6 PUSH2 0x3298 JUMP JUMPDEST PUSH1 0x1 SWAP2 POP POP SWAP3 SWAP2 POP POP JUMP JUMPDEST PUSH32 0x0 TIMESTAMP LT ISZERO PUSH2 0x268C JUMPI PUSH1 0x40 MLOAD PUSH32 0x1307E40F00000000000000000000000000000000000000000000000000000000 DUP2 MSTORE PUSH1 0x4 ADD PUSH1 0x40 MLOAD DUP1 SWAP2 SUB SWAP1 REVERT JUMPDEST PUSH2 0x2696 PUSH1 0x4 PUSH2 0x3612 JUMP JUMPDEST JUMP JUMPDEST PUSH20 0xDAC17F958D2EE523A2206206994597C13D831EC7 DUP2 JUMP JUMPDEST PUSH0 PUSH1 0xE PUSH0 SWAP1 SLOAD SWAP1 PUSH2 0x100 EXP SWAP1 DIV PUSH20 0xFFFFFFFFFFFFFFFFFFFFFFFFFFFFFFFFFFFFFFFF AND SWAP1 POP SWAP1 JUMP JUMPDEST PUSH0 PUSH1 0xD PUSH0 DUP4 PUSH20 0xFFFFFFFFFFFFFFFFFFFFFFFFFFFFFFFFFFFFFFFF AND PUSH20 0xFFFFFFFFFFFFFFFFFFFFFFFFFFFFFFFFFFFFFFFF AND DUP2 MSTORE PUSH1 0x20 ADD SWAP1 DUP2 MSTORE PUSH1 0x20 ADD PUSH0 KECCAK256 PUSH0 SWAP1 SLOAD SWAP1 PUSH2 0x100 EXP SWAP1 DIV PUSH1 0xFF AND SWAP1 POP SWAP2 SWAP1 POP JUMP JUMPDEST PUSH0 PUSH0 PUSH0 PUSH2 0x2736 DUP6 PUSH2 0x19CD JUMP JUMPDEST DUP5 GT ISZERO PUSH2 0x276F JUMPI PUSH1 0x40 MLOAD PUSH32 0xF4D678B800000000000000000000000000000000000000000000000000000000 DUP2 MSTORE PUSH1 0x4 ADD PUSH1 0x40 MLOAD DUP1 SWAP2 SUB SWAP1 REVERT JUMPDEST PUSH2 0x2778 DUP6 PUSH2 0x3D98 JUMP JUMPDEST SWAP1 POP DUP1 ISZERO PUSH2 0x2830 JUMPI PUSH2 0x2818 DUP5 PUSH1 0x10 SLOAD PUSH20 0xDAC17F958D2EE523A2206206994597C13D831EC7 PUSH20 0xFFFFFFFFFFFFFFFFFFFFFFFFFFFFFFFFFFFFFFFF AND PUSH4 0x70A08231 ADDRESS PUSH1 0x40 MLOAD DUP3 PUSH4 0xFFFFFFFF AND PUSH1 0xE0 SHL DUP2 MSTORE PUSH1 0x4 ADD PUSH2 0x27D4 SWAP2 SWAP1 PUSH2 0x5413 JUMP JUMPDEST PUSH1 0x20 PUSH1 0x40 MLOAD DUP1 DUP4 SUB DUP2 DUP7 GAS STATICCALL ISZERO DUP1 ISZERO PUSH2 0x27EF JUMPI RETURNDATASIZE PUSH0 PUSH0 RETURNDATACOPY RETURNDATASIZE PUSH0 REVERT JUMPDEST POP POP POP POP PUSH1 0x40 MLOAD RETURNDATASIZE PUSH1 0x1F NOT PUSH1 0x1F DUP3 ADD AND DUP3 ADD DUP1 PUSH1 0x40 MSTORE POP DUP2 ADD SWAP1 PUSH2 0x2813 SWAP2 SWAP1 PUSH2 0x55EA JUMP JUMPDEST PUSH2 0x3DEA JUMP JUMPDEST SWAP3 POP PUSH2 0x2829 DUP5 PUSH1 0x10 SLOAD PUSH1 0x11 SLOAD PUSH2 0x3DEA JUMP JUMPDEST SWAP2 POP PUSH2 0x2837 JUMP JUMPDEST PUSH0 SWAP3 POP DUP4 SWAP2 POP JUMPDEST SWAP3 POP SWAP3 POP SWAP3 JUMP JUMPDEST PUSH0 PUSH1 0xC PUSH0 SWAP1 SLOAD SWAP1 PUSH2 0x100 EXP SWAP1 DIV PUSH20 0xFFFFFFFFFFFFFFFFFFFFFFFFFFFFFFFFFFFFFFFF AND SWAP1 POP SWAP1 JUMP JUMPDEST PUSH32 0xE1DCBDB91DF27212A29BC27177C840CF2F819ECF2187432E1FAC86C2DD5DFCA9 DUP2 JUMP JUMPDEST DUP4 TIMESTAMP GT ISZERO PUSH2 0x28CF JUMPI DUP4 PUSH1 0x40 MLOAD PUSH32 0x6279130200000000000000000000000000000000000000000000000000000000 DUP2 MSTORE PUSH1 0x4 ADD PUSH2 0x28C6 SWAP2 SWAP1 PUSH2 0x4ECB JUMP JUMPDEST PUSH1 0x40 MLOAD DUP1 SWAP2 SUB SWAP1 REVERT JUMPDEST PUSH0 PUSH32 0x6E71EDAE12B1B97F4D1F60370FEF10105FA2FAAE0126114A169C64845D6126C9 DUP9 DUP9 DUP9 PUSH2 0x28FD DUP13 PUSH2 0x3E10 JUMP JUMPDEST DUP10 PUSH1 0x40 MLOAD PUSH1 0x20 ADD PUSH2 0x2913 SWAP7 SWAP6 SWAP5 SWAP4 SWAP3 SWAP2 SWAP1 PUSH2 0x5746 JUMP JUMPDEST PUSH1 0x40 MLOAD PUSH1 0x20 DUP2 DUP4 SUB SUB DUP2 MSTORE SWAP1 PUSH1 0x40 MSTORE DUP1 MLOAD SWAP1 PUSH1 0x20 ADD KECCAK256 SWAP1 POP PUSH0 PUSH2 0x2935 DUP3 PUSH2 0x3E63 JUMP JUMPDEST SWAP1 POP PUSH0 PUSH2 0x2944 DUP3 DUP8 DUP8 DUP8 PUSH2 0x3E7C JUMP JUMPDEST SWAP1 POP DUP10 PUSH20 0xFFFFFFFFFFFFFFFFFFFFFFFFFFFFFFFFFFFFFFFF AND DUP2 PUSH20 0xFFFFFFFFFFFFFFFFFFFFFFFFFFFFFFFFFFFFFFFF AND EQ PUSH2 0x29B8 JUMPI DUP1 DUP11 PUSH1 0x40 MLOAD PUSH32 0x4B800E4600000000000000000000000000000000000000000000000000000000 DUP2 MSTORE PUSH1 0x4 ADD PUSH2 0x29AF SWAP3 SWAP2 SWAP1 PUSH2 0x57A5 JUMP JUMPDEST PUSH1 0x40 MLOAD DUP1 SWAP2 SUB SWAP1 REVERT JUMPDEST PUSH2 0x29C3 DUP11 DUP11 DUP11 PUSH2 0x2EDE JUMP JUMPDEST POP POP POP POP POP POP POP POP POP POP JUMP JUMPDEST PUSH2 0x29D8 DUP3 PUSH2 0x134A JUMP JUMPDEST PUSH2 0x29E1 DUP2 PUSH2 0x2EC3 JUMP JUMPDEST PUSH2 0x29EB DUP4 DUP4 PUSH2 0x3528 JUMP JUMPDEST POP POP POP POP JUMP JUMPDEST PUSH0 PUSH0 PUSH2 0x29FD CALLER DUP5 PUSH2 0x272A JUMP JUMPDEST POP POP SWAP1 POP DUP1 SWAP2 POP POP SWAP2 SWAP1 POP JUMP JUMPDEST PUSH0 PUSH1 0xA PUSH0 SWAP1 SLOAD SWAP1 PUSH2 0x100 EXP SWAP1 DIV PUSH8 0xFFFFFFFFFFFFFFFF AND SWAP1 POP SWAP1 JUMP JUMPDEST PUSH2 0x2A2E PUSH2 0x2CE2 JUMP JUMPDEST DUP3 PUSH0 DUP2 SUB PUSH2 0x2A68 JUMPI PUSH1 0x40 MLOAD PUSH32 0x1F2A200500000000000000000000000000000000000000000000000000000000 DUP2 MSTORE PUSH1 0x4 ADD PUSH1 0x40 MLOAD DUP1 SWAP2 SUB SWAP1 REVERT JUMPDEST DUP2 PUSH1 0xD PUSH0 DUP3 PUSH20 0xFFFFFFFFFFFFFFFFFFFFFFFFFFFFFFFFFFFFFFFF AND PUSH20 0xFFFFFFFFFFFFFFFFFFFFFFFFFFFFFFFFFFFFFFFF AND DUP2 MSTORE PUSH1 0x20 ADD SWAP1 DUP2 MSTORE PUSH1 0x20 ADD PUSH0 KECCAK256 PUSH0 SWAP1 SLOAD SWAP1 PUSH2 0x100 EXP SWAP1 DIV PUSH1 0xFF AND ISZERO PUSH2 0x2AEA JUMPI PUSH1 0x40 MLOAD PUSH32 0xA8FDF60100000000000000000000000000000000000000000000000000000000 DUP2 MSTORE PUSH1 0x4 ADD PUSH1 0x40 MLOAD DUP1 SWAP2 SUB SWAP1 REVERT JUMPDEST DUP3 PUSH20 0xFFFFFFFFFFFFFFFFFFFFFFFFFFFFFFFFFFFFFFFF AND CALLER PUSH20 0xFFFFFFFFFFFFFFFFFFFFFFFFFFFFFFFFFFFFFFFF AND EQ PUSH2 0x2B29 JUMPI PUSH2 0x2B28 DUP4 CALLER DUP8 PUSH2 0x2D28 JUMP JUMPDEST JUMPDEST DUP5 PUSH1 0xF PUSH0 DUP3 DUP3 SLOAD PUSH2 0x2B3A SWAP2 SWAP1 PUSH2 0x557C JUMP JUMPDEST SWAP3 POP POP DUP2 SWAP1 SSTORE POP PUSH2 0x2B4B DUP4 DUP7 PUSH2 0x2DBB JUMP JUMPDEST PUSH2 0x2B8A DUP5 DUP7 PUSH20 0xA0B86991C6218B36C1D19D4A2E9EB0CE3606EB48 PUSH20 0xFFFFFFFFFFFFFFFFFFFFFFFFFFFFFFFFFFFFFFFF AND PUSH2 0x2E3A SWAP1 SWAP3 SWAP2 SWAP1 PUSH4 0xFFFFFFFF AND JUMP JUMPDEST DUP5 DUP4 PUSH20 0xFFFFFFFFFFFFFFFFFFFFFFFFFFFFFFFFFFFFFFFF AND PUSH32 0x4E015B9CE8D388E64046B74A55B753A1677D9B274993C4630923F38824A2ECA4 DUP8 PUSH1 0x40 MLOAD PUSH2 0x2BD1 SWAP2 SWAP1 PUSH2 0x4ECB JUMP JUMPDEST PUSH1 0x40 MLOAD DUP1 SWAP2 SUB SWAP1 LOG3 POP POP PUSH2 0x2BE3 PUSH2 0x2EB9 JUMP JUMPDEST POP POP POP JUMP JUMPDEST PUSH0 PUSH1 0xB SLOAD SWAP1 POP SWAP1 JUMP JUMPDEST PUSH0 PUSH1 0x1 PUSH0 DUP5 PUSH20 0xFFFFFFFFFFFFFFFFFFFFFFFFFFFFFFFFFFFFFFFF AND PUSH20 0xFFFFFFFFFFFFFFFFFFFFFFFFFFFFFFFFFFFFFFFF AND DUP2 MSTORE PUSH1 0x20 ADD SWAP1 DUP2 MSTORE PUSH1 0x20 ADD PUSH0 KECCAK256 PUSH0 DUP4 PUSH20 0xFFFFFFFFFFFFFFFFFFFFFFFFFFFFFFFFFFFFFFFF AND PUSH20 0xFFFFFFFFFFFFFFFFFFFFFFFFFFFFFFFFFFFFFFFF AND DUP2 MSTORE PUSH1 0x20 ADD SWAP1 DUP2 MSTORE PUSH1 0x20 ADD PUSH0 KECCAK256 SLOAD SWAP1 POP SWAP3 SWAP2 POP POP JUMP JUMPDEST PUSH1 0x11 SLOAD DUP2 JUMP JUMPDEST PUSH0 PUSH32 0x1FFC9A700000000000000000000000000000000000000000000000000000000 PUSH28 0xFFFFFFFFFFFFFFFFFFFFFFFFFFFFFFFFFFFFFFFFFFFFFFFFFFFFFFFF NOT AND DUP3 PUSH28 0xFFFFFFFFFFFFFFFFFFFFFFFFFFFFFFFFFFFFFFFFFFFFFFFFFFFFFFFF NOT AND EQ SWAP1 POP SWAP2 SWAP1 POP JUMP JUMPDEST PUSH1 0x2 PUSH1 0x9 SLOAD SUB PUSH2 0x2D1E JUMPI PUSH1 0x40 MLOAD PUSH32 0x3EE5AEB500000000000000000000000000000000000000000000000000000000 DUP2 MSTORE PUSH1 0x4 ADD PUSH1 0x40 MLOAD DUP1 SWAP2 SUB SWAP1 REVERT JUMPDEST PUSH1 0x2 PUSH1 0x9 DUP2 SWAP1 SSTORE POP JUMP JUMPDEST PUSH0 PUSH2 0x2D33 DUP5 DUP5 PUSH2 0x2BF1 JUMP JUMPDEST SWAP1 POP PUSH32 0xFFFFFFFFFFFFFFFFFFFFFFFFFFFFFFFFFFFFFFFFFFFFFFFFFFFFFFFFFFFFFFFF DUP2 LT ISZERO PUSH2 0x2DB5 JUMPI DUP2 DUP2 LT ISZERO PUSH2 0x2DA6 JUMPI DUP3 DUP2 DUP4 PUSH1 0x40 MLOAD PUSH32 0xFB8F41B200000000000000000000000000000000000000000000000000000000 DUP2 MSTORE PUSH1 0x4 ADD PUSH2 0x2D9D SWAP4 SWAP3 SWAP2 SWAP1 PUSH2 0x57CC JUMP JUMPDEST PUSH1 0x40 MLOAD DUP1 SWAP2 SUB SWAP1 REVERT JUMPDEST PUSH2 0x2DB4 DUP5 DUP5 DUP5 DUP5 SUB PUSH0 PUSH2 0x3EAA JUMP JUMPDEST JUMPDEST POP POP POP POP JUMP JUMPDEST PUSH0 PUSH20 0xFFFFFFFFFFFFFFFFFFFFFFFFFFFFFFFFFFFFFFFF AND DUP3 PUSH20 0xFFFFFFFFFFFFFFFFFFFFFFFFFFFFFFFFFFFFFFFF AND SUB PUSH2 0x2E2B JUMPI PUSH0 PUSH1 0x40 MLOAD PUSH32 0x96C6FD1E00000000000000000000000000000000000000000000000000000000 DUP2 MSTORE PUSH1 0x4 ADD PUSH2 0x2E22 SWAP2 SWAP1 PUSH2 0x5413 JUMP JUMPDEST PUSH1 0x40 MLOAD DUP1 SWAP2 SUB SWAP1 REVERT JUMPDEST PUSH2 0x2E36 DUP3 PUSH0 DUP4 PUSH2 0x4079 JUMP JUMPDEST POP POP JUMP JUMPDEST PUSH2 0x2EB4 DUP4 DUP5 PUSH20 0xFFFFFFFFFFFFFFFFFFFFFFFFFFFFFFFFFFFFFFFF AND PUSH4 0xA9059CBB DUP6 DUP6 PUSH1 0x40 MLOAD PUSH1 0x24 ADD PUSH2 0x2E6D SWAP3 SWAP2 SWAP1 PUSH2 0x5801 JUMP JUMPDEST PUSH1 0x40 MLOAD PUSH1 0x20 DUP2 DUP4 SUB SUB DUP2 MSTORE SWAP1 PUSH1 0x40 MSTORE SWAP2 POP PUSH1 0xE0 SHL PUSH1 0x20 DUP3 ADD DUP1 MLOAD PUSH28 0xFFFFFFFFFFFFFFFFFFFFFFFFFFFFFFFFFFFFFFFFFFFFFFFFFFFFFFFF DUP4 DUP2 DUP4 AND OR DUP4 MSTORE POP POP POP POP PUSH2 0x41D1 JUMP JUMPDEST POP POP POP JUMP JUMPDEST PUSH1 0x1 PUSH1 0x9 DUP2 SWAP1 SSTORE POP JUMP JUMPDEST PUSH2 0x2ED4 DUP2 PUSH2 0x2ECF PUSH2 0x2ED7 JUMP JUMPDEST PUSH2 0x426C JUMP JUMPDEST POP JUMP JUMPDEST PUSH0 CALLER SWAP1 POP SWAP1 JUMP JUMPDEST PUSH2 0x2EEB DUP4 DUP4 DUP4 PUSH1 0x1 PUSH2 0x3EAA JUMP JUMPDEST POP POP POP JUMP JUMPDEST PUSH0 PUSH20 0xFFFFFFFFFFFFFFFFFFFFFFFFFFFFFFFFFFFFFFFF AND DUP2 PUSH20 0xFFFFFFFFFFFFFFFFFFFFFFFFFFFFFFFFFFFFFFFF AND SUB PUSH2 0x2F55 JUMPI PUSH1 0x40 MLOAD PUSH32 0xE9603E4B00000000000000000000000000000000000000000000000000000000 DUP2 MSTORE PUSH1 0x4 ADD PUSH1 0x40 MLOAD DUP1 SWAP2 SUB SWAP1 REVERT JUMPDEST DUP1 PUSH1 0xC PUSH0 PUSH2 0x100 EXP DUP2 SLOAD DUP2 PUSH20 0xFFFFFFFFFFFFFFFFFFFFFFFFFFFFFFFFFFFFFFFF MUL NOT AND SWAP1 DUP4 PUSH20 0xFFFFFFFFFFFFFFFFFFFFFFFFFFFFFFFFFFFFFFFF AND MUL OR SWAP1 SSTORE POP DUP1 PUSH20 0xFFFFFFFFFFFFFFFFFFFFFFFFFFFFFFFFFFFFFFFF AND PUSH32 0xAD098D6E912C08ED9AA3EE6CA9529DA44A959D4C6251C6B8B088AF216C1E3506 PUSH1 0x40 MLOAD PUSH1 0x40 MLOAD DUP1 SWAP2 SUB SWAP1 LOG2 POP JUMP JUMPDEST PUSH0 PUSH20 0xFFFFFFFFFFFFFFFFFFFFFFFFFFFFFFFFFFFFFFFF AND DUP3 PUSH20 0xFFFFFFFFFFFFFFFFFFFFFFFFFFFFFFFFFFFFFFFF AND SUB PUSH2 0x3040 JUMPI PUSH1 0x40 MLOAD PUSH32 0x5B1B9CE500000000000000000000000000000000000000000000000000000000 DUP2 MSTORE PUSH1 0x4 ADD PUSH1 0x40 MLOAD DUP1 SWAP2 SUB SWAP1 REVERT JUMPDEST DUP1 ISZERO ISZERO PUSH1 0xD PUSH0 DUP5 PUSH20 0xFFFFFFFFFFFFFFFFFFFFFFFFFFFFFFFFFFFFFFFF AND PUSH20 0xFFFFFFFFFFFFFFFFFFFFFFFFFFFFFFFFFFFFFFFF AND DUP2 MSTORE PUSH1 0x20 ADD SWAP1 DUP2 MSTORE PUSH1 0x20 ADD PUSH0 KECCAK256 PUSH0 SWAP1 SLOAD SWAP1 PUSH2 0x100 EXP SWAP1 DIV PUSH1 0xFF AND ISZERO ISZERO SUB PUSH2 0x30D3 JUMPI DUP2 DUP2 PUSH1 0x40 MLOAD PUSH32 0x7EB7C0BB00000000000000000000000000000000000000000000000000000000 DUP2 MSTORE PUSH1 0x4 ADD PUSH2 0x30CA SWAP3 SWAP2 SWAP1 PUSH2 0x5828 JUMP JUMPDEST PUSH1 0x40 MLOAD DUP1 SWAP2 SUB SWAP1 REVERT JUMPDEST DUP1 PUSH1 0xD PUSH0 DUP5 PUSH20 0xFFFFFFFFFFFFFFFFFFFFFFFFFFFFFFFFFFFFFFFF AND PUSH20 0xFFFFFFFFFFFFFFFFFFFFFFFFFFFFFFFFFFFFFFFF AND DUP2 MSTORE PUSH1 0x20 ADD SWAP1 DUP2 MSTORE PUSH1 0x20 ADD PUSH0 KECCAK256 PUSH0 PUSH2 0x100 EXP DUP2 SLOAD DUP2 PUSH1 0xFF MUL NOT AND SWAP1 DUP4 ISZERO ISZERO MUL OR SWAP1 SSTORE POP DUP2 PUSH20 0xFFFFFFFFFFFFFFFFFFFFFFFFFFFFFFFFFFFFFFFF AND PUSH32 0x1150430D66BA9CBEAA47BE8B8DC1F6867193174DCABF0CF2E96685C655FF8E09 DUP3 PUSH1 0x40 MLOAD PUSH2 0x316D SWAP2 SWAP1 PUSH2 0x4BAE JUMP JUMPDEST PUSH1 0x40 MLOAD DUP1 SWAP2 SUB SWAP1 LOG2 POP POP JUMP JUMPDEST TIMESTAMP PUSH1 0xA PUSH0 SWAP1 SLOAD SWAP1 PUSH2 0x100 EXP SWAP1 DIV PUSH8 0xFFFFFFFFFFFFFFFF AND PUSH8 0xFFFFFFFFFFFFFFFF AND GT ISZERO PUSH2 0x31D2 JUMPI PUSH1 0x40 MLOAD PUSH32 0x18B24C3600000000000000000000000000000000000000000000000000000000 DUP2 MSTORE PUSH1 0x4 ADD PUSH1 0x40 MLOAD DUP1 SWAP2 SUB SWAP1 REVERT JUMPDEST TIMESTAMP DUP2 PUSH8 0xFFFFFFFFFFFFFFFF AND GT PUSH2 0x3215 JUMPI PUSH1 0x40 MLOAD PUSH32 0x4994DC0200000000000000000000000000000000000000000000000000000000 DUP2 MSTORE PUSH1 0x4 ADD PUSH1 0x40 MLOAD DUP1 SWAP2 SUB SWAP1 REVERT JUMPDEST DUP1 PUSH1 0xA PUSH1 0x8 PUSH2 0x100 EXP DUP2 SLOAD DUP2 PUSH8 0xFFFFFFFFFFFFFFFF MUL NOT AND SWAP1 DUP4 PUSH8 0xFFFFFFFFFFFFFFFF AND MUL OR SWAP1 SSTORE POP DUP1 PUSH8 0xFFFFFFFFFFFFFFFF AND PUSH1 0xA PUSH0 SWAP1 SLOAD SWAP1 PUSH2 0x100 EXP SWAP1 DIV PUSH8 0xFFFFFFFFFFFFFFFF AND PUSH8 0xFFFFFFFFFFFFFFFF AND PUSH32 0x709A99E52F3AD08814A91314C2CE5127558C0FFEB6D0A5DF5A637276CB804D6E PUSH1 0x40 MLOAD PUSH1 0x40 MLOAD DUP1 SWAP2 SUB SWAP1 LOG3 POP JUMP JUMPDEST PUSH0 PUSH20 0xFFFFFFFFFFFFFFFFFFFFFFFFFFFFFFFFFFFFFFFF AND DUP4 PUSH20 0xFFFFFFFFFFFFFFFFFFFFFFFFFFFFFFFFFFFFFFFF AND SUB PUSH2 0x3308 JUMPI PUSH0 PUSH1 0x40 MLOAD PUSH32 0x96C6FD1E00000000000000000000000000000000000000000000000000000000 DUP2 MSTORE PUSH1 0x4 ADD PUSH2 0x32FF SWAP2 SWAP1 PUSH2 0x5413 JUMP JUMPDEST PUSH1 0x40 MLOAD DUP1 SWAP2 SUB SWAP1 REVERT JUMPDEST PUSH0 PUSH20 0xFFFFFFFFFFFFFFFFFFFFFFFFFFFFFFFFFFFFFFFF AND DUP3 PUSH20 0xFFFFFFFFFFFFFFFFFFFFFFFFFFFFFFFFFFFFFFFF AND SUB PUSH2 0x3378 JUMPI PUSH0 PUSH1 0x40 MLOAD PUSH32 0xEC442F0500000000000000000000000000000000000000000000000000000000 DUP2 MSTORE PUSH1 0x4 ADD PUSH2 0x336F SWAP2 SWAP1 PUSH2 0x5413 JUMP JUMPDEST PUSH1 0x40 MLOAD DUP1 SWAP2 SUB SWAP1 REVERT JUMPDEST PUSH2 0x3383 DUP4 DUP4 DUP4 PUSH2 0x4079 JUMP JUMPDEST POP POP POP JUMP JUMPDEST PUSH0 PUSH2 0x3393 DUP4 DUP4 PUSH2 0x2375 JUMP JUMPDEST PUSH2 0x3468 JUMPI PUSH1 0x1 PUSH1 0x8 PUSH0 DUP6 DUP2 MSTORE PUSH1 0x20 ADD SWAP1 DUP2 MSTORE PUSH1 0x20 ADD PUSH0 KECCAK256 PUSH0 ADD PUSH0 DUP5 PUSH20 0xFFFFFFFFFFFFFFFFFFFFFFFFFFFFFFFFFFFFFFFF AND PUSH20 0xFFFFFFFFFFFFFFFFFFFFFFFFFFFFFFFFFFFFFFFF AND DUP2 MSTORE PUSH1 0x20 ADD SWAP1 DUP2 MSTORE PUSH1 0x20 ADD PUSH0 KECCAK256 PUSH0 PUSH2 0x100 EXP DUP2 SLOAD DUP2 PUSH1 0xFF MUL NOT AND SWAP1 DUP4 ISZERO ISZERO MUL OR SWAP1 SSTORE POP PUSH2 0x3405 PUSH2 0x2ED7 JUMP JUMPDEST PUSH20 0xFFFFFFFFFFFFFFFFFFFFFFFFFFFFFFFFFFFFFFFF AND DUP3 PUSH20 0xFFFFFFFFFFFFFFFFFFFFFFFFFFFFFFFFFFFFFFFF AND DUP5 PUSH32 0x2F8788117E7EFF1D82E926EC794901D17C78024A50270940304540A733656F0D PUSH1 0x40 MLOAD PUSH1 0x40 MLOAD DUP1 SWAP2 SUB SWAP1 LOG4 PUSH1 0x1 SWAP1 POP PUSH2 0x346C JUMP JUMPDEST PUSH0 SWAP1 POP JUMPDEST SWAP3 SWAP2 POP POP JUMP JUMPDEST PUSH0 PUSH32 0x0 PUSH20 0xFFFFFFFFFFFFFFFFFFFFFFFFFFFFFFFFFFFFFFFF AND ADDRESS PUSH20 0xFFFFFFFFFFFFFFFFFFFFFFFFFFFFFFFFFFFFFFFF AND EQ DUP1 ISZERO PUSH2 0x34ED JUMPI POP PUSH32 0x0 CHAINID EQ JUMPDEST ISZERO PUSH2 0x351A JUMPI PUSH32 0x0 SWAP1 POP PUSH2 0x3525 JUMP JUMPDEST PUSH2 0x3522 PUSH2 0x42BD JUMP JUMPDEST SWAP1 POP JUMPDEST SWAP1 JUMP JUMPDEST PUSH0 PUSH2 0x3533 DUP4 DUP4 PUSH2 0x2375 JUMP JUMPDEST ISZERO PUSH2 0x3608 JUMPI PUSH0 PUSH1 0x8 PUSH0 DUP6 DUP2 MSTORE PUSH1 0x20 ADD SWAP1 DUP2 MSTORE PUSH1 0x20 ADD PUSH0 KECCAK256 PUSH0 ADD PUSH0 DUP5 PUSH20 0xFFFFFFFFFFFFFFFFFFFFFFFFFFFFFFFFFFFFFFFF AND PUSH20 0xFFFFFFFFFFFFFFFFFFFFFFFFFFFFFFFFFFFFFFFF AND DUP2 MSTORE PUSH1 0x20 ADD SWAP1 DUP2 MSTORE PUSH1 0x20 ADD PUSH0 KECCAK256 PUSH0 PUSH2 0x100 EXP DUP2 SLOAD DUP2 PUSH1 0xFF MUL NOT AND SWAP1 DUP4 ISZERO ISZERO MUL OR SWAP1 SSTORE POP PUSH2 0x35A5 PUSH2 0x2ED7 JUMP JUMPDEST PUSH20 0xFFFFFFFFFFFFFFFFFFFFFFFFFFFFFFFFFFFFFFFF AND DUP3 PUSH20 0xFFFFFFFFFFFFFFFFFFFFFFFFFFFFFFFFFFFFFFFF AND DUP5 PUSH32 0xF6391F5C32D9C69D2A47EA670B442974B53935D1EDC7FD64EB21E047A839171B PUSH1 0x40 MLOAD PUSH1 0x40 MLOAD DUP1 SWAP2 SUB SWAP1 LOG4 PUSH1 0x1 SWAP1 POP PUSH2 0x360C JUMP JUMPDEST PUSH0 SWAP1 POP JUMPDEST SWAP3 SWAP2 POP POP JUMP JUMPDEST PUSH0 PUSH1 0xE PUSH1 0x14 SWAP1 SLOAD SWAP1 PUSH2 0x100 EXP SWAP1 DIV PUSH1 0xFF AND SWAP1 POP DUP2 PUSH1 0xE PUSH1 0x14 PUSH2 0x100 EXP DUP2 SLOAD DUP2 PUSH1 0xFF MUL NOT AND SWAP1 DUP4 PUSH1 0x4 DUP2 GT ISZERO PUSH2 0x364A JUMPI PUSH2 0x3649 PUSH2 0x4DC8 JUMP JUMPDEST JUMPDEST MUL OR SWAP1 SSTORE POP DUP2 PUSH1 0x4 DUP2 GT ISZERO PUSH2 0x3662 JUMPI PUSH2 0x3661 PUSH2 0x4DC8 JUMP JUMPDEST JUMPDEST DUP2 PUSH1 0x4 DUP2 GT ISZERO PUSH2 0x3675 JUMPI PUSH2 0x3674 PUSH2 0x4DC8 JUMP JUMPDEST JUMPDEST PUSH32 0x9E0F6D6E2258787DE46228CF9227A1AE6E49996F7B197041AF59C99563F36A74 PUSH1 0x40 MLOAD PUSH1 0x40 MLOAD DUP1 SWAP2 SUB SWAP1 LOG3 POP POP JUMP JUMPDEST PUSH0 PUSH2 0x36AF DUP4 PUSH2 0x19CD JUMP JUMPDEST SWAP1 POP PUSH0 DUP2 SUB PUSH2 0x36EA JUMPI PUSH1 0x40 MLOAD PUSH32 0xEDAC458500000000000000000000000000000000000000000000000000000000 DUP2 MSTORE PUSH1 0x4 ADD PUSH1 0x40 MLOAD DUP1 SWAP2 SUB SWAP1 REVERT JUMPDEST PUSH2 0x36F4 DUP4 DUP4 PUSH2 0x2FDB JUMP JUMPDEST DUP2 ISZERO PUSH2 0x3747 JUMPI DUP1 PUSH1 0xF PUSH0 DUP3 DUP3 SLOAD PUSH2 0x370B SWAP2 SWAP1 PUSH2 0x557C JUMP JUMPDEST SWAP3 POP POP DUP2 SWAP1 SSTORE POP DUP1 PUSH1 0x10 PUSH0 DUP3 DUP3 SLOAD PUSH2 0x3723 SWAP2 SWAP1 PUSH2 0x56E6 JUMP JUMPDEST SWAP3 POP POP DUP2 SWAP1 SSTORE POP DUP1 PUSH1 0x11 PUSH0 DUP3 DUP3 SLOAD PUSH2 0x373B SWAP2 SWAP1 PUSH2 0x56E6 JUMP JUMPDEST SWAP3 POP POP DUP2 SWAP1 SSTORE POP PUSH2 0x3790 JUMP JUMPDEST DUP1 PUSH1 0xF PUSH0 DUP3 DUP3 SLOAD PUSH2 0x3758 SWAP2 SWAP1 PUSH2 0x56E6 JUMP JUMPDEST SWAP3 POP POP DUP2 SWAP1 SSTORE POP DUP1 PUSH1 0x10 PUSH0 DUP3 DUP3 SLOAD PUSH2 0x3770 SWAP2 SWAP1 PUSH2 0x557C JUMP JUMPDEST SWAP3 POP POP DUP2 SWAP1 SSTORE POP DUP1 PUSH1 0x11 PUSH0 DUP3 DUP3 SLOAD PUSH2 0x3788 SWAP2 SWAP1 PUSH2 0x557C JUMP JUMPDEST SWAP3 POP POP DUP2 SWAP1 SSTORE POP JUMPDEST POP POP POP JUMP JUMPDEST PUSH0 PUSH1 0xA PUSH0 SWAP1 SLOAD SWAP1 PUSH2 0x100 EXP SWAP1 DIV PUSH8 0xFFFFFFFFFFFFFFFF AND PUSH8 0xFFFFFFFFFFFFFFFF AND TIMESTAMP LT ISZERO DUP1 ISZERO PUSH2 0x37E5 JUMPI POP PUSH1 0xA PUSH1 0x8 SWAP1 SLOAD SWAP1 PUSH2 0x100 EXP SWAP1 DIV PUSH8 0xFFFFFFFFFFFFFFFF AND PUSH8 0xFFFFFFFFFFFFFFFF AND TIMESTAMP GT ISZERO JUMPDEST SWAP1 POP SWAP1 JUMP JUMPDEST PUSH0 DUP2 PUSH1 0xB SLOAD GT PUSH2 0x37FA JUMPI PUSH0 PUSH2 0x3809 JUMP JUMPDEST DUP2 PUSH1 0xB SLOAD PUSH2 0x3808 SWAP2 SWAP1 PUSH2 0x557C JUMP JUMPDEST JUMPDEST SWAP1 POP SWAP2 SWAP1 POP JUMP JUMPDEST PUSH0 PUSH20 0xFFFFFFFFFFFFFFFFFFFFFFFFFFFFFFFFFFFFFFFF AND DUP2 PUSH20 0xFFFFFFFFFFFFFFFFFFFFFFFFFFFFFFFFFFFFFFFF AND SUB PUSH2 0x3875 JUMPI PUSH1 0x40 MLOAD PUSH32 0xCFE2EA6300000000000000000000000000000000000000000000000000000000 DUP2 MSTORE PUSH1 0x4 ADD PUSH1 0x40 MLOAD DUP1 SWAP2 SUB SWAP1 REVERT JUMPDEST DUP1 PUSH1 0xE PUSH0 PUSH2 0x100 EXP DUP2 SLOAD DUP2 PUSH20 0xFFFFFFFFFFFFFFFFFFFFFFFFFFFFFFFFFFFFFFFF MUL NOT AND SWAP1 DUP4 PUSH20 0xFFFFFFFFFFFFFFFFFFFFFFFFFFFFFFFFFFFFFFFF AND MUL OR SWAP1 SSTORE POP DUP1 PUSH20 0xFFFFFFFFFFFFFFFFFFFFFFFFFFFFFFFFFFFFFFFF AND PUSH32 0x5CC4BDB402E519D4921D6BFACA9C17C16EA3A8E658FF5ACCD29E6080635562CE PUSH1 0x40 MLOAD PUSH1 0x40 MLOAD DUP1 SWAP2 SUB SWAP1 LOG2 POP JUMP JUMPDEST PUSH2 0x3977 DUP5 DUP6 PUSH20 0xFFFFFFFFFFFFFFFFFFFFFFFFFFFFFFFFFFFFFFFF AND PUSH4 0x23B872DD DUP7 DUP7 DUP7 PUSH1 0x40 MLOAD PUSH1 0x24 ADD PUSH2 0x3930 SWAP4 SWAP3 SWAP2 SWAP1 PUSH2 0x584F JUMP JUMPDEST PUSH1 0x40 MLOAD PUSH1 0x20 DUP2 DUP4 SUB SUB DUP2 MSTORE SWAP1 PUSH1 0x40 MSTORE SWAP2 POP PUSH1 0xE0 SHL PUSH1 0x20 DUP3 ADD DUP1 MLOAD PUSH28 0xFFFFFFFFFFFFFFFFFFFFFFFFFFFFFFFFFFFFFFFFFFFFFFFFFFFFFFFF DUP4 DUP2 DUP4 AND OR DUP4 MSTORE POP POP POP POP PUSH2 0x41D1 JUMP JUMPDEST POP POP POP POP JUMP JUMPDEST PUSH0 PUSH20 0xFFFFFFFFFFFFFFFFFFFFFFFFFFFFFFFFFFFFFFFF AND DUP3 PUSH20 0xFFFFFFFFFFFFFFFFFFFFFFFFFFFFFFFFFFFFFFFF AND SUB PUSH2 0x39ED JUMPI PUSH0 PUSH1 0x40 MLOAD PUSH32 0xEC442F0500000000000000000000000000000000000000000000000000000000 DUP2 MSTORE PUSH1 0x4 ADD PUSH2 0x39E4 SWAP2 SWAP1 PUSH2 0x5413 JUMP JUMPDEST PUSH1 0x40 MLOAD DUP1 SWAP2 SUB SWAP1 REVERT JUMPDEST PUSH2 0x39F8 PUSH0 DUP4 DUP4 PUSH2 0x4079 JUMP JUMPDEST POP POP JUMP JUMPDEST PUSH0 PUSH1 0x7 PUSH0 DUP4 PUSH20 0xFFFFFFFFFFFFFFFFFFFFFFFFFFFFFFFFFFFFFFFF AND PUSH20 0xFFFFFFFFFFFFFFFFFFFFFFFFFFFFFFFFFFFFFFFF AND DUP2 MSTORE PUSH1 0x20 ADD SWAP1 DUP2 MSTORE PUSH1 0x20 ADD PUSH0 KECCAK256 SLOAD SWAP1 POP SWAP2 SWAP1 POP JUMP JUMPDEST PUSH1 0x60 PUSH2 0x3A78 PUSH1 0x5 PUSH32 0x0 PUSH2 0x4352 SWAP1 SWAP2 SWAP1 PUSH4 0xFFFFFFFF AND JUMP JUMPDEST SWAP1 POP SWAP1 JUMP JUMPDEST PUSH1 0x60 PUSH2 0x3AB3 PUSH1 0x6 PUSH32 0x0 PUSH2 0x4352 SWAP1 SWAP2 SWAP1 PUSH4 0xFFFFFFFF AND JUMP JUMPDEST SWAP1 POP SWAP1 JUMP JUMPDEST PUSH0 DUP2 EQ DUP1 PUSH2 0x3AC5 JUMPI POP DUP2 DUP2 LT JUMPDEST ISZERO PUSH2 0x3AFC JUMPI PUSH1 0x40 MLOAD PUSH32 0x39423AE400000000000000000000000000000000000000000000000000000000 DUP2 MSTORE PUSH1 0x4 ADD PUSH1 0x40 MLOAD DUP1 SWAP2 SUB SWAP1 REVERT JUMPDEST DUP1 PUSH1 0xB DUP2 SWAP1 SSTORE POP DUP1 PUSH32 0x50E5341D7A4AD030A1A03C7B2BCCFA67438C0BDF5C398A3B1D7A64BABFBF97FE PUSH1 0x40 MLOAD PUSH1 0x40 MLOAD DUP1 SWAP2 SUB SWAP1 LOG2 POP POP JUMP JUMPDEST PUSH0 PUSH0 PUSH1 0xA PUSH0 SWAP1 SLOAD SWAP1 PUSH2 0x100 EXP SWAP1 DIV PUSH8 0xFFFFFFFFFFFFFFFF AND PUSH8 0xFFFFFFFFFFFFFFFF AND EQ DUP1 ISZERO PUSH2 0x3B82 JUMPI POP PUSH0 PUSH1 0xA PUSH1 0x8 SWAP1 SLOAD SWAP1 PUSH2 0x100 EXP SWAP1 DIV PUSH8 0xFFFFFFFFFFFFFFFF AND PUSH8 0xFFFFFFFFFFFFFFFF AND EQ JUMPDEST SWAP1 POP PUSH0 PUSH0 PUSH1 0xA PUSH0 SWAP1 SLOAD SWAP1 PUSH2 0x100 EXP SWAP1 DIV PUSH8 0xFFFFFFFFFFFFFFFF AND PUSH8 0xFFFFFFFFFFFFFFFF AND EQ ISZERO DUP1 ISZERO PUSH2 0x3BD2 JUMPI POP PUSH1 0xA PUSH0 SWAP1 SLOAD SWAP1 PUSH2 0x100 EXP SWAP1 DIV PUSH8 0xFFFFFFFFFFFFFFFF AND PUSH8 0xFFFFFFFFFFFFFFFF AND TIMESTAMP LT JUMPDEST SWAP1 POP DUP2 ISZERO DUP1 ISZERO PUSH2 0x3BE0 JUMPI POP DUP1 ISZERO JUMPDEST ISZERO PUSH2 0x3C17 JUMPI PUSH1 0x40 MLOAD PUSH32 0x18B24C3600000000000000000000000000000000000000000000000000000000 DUP2 MSTORE PUSH1 0x4 ADD PUSH1 0x40 MLOAD DUP1 SWAP2 SUB SWAP1 REVERT JUMPDEST PUSH0 DUP5 PUSH8 0xFFFFFFFFFFFFFFFF AND EQ DUP1 PUSH2 0x3C38 JUMPI POP PUSH0 DUP4 PUSH8 0xFFFFFFFFFFFFFFFF AND EQ JUMPDEST ISZERO PUSH2 0x3C6F JUMPI PUSH1 0x40 MLOAD PUSH32 0x4994DC0200000000000000000000000000000000000000000000000000000000 DUP2 MSTORE PUSH1 0x4 ADD PUSH1 0x40 MLOAD DUP1 SWAP2 SUB SWAP1 REVERT JUMPDEST DUP3 PUSH8 0xFFFFFFFFFFFFFFFF AND DUP5 PUSH8 0xFFFFFFFFFFFFFFFF AND LT PUSH2 0x3CBC JUMPI PUSH1 0x40 MLOAD PUSH32 0x4994DC0200000000000000000000000000000000000000000000000000000000 DUP2 MSTORE PUSH1 0x4 ADD PUSH1 0x40 MLOAD DUP1 SWAP2 SUB SWAP1 REVERT JUMPDEST TIMESTAMP DUP5 PUSH8 0xFFFFFFFFFFFFFFFF AND GT PUSH2 0x3CFF JUMPI PUSH1 0x40 MLOAD PUSH32 0x4994DC0200000000000000000000000000000000000000000000000000000000 DUP2 MSTORE PUSH1 0x4 ADD PUSH1 0x40 MLOAD DUP1 SWAP2 SUB SWAP1 REVERT JUMPDEST DUP4 PUSH1 0xA PUSH0 PUSH2 0x100 EXP DUP2 SLOAD DUP2 PUSH8 0xFFFFFFFFFFFFFFFF MUL NOT AND SWAP1 DUP4 PUSH8 0xFFFFFFFFFFFFFFFF AND MUL OR SWAP1 SSTORE POP DUP3 PUSH1 0xA PUSH1 0x8 PUSH2 0x100 EXP DUP2 SLOAD DUP2 PUSH8 0xFFFFFFFFFFFFFFFF MUL NOT AND SWAP1 DUP4 PUSH8 0xFFFFFFFFFFFFFFFF AND MUL OR SWAP1 SSTORE POP DUP3 PUSH8 0xFFFFFFFFFFFFFFFF AND DUP5 PUSH8 0xFFFFFFFFFFFFFFFF AND PUSH32 0x709A99E52F3AD08814A91314C2CE5127558C0FFEB6D0A5DF5A637276CB804D6E PUSH1 0x40 MLOAD PUSH1 0x40 MLOAD DUP1 SWAP2 SUB SWAP1 LOG3 POP POP POP POP JUMP JUMPDEST PUSH0 PUSH1 0xD PUSH0 DUP4 PUSH20 0xFFFFFFFFFFFFFFFFFFFFFFFFFFFFFFFFFFFFFFFF AND PUSH20 0xFFFFFFFFFFFFFFFFFFFFFFFFFFFFFFFFFFFFFFFF AND DUP2 MSTORE PUSH1 0x20 ADD SWAP1 DUP2 MSTORE PUSH1 0x20 ADD PUSH0 KECCAK256 PUSH0 SWAP1 SLOAD SWAP1 PUSH2 0x100 EXP SWAP1 DIV PUSH1 0xFF AND SWAP1 POP SWAP2 SWAP1 POP JUMP JUMPDEST PUSH0 PUSH0 DUP4 SUB PUSH2 0x3DFA JUMPI PUSH0 SWAP1 POP PUSH2 0x3E09 JUMP JUMPDEST PUSH2 0x3E06 DUP5 DUP4 DUP6 PUSH0 PUSH2 0x43FF JUMP JUMPDEST SWAP1 POP JUMPDEST SWAP4 SWAP3 POP POP POP JUMP JUMPDEST PUSH0 PUSH1 0x7 PUSH0 DUP4 PUSH20 0xFFFFFFFFFFFFFFFFFFFFFFFFFFFFFFFFFFFFFFFF AND PUSH20 0xFFFFFFFFFFFFFFFFFFFFFFFFFFFFFFFFFFFFFFFF AND DUP2 MSTORE PUSH1 0x20 ADD SWAP1 DUP2 MSTORE PUSH1 0x20 ADD PUSH0 KECCAK256 PUSH0 DUP2 SLOAD DUP1 SWAP3 SWAP2 SWAP1 PUSH1 0x1 ADD SWAP2 SWAP1 POP SSTORE SWAP1 POP SWAP2 SWAP1 POP JUMP JUMPDEST PUSH0 PUSH2 0x3E75 PUSH2 0x3E6F PUSH2 0x3472 JUMP JUMPDEST DUP4 PUSH2 0x444C JUMP JUMPDEST SWAP1 POP SWAP2 SWAP1 POP JUMP JUMPDEST PUSH0 PUSH0 PUSH0 PUSH0 PUSH2 0x3E8C DUP9 DUP9 DUP9 DUP9 PUSH2 0x448C JUMP JUMPDEST SWAP3 POP SWAP3 POP SWAP3 POP PUSH2 0x3E9C DUP3 DUP3 PUSH2 0x4573 JUMP JUMPDEST DUP3 SWAP4 POP POP POP POP SWAP5 SWAP4 POP POP POP POP JUMP JUMPDEST PUSH0 PUSH20 0xFFFFFFFFFFFFFFFFFFFFFFFFFFFFFFFFFFFFFFFF AND DUP5 PUSH20 0xFFFFFFFFFFFFFFFFFFFFFFFFFFFFFFFFFFFFFFFF AND SUB PUSH2 0x3F1A JUMPI PUSH0 PUSH1 0x40 MLOAD PUSH32 0xE602DF0500000000000000000000000000000000000000000000000000000000 DUP2 MSTORE PUSH1 0x4 ADD PUSH2 0x3F11 SWAP2 SWAP1 PUSH2 0x5413 JUMP JUMPDEST PUSH1 0x40 MLOAD DUP1 SWAP2 SUB SWAP1 REVERT JUMPDEST PUSH0 PUSH20 0xFFFFFFFFFFFFFFFFFFFFFFFFFFFFFFFFFFFFFFFF AND DUP4 PUSH20 0xFFFFFFFFFFFFFFFFFFFFFFFFFFFFFFFFFFFFFFFF AND SUB PUSH2 0x3F8A JUMPI PUSH0 PUSH1 0x40 MLOAD PUSH32 0x94280D6200000000000000000000000000000000000000000000000000000000 DUP2 MSTORE PUSH1 0x4 ADD PUSH2 0x3F81 SWAP2 SWAP1 PUSH2 0x5413 JUMP JUMPDEST PUSH1 0x40 MLOAD DUP1 SWAP2 SUB SWAP1 REVERT JUMPDEST DUP2 PUSH1 0x1 PUSH0 DUP7 PUSH20 0xFFFFFFFFFFFFFFFFFFFFFFFFFFFFFFFFFFFFFFFF AND PUSH20 0xFFFFFFFFFFFFFFFFFFFFFFFFFFFFFFFFFFFFFFFF AND DUP2 MSTORE PUSH1 0x20 ADD SWAP1 DUP2 MSTORE PUSH1 0x20 ADD PUSH0 KECCAK256 PUSH0 DUP6 PUSH20 0xFFFFFFFFFFFFFFFFFFFFFFFFFFFFFFFFFFFFFFFF AND PUSH20 0xFFFFFFFFFFFFFFFFFFFFFFFFFFFFFFFFFFFFFFFF AND DUP2 MSTORE PUSH1 0x20 ADD SWAP1 DUP2 MSTORE PUSH1 0x20 ADD PUSH0 KECCAK256 DUP2 SWAP1 SSTORE POP DUP1 ISZERO PUSH2 0x4073 JUMPI DUP3 PUSH20 0xFFFFFFFFFFFFFFFFFFFFFFFFFFFFFFFFFFFFFFFF AND DUP5 PUSH20 0xFFFFFFFFFFFFFFFFFFFFFFFFFFFFFFFFFFFFFFFF AND PUSH32 0x8C5BE1E5EBEC7D5BD14F71427D1E84F3DD0314C0F7B2291E5B200AC8C7C3B925 DUP5 PUSH1 0x40 MLOAD PUSH2 0x406A SWAP2 SWAP1 PUSH2 0x4ECB JUMP JUMPDEST PUSH1 0x40 MLOAD DUP1 SWAP2 SUB SWAP1 LOG3 JUMPDEST POP POP POP POP JUMP JUMPDEST PUSH0 PUSH20 0xFFFFFFFFFFFFFFFFFFFFFFFFFFFFFFFFFFFFFFFF AND DUP4 PUSH20 0xFFFFFFFFFFFFFFFFFFFFFFFFFFFFFFFFFFFFFFFF AND EQ DUP1 PUSH2 0x40DE JUMPI POP PUSH0 PUSH20 0xFFFFFFFFFFFFFFFFFFFFFFFFFFFFFFFFFFFFFFFF AND DUP3 PUSH20 0xFFFFFFFFFFFFFFFFFFFFFFFFFFFFFFFFFFFFFFFF AND EQ JUMPDEST DUP1 PUSH2 0x4185 JUMPI POP PUSH1 0x3 PUSH1 0x4 DUP2 GT ISZERO PUSH2 0x40F8 JUMPI PUSH2 0x40F7 PUSH2 0x4DC8 JUMP JUMPDEST JUMPDEST PUSH1 0xE PUSH1 0x14 SWAP1 SLOAD SWAP1 PUSH2 0x100 EXP SWAP1 DIV PUSH1 0xFF AND PUSH1 0x4 DUP2 GT ISZERO PUSH2 0x411A JUMPI PUSH2 0x4119 PUSH2 0x4DC8 JUMP JUMPDEST JUMPDEST EQ DUP1 ISZERO PUSH2 0x412C JUMPI POP PUSH2 0x412B DUP4 PUSH2 0x3D98 JUMP JUMPDEST JUMPDEST DUP1 ISZERO PUSH2 0x4184 JUMPI POP PUSH1 0xC PUSH0 SWAP1 SLOAD SWAP1 PUSH2 0x100 EXP SWAP1 DIV PUSH20 0xFFFFFFFFFFFFFFFFFFFFFFFFFFFFFFFFFFFFFFFF AND PUSH20 0xFFFFFFFFFFFFFFFFFFFFFFFFFFFFFFFFFFFFFFFF AND DUP3 PUSH20 0xFFFFFFFFFFFFFFFFFFFFFFFFFFFFFFFFFFFFFFFF AND EQ JUMPDEST JUMPDEST ISZERO PUSH2 0x419A JUMPI PUSH2 0x4195 DUP4 DUP4 DUP4 PUSH2 0x46D5 JUMP JUMPDEST PUSH2 0x41CC JUMP JUMPDEST PUSH1 0x40 MLOAD PUSH32 0x8574ADCF00000000000000000000000000000000000000000000000000000000 DUP2 MSTORE PUSH1 0x4 ADD PUSH1 0x40 MLOAD DUP1 SWAP2 SUB SWAP1 REVERT JUMPDEST POP POP POP JUMP JUMPDEST PUSH0 PUSH0 PUSH1 0x20 PUSH0 DUP5 MLOAD PUSH1 0x20 DUP7 ADD PUSH0 DUP9 GAS CALL DUP1 PUSH2 0x41F0 JUMPI PUSH1 0x40 MLOAD RETURNDATASIZE PUSH0 DUP3 RETURNDATACOPY RETURNDATASIZE DUP2 REVERT JUMPDEST RETURNDATASIZE SWAP3 POP PUSH0 MLOAD SWAP2 POP POP PUSH0 DUP3 EQ PUSH2 0x4209 JUMPI PUSH1 0x1 DUP2 EQ ISZERO PUSH2 0x4224 JUMP JUMPDEST PUSH0 DUP5 PUSH20 0xFFFFFFFFFFFFFFFFFFFFFFFFFFFFFFFFFFFFFFFF AND EXTCODESIZE EQ JUMPDEST ISZERO PUSH2 0x4266 JUMPI DUP4 PUSH1 0x40 MLOAD PUSH32 0x5274AFE700000000000000000000000000000000000000000000000000000000 DUP2 MSTORE PUSH1 0x4 ADD PUSH2 0x425D SWAP2 SWAP1 PUSH2 0x5413 JUMP JUMPDEST PUSH1 0x40 MLOAD DUP1 SWAP2 SUB SWAP1 REVERT JUMPDEST POP POP POP POP JUMP JUMPDEST PUSH2 0x4276 DUP3 DUP3 PUSH2 0x2375 JUMP JUMPDEST PUSH2 0x42B9 JUMPI DUP1 DUP3 PUSH1 0x40 MLOAD PUSH32 0xE2517D3F00000000000000000000000000000000000000000000000000000000 DUP2 MSTORE PUSH1 0x4 ADD PUSH2 0x42B0 SWAP3 SWAP2 SWAP1 PUSH2 0x5884 JUMP JUMPDEST PUSH1 0x40 MLOAD DUP1 SWAP2 SUB SWAP1 REVERT JUMPDEST POP POP JUMP JUMPDEST PUSH0 PUSH32 0x8B73C3C69BB8FE3D512ECC4CF759CC79239F7B179B0FFACAA9A75D522B39400F PUSH32 0x0 PUSH32 0x0 CHAINID ADDRESS PUSH1 0x40 MLOAD PUSH1 0x20 ADD PUSH2 0x4337 SWAP6 SWAP5 SWAP4 SWAP3 SWAP2 SWAP1 PUSH2 0x58AB JUMP JUMPDEST PUSH1 0x40 MLOAD PUSH1 0x20 DUP2 DUP4 SUB SUB DUP2 MSTORE SWAP1 PUSH1 0x40 MSTORE DUP1 MLOAD SWAP1 PUSH1 0x20 ADD KECCAK256 SWAP1 POP SWAP1 JUMP JUMPDEST PUSH1 0x60 PUSH1 0xFF PUSH0 SHL DUP4 EQ PUSH2 0x436E JUMPI PUSH2 0x4367 DUP4 PUSH2 0x48EE JUMP JUMPDEST SWAP1 POP PUSH2 0x43F9 JUMP JUMPDEST DUP2 DUP1 SLOAD PUSH2 0x437A SWAP1 PUSH2 0x5642 JUMP JUMPDEST DUP1 PUSH1 0x1F ADD PUSH1 0x20 DUP1 SWAP2 DIV MUL PUSH1 0x20 ADD PUSH1 0x40 MLOAD SWAP1 DUP2 ADD PUSH1 0x40 MSTORE DUP1 SWAP3 SWAP2 SWAP1 DUP2 DUP2 MSTORE PUSH1 0x20 ADD DUP3 DUP1 SLOAD PUSH2 0x43A6 SWAP1 PUSH2 0x5642 JUMP JUMPDEST DUP1 ISZERO PUSH2 0x43F1 JUMPI DUP1 PUSH1 0x1F LT PUSH2 0x43C8 JUMPI PUSH2 0x100 DUP1 DUP4 SLOAD DIV MUL DUP4 MSTORE SWAP2 PUSH1 0x20 ADD SWAP2 PUSH2 0x43F1 JUMP JUMPDEST DUP3 ADD SWAP2 SWAP1 PUSH0 MSTORE PUSH1 0x20 PUSH0 KECCAK256 SWAP1 JUMPDEST DUP2 SLOAD DUP2 MSTORE SWAP1 PUSH1 0x1 ADD SWAP1 PUSH1 0x20 ADD DUP1 DUP4 GT PUSH2 0x43D4 JUMPI DUP3 SWAP1 SUB PUSH1 0x1F AND DUP3 ADD SWAP2 JUMPDEST POP POP POP POP POP SWAP1 POP JUMPDEST SWAP3 SWAP2 POP POP JUMP JUMPDEST PUSH0 PUSH2 0x442D PUSH2 0x440C DUP4 PUSH2 0x4960 JUMP JUMPDEST DUP1 ISZERO PUSH2 0x4428 JUMPI POP PUSH0 DUP5 DUP1 PUSH2 0x4423 JUMPI PUSH2 0x4422 PUSH2 0x58FC JUMP JUMPDEST JUMPDEST DUP7 DUP9 MULMOD GT JUMPDEST PUSH2 0x498D JUMP JUMPDEST PUSH2 0x4438 DUP7 DUP7 DUP7 PUSH2 0x4998 JUMP JUMPDEST PUSH2 0x4442 SWAP2 SWAP1 PUSH2 0x56E6 JUMP JUMPDEST SWAP1 POP SWAP5 SWAP4 POP POP POP POP JUMP JUMPDEST PUSH0 PUSH1 0x40 MLOAD PUSH32 0x1901000000000000000000000000000000000000000000000000000000000000 DUP2 MSTORE DUP4 PUSH1 0x2 DUP3 ADD MSTORE DUP3 PUSH1 0x22 DUP3 ADD MSTORE PUSH1 0x42 DUP2 KECCAK256 SWAP2 POP POP SWAP3 SWAP2 POP POP JUMP JUMPDEST PUSH0 PUSH0 PUSH0 PUSH32 0x7FFFFFFFFFFFFFFFFFFFFFFFFFFFFFFF5D576E7357A4501DDFE92F46681B20A0 DUP5 PUSH0 SHR GT ISZERO PUSH2 0x44C8 JUMPI PUSH0 PUSH1 0x3 DUP6 SWAP3 POP SWAP3 POP SWAP3 POP PUSH2 0x4569 JUMP JUMPDEST PUSH0 PUSH1 0x1 DUP9 DUP9 DUP9 DUP9 PUSH1 0x40 MLOAD PUSH0 DUP2 MSTORE PUSH1 0x20 ADD PUSH1 0x40 MSTORE PUSH1 0x40 MLOAD PUSH2 0x44EB SWAP5 SWAP4 SWAP3 SWAP2 SWAP1 PUSH2 0x5929 JUMP JUMPDEST PUSH1 0x20 PUSH1 0x40 MLOAD PUSH1 0x20 DUP2 SUB SWAP1 DUP1 DUP5 SUB SWAP1 DUP6 GAS STATICCALL ISZERO DUP1 ISZERO PUSH2 0x450B JUMPI RETURNDATASIZE PUSH0 PUSH0 RETURNDATACOPY RETURNDATASIZE PUSH0 REVERT JUMPDEST POP POP POP PUSH1 0x20 PUSH1 0x40 MLOAD SUB MLOAD SWAP1 POP PUSH0 PUSH20 0xFFFFFFFFFFFFFFFFFFFFFFFFFFFFFFFFFFFFFFFF AND DUP2 PUSH20 0xFFFFFFFFFFFFFFFFFFFFFFFFFFFFFFFFFFFFFFFF AND SUB PUSH2 0x455C JUMPI PUSH0 PUSH1 0x1 PUSH0 PUSH0 SHL SWAP4 POP SWAP4 POP SWAP4 POP POP PUSH2 0x4569 JUMP JUMPDEST DUP1 PUSH0 PUSH0 PUSH0 SHL SWAP4 POP SWAP4 POP SWAP4 POP POP JUMPDEST SWAP5 POP SWAP5 POP SWAP5 SWAP2 POP POP JUMP JUMPDEST PUSH0 PUSH1 0x3 DUP2 GT ISZERO PUSH2 0x4586 JUMPI PUSH2 0x4585 PUSH2 0x4DC8 JUMP JUMPDEST JUMPDEST DUP3 PUSH1 0x3 DUP2 GT ISZERO PUSH2 0x4599 JUMPI PUSH2 0x4598 PUSH2 0x4DC8 JUMP JUMPDEST JUMPDEST SUB ISZERO PUSH2 0x46D1 JUMPI PUSH1 0x1 PUSH1 0x3 DUP2 GT ISZERO PUSH2 0x45B3 JUMPI PUSH2 0x45B2 PUSH2 0x4DC8 JUMP JUMPDEST JUMPDEST DUP3 PUSH1 0x3 DUP2 GT ISZERO PUSH2 0x45C6 JUMPI PUSH2 0x45C5 PUSH2 0x4DC8 JUMP JUMPDEST JUMPDEST SUB PUSH2 0x45FD JUMPI PUSH1 0x40 MLOAD PUSH32 0xF645EEDF00000000000000000000000000000000000000000000000000000000 DUP2 MSTORE PUSH1 0x4 ADD PUSH1 0x40 MLOAD DUP1 SWAP2 SUB SWAP1 REVERT JUMPDEST PUSH1 0x2 PUSH1 0x3 DUP2 GT ISZERO PUSH2 0x4611 JUMPI PUSH2 0x4610 PUSH2 0x4DC8 JUMP JUMPDEST JUMPDEST DUP3 PUSH1 0x3 DUP2 GT ISZERO PUSH2 0x4624 JUMPI PUSH2 0x4623 PUSH2 0x4DC8 JUMP JUMPDEST JUMPDEST SUB PUSH2 0x4668 JUMPI DUP1 PUSH0 SHR PUSH1 0x40 MLOAD PUSH32 0xFCE698F700000000000000000000000000000000000000000000000000000000 DUP2 MSTORE PUSH1 0x4 ADD PUSH2 0x465F SWAP2 SWAP1 PUSH2 0x4ECB JUMP JUMPDEST PUSH1 0x40 MLOAD DUP1 SWAP2 SUB SWAP1 REVERT JUMPDEST PUSH1 0x3 DUP1 DUP2 GT ISZERO PUSH2 0x467B JUMPI PUSH2 0x467A PUSH2 0x4DC8 JUMP JUMPDEST JUMPDEST DUP3 PUSH1 0x3 DUP2 GT ISZERO PUSH2 0x468E JUMPI PUSH2 0x468D PUSH2 0x4DC8 JUMP JUMPDEST JUMPDEST SUB PUSH2 0x46D0 JUMPI DUP1 PUSH1 0x40 MLOAD PUSH32 0xD78BCE0C00000000000000000000000000000000000000000000000000000000 DUP2 MSTORE PUSH1 0x4 ADD PUSH2 0x46C7 SWAP2 SWAP1 PUSH2 0x4FA1 JUMP JUMPDEST PUSH1 0x40 MLOAD DUP1 SWAP2 SUB SWAP1 REVERT JUMPDEST JUMPDEST POP POP JUMP JUMPDEST PUSH0 PUSH20 0xFFFFFFFFFFFFFFFFFFFFFFFFFFFFFFFFFFFFFFFF AND DUP4 PUSH20 0xFFFFFFFFFFFFFFFFFFFFFFFFFFFFFFFFFFFFFFFF AND SUB PUSH2 0x4725 JUMPI DUP1 PUSH1 0x2 PUSH0 DUP3 DUP3 SLOAD PUSH2 0x4719 SWAP2 SWAP1 PUSH2 0x56E6 JUMP JUMPDEST SWAP3 POP POP DUP2 SWAP1 SSTORE POP PUSH2 0x47F3 JUMP JUMPDEST PUSH0 PUSH0 PUSH0 DUP6 PUSH20 0xFFFFFFFFFFFFFFFFFFFFFFFFFFFFFFFFFFFFFFFF AND PUSH20 0xFFFFFFFFFFFFFFFFFFFFFFFFFFFFFFFFFFFFFFFF AND DUP2 MSTORE PUSH1 0x20 ADD SWAP1 DUP2 MSTORE PUSH1 0x20 ADD PUSH0 KECCAK256 SLOAD SWAP1 POP DUP2 DUP2 LT ISZERO PUSH2 0x47AE JUMPI DUP4 DUP2 DUP4 PUSH1 0x40 MLOAD PUSH32 0xE450D38C00000000000000000000000000000000000000000000000000000000 DUP2 MSTORE PUSH1 0x4 ADD PUSH2 0x47A5 SWAP4 SWAP3 SWAP2 SWAP1 PUSH2 0x57CC JUMP JUMPDEST PUSH1 0x40 MLOAD DUP1 SWAP2 SUB SWAP1 REVERT JUMPDEST DUP2 DUP2 SUB PUSH0 PUSH0 DUP7 PUSH20 0xFFFFFFFFFFFFFFFFFFFFFFFFFFFFFFFFFFFFFFFF AND PUSH20 0xFFFFFFFFFFFFFFFFFFFFFFFFFFFFFFFFFFFFFFFF AND DUP2 MSTORE PUSH1 0x20 ADD SWAP1 DUP2 MSTORE PUSH1 0x20 ADD PUSH0 KECCAK256 DUP2 SWAP1 SSTORE POP POP JUMPDEST PUSH0 PUSH20 0xFFFFFFFFFFFFFFFFFFFFFFFFFFFFFFFFFFFFFFFF AND DUP3 PUSH20 0xFFFFFFFFFFFFFFFFFFFFFFFFFFFFFFFFFFFFFFFF AND SUB PUSH2 0x483A JUMPI DUP1 PUSH1 0x2 PUSH0 DUP3 DUP3 SLOAD SUB SWAP3 POP POP DUP2 SWAP1 SSTORE POP PUSH2 0x4884 JUMP JUMPDEST DUP1 PUSH0 PUSH0 DUP5 PUSH20 0xFFFFFFFFFFFFFFFFFFFFFFFFFFFFFFFFFFFFFFFF AND PUSH20 0xFFFFFFFFFFFFFFFFFFFFFFFFFFFFFFFFFFFFFFFF AND DUP2 MSTORE PUSH1 0x20 ADD SWAP1 DUP2 MSTORE PUSH1 0x20 ADD PUSH0 KECCAK256 PUSH0 DUP3 DUP3 SLOAD ADD SWAP3 POP POP DUP2 SWAP1 SSTORE POP JUMPDEST DUP2 PUSH20 0xFFFFFFFFFFFFFFFFFFFFFFFFFFFFFFFFFFFFFFFF AND DUP4 PUSH20 0xFFFFFFFFFFFFFFFFFFFFFFFFFFFFFFFFFFFFFFFF AND PUSH32 0xDDF252AD1BE2C89B69C2B068FC378DAA952BA7F163C4A11628F55A4DF523B3EF DUP4 PUSH1 0x40 MLOAD PUSH2 0x48E1 SWAP2 SWAP1 PUSH2 0x4ECB JUMP JUMPDEST PUSH1 0x40 MLOAD DUP1 SWAP2 SUB SWAP1 LOG3 POP POP POP JUMP JUMPDEST PUSH1 0x60 PUSH0 PUSH2 0x48FA DUP4 PUSH2 0x4A77 JUMP JUMPDEST SWAP1 POP PUSH0 PUSH1 0x20 PUSH8 0xFFFFFFFFFFFFFFFF DUP2 GT ISZERO PUSH2 0x4918 JUMPI PUSH2 0x4917 PUSH2 0x5719 JUMP JUMPDEST JUMPDEST PUSH1 0x40 MLOAD SWAP1 DUP1 DUP3 MSTORE DUP1 PUSH1 0x1F ADD PUSH1 0x1F NOT AND PUSH1 0x20 ADD DUP3 ADD PUSH1 0x40 MSTORE DUP1 ISZERO PUSH2 0x494A JUMPI DUP2 PUSH1 0x20 ADD PUSH1 0x1 DUP3 MUL DUP1 CALLDATASIZE DUP4 CALLDATACOPY DUP1 DUP3 ADD SWAP2 POP POP SWAP1 POP JUMPDEST POP SWAP1 POP DUP2 DUP2 MSTORE DUP4 PUSH1 0x20 DUP3 ADD MSTORE DUP1 SWAP3 POP POP POP SWAP2 SWAP1 POP JUMP JUMPDEST PUSH0 PUSH1 0x1 PUSH1 0x2 DUP4 PUSH1 0x3 DUP2 GT ISZERO PUSH2 0x4978 JUMPI PUSH2 0x4977 PUSH2 0x4DC8 JUMP JUMPDEST JUMPDEST PUSH2 0x4982 SWAP2 SWAP1 PUSH2 0x596C JUMP JUMPDEST PUSH1 0xFF AND EQ SWAP1 POP SWAP2 SWAP1 POP JUMP JUMPDEST PUSH0 DUP2 ISZERO ISZERO SWAP1 POP SWAP2 SWAP1 POP JUMP JUMPDEST PUSH0 PUSH0 PUSH0 PUSH2 0x49A5 DUP7 DUP7 PUSH2 0x4AC5 JUMP JUMPDEST SWAP2 POP SWAP2 POP PUSH0 DUP3 SUB PUSH2 0x49CA JUMPI DUP4 DUP2 DUP2 PUSH2 0x49C0 JUMPI PUSH2 0x49BF PUSH2 0x58FC JUMP JUMPDEST JUMPDEST DIV SWAP3 POP POP POP PUSH2 0x4A70 JUMP JUMPDEST DUP2 DUP5 GT PUSH2 0x49E9 JUMPI PUSH2 0x49E8 PUSH2 0x49E3 PUSH0 DUP7 EQ PUSH1 0x12 PUSH1 0x11 PUSH2 0x4AE2 JUMP JUMPDEST PUSH2 0x4AFB JUMP JUMPDEST JUMPDEST PUSH0 DUP5 DUP7 DUP9 MULMOD SWAP1 POP DUP2 DUP2 GT DUP4 SUB SWAP3 POP DUP1 DUP3 SUB SWAP2 POP PUSH0 DUP6 PUSH0 SUB DUP7 AND SWAP1 POP DUP1 DUP7 DIV SWAP6 POP DUP1 DUP4 DIV SWAP3 POP PUSH1 0x1 DUP2 DUP3 PUSH0 SUB DIV ADD SWAP1 POP DUP1 DUP5 MUL DUP4 OR SWAP3 POP PUSH0 PUSH1 0x2 DUP8 PUSH1 0x3 MUL XOR SWAP1 POP DUP1 DUP8 MUL PUSH1 0x2 SUB DUP2 MUL SWAP1 POP DUP1 DUP8 MUL PUSH1 0x2 SUB DUP2 MUL SWAP1 POP DUP1 DUP8 MUL PUSH1 0x2 SUB DUP2 MUL SWAP1 POP DUP1 DUP8 MUL PUSH1 0x2 SUB DUP2 MUL SWAP1 POP DUP1 DUP8 MUL PUSH1 0x2 SUB DUP2 MUL SWAP1 POP DUP1 DUP8 MUL PUSH1 0x2 SUB DUP2 MUL SWAP1 POP DUP1 DUP5 MUL SWAP6 POP POP POP POP POP POP JUMPDEST SWAP4 SWAP3 POP POP POP JUMP JUMPDEST PUSH0 PUSH0 PUSH1 0xFF DUP4 PUSH0 SHR AND SWAP1 POP PUSH1 0x1F DUP2 GT ISZERO PUSH2 0x4ABC JUMPI PUSH1 0x40 MLOAD PUSH32 0xB3512B0C00000000000000000000000000000000000000000000000000000000 DUP2 MSTORE PUSH1 0x4 ADD PUSH1 0x40 MLOAD DUP1 SWAP2 SUB SWAP1 REVERT JUMPDEST DUP1 SWAP2 POP POP SWAP2 SWAP1 POP JUMP JUMPDEST PUSH0 PUSH0 PUSH0 NOT DUP4 DUP6 MULMOD DUP4 DUP6 MUL SWAP2 POP DUP2 DUP2 LT DUP3 DUP3 SUB SUB SWAP3 POP POP SWAP3 POP SWAP3 SWAP1 POP JUMP JUMPDEST PUSH0 PUSH2 0x4AEC DUP5 PUSH2 0x498D JUMP JUMPDEST DUP3 DUP5 XOR MUL DUP3 XOR SWAP1 POP SWAP4 SWAP3 POP POP POP JUMP JUMPDEST PUSH4 0x4E487B71 PUSH0 MSTORE DUP1 PUSH1 0x20 MSTORE PUSH1 0x24 PUSH1 0x1C REVERT JUMPDEST PUSH0 PUSH0 REVERT JUMPDEST PUSH0 PUSH0 REVERT JUMPDEST PUSH0 PUSH32 0xFFFFFFFF00000000000000000000000000000000000000000000000000000000 DUP3 AND SWAP1 POP SWAP2 SWAP1 POP JUMP JUMPDEST PUSH2 0x4B48 DUP2 PUSH2 0x4B14 JUMP JUMPDEST DUP2 EQ PUSH2 0x4B52 JUMPI PUSH0 PUSH0 REVERT JUMPDEST POP JUMP JUMPDEST PUSH0 DUP2 CALLDATALOAD SWAP1 POP PUSH2 0x4B63 DUP2 PUSH2 0x4B3F JUMP JUMPDEST SWAP3 SWAP2 POP POP JUMP JUMPDEST PUSH0 PUSH1 0x20 DUP3 DUP5 SUB SLT ISZERO PUSH2 0x4B7E JUMPI PUSH2 0x4B7D PUSH2 0x4B0C JUMP JUMPDEST JUMPDEST PUSH0 PUSH2 0x4B8B DUP5 DUP3 DUP6 ADD PUSH2 0x4B55 JUMP JUMPDEST SWAP2 POP POP SWAP3 SWAP2 POP POP JUMP JUMPDEST PUSH0 DUP2 ISZERO ISZERO SWAP1 POP SWAP2 SWAP1 POP JUMP JUMPDEST PUSH2 0x4BA8 DUP2 PUSH2 0x4B94 JUMP JUMPDEST DUP3 MSTORE POP POP JUMP JUMPDEST PUSH0 PUSH1 0x20 DUP3 ADD SWAP1 POP PUSH2 0x4BC1 PUSH0 DUP4 ADD DUP5 PUSH2 0x4B9F JUMP JUMPDEST SWAP3 SWAP2 POP POP JUMP JUMPDEST PUSH0 DUP2 SWAP1 POP SWAP2 SWAP1 POP JUMP JUMPDEST PUSH2 0x4BD9 DUP2 PUSH2 0x4BC7 JUMP JUMPDEST DUP2 EQ PUSH2 0x4BE3 JUMPI PUSH0 PUSH0 REVERT JUMPDEST POP JUMP JUMPDEST PUSH0 DUP2 CALLDATALOAD SWAP1 POP PUSH2 0x4BF4 DUP2 PUSH2 0x4BD0 JUMP JUMPDEST SWAP3 SWAP2 POP POP JUMP JUMPDEST PUSH0 PUSH20 0xFFFFFFFFFFFFFFFFFFFFFFFFFFFFFFFFFFFFFFFF DUP3 AND SWAP1 POP SWAP2 SWAP1 POP JUMP JUMPDEST PUSH0 PUSH2 0x4C23 DUP3 PUSH2 0x4BFA JUMP JUMPDEST SWAP1 POP SWAP2 SWAP1 POP JUMP JUMPDEST PUSH2 0x4C33 DUP2 PUSH2 0x4C19 JUMP JUMPDEST DUP2 EQ PUSH2 0x4C3D JUMPI PUSH0 PUSH0 REVERT JUMPDEST POP JUMP JUMPDEST PUSH0 DUP2 CALLDATALOAD SWAP1 POP PUSH2 0x4C4E DUP2 PUSH2 0x4C2A JUMP JUMPDEST SWAP3 SWAP2 POP POP JUMP JUMPDEST PUSH0 PUSH0 PUSH0 PUSH1 0x60 DUP5 DUP7 SUB SLT ISZERO PUSH2 0x4C6B JUMPI PUSH2 0x4C6A PUSH2 0x4B0C JUMP JUMPDEST JUMPDEST PUSH0 PUSH2 0x4C78 DUP7 DUP3 DUP8 ADD PUSH2 0x4BE6 JUMP JUMPDEST SWAP4 POP POP PUSH1 0x20 PUSH2 0x4C89 DUP7 DUP3 DUP8 ADD PUSH2 0x4C40 JUMP JUMPDEST SWAP3 POP POP PUSH1 0x40 PUSH2 0x4C9A DUP7 DUP3 DUP8 ADD PUSH2 0x4C40 JUMP JUMPDEST SWAP2 POP POP SWAP3 POP SWAP3 POP SWAP3 JUMP JUMPDEST PUSH0 PUSH1 0x20 DUP3 DUP5 SUB SLT ISZERO PUSH2 0x4CB9 JUMPI PUSH2 0x4CB8 PUSH2 0x4B0C JUMP JUMPDEST JUMPDEST PUSH0 PUSH2 0x4CC6 DUP5 DUP3 DUP6 ADD PUSH2 0x4BE6 JUMP JUMPDEST SWAP2 POP POP SWAP3 SWAP2 POP POP JUMP JUMPDEST PUSH0 DUP2 MLOAD SWAP1 POP SWAP2 SWAP1 POP JUMP JUMPDEST PUSH0 DUP3 DUP3 MSTORE PUSH1 0x20 DUP3 ADD SWAP1 POP SWAP3 SWAP2 POP POP JUMP JUMPDEST DUP3 DUP2 DUP4 MCOPY PUSH0 DUP4 DUP4 ADD MSTORE POP POP POP JUMP JUMPDEST PUSH0 PUSH1 0x1F NOT PUSH1 0x1F DUP4 ADD AND SWAP1 POP SWAP2 SWAP1 POP JUMP JUMPDEST PUSH0 PUSH2 0x4D11 DUP3 PUSH2 0x4CCF JUMP JUMPDEST PUSH2 0x4D1B DUP2 DUP6 PUSH2 0x4CD9 JUMP JUMPDEST SWAP4 POP PUSH2 0x4D2B DUP2 DUP6 PUSH1 0x20 DUP7 ADD PUSH2 0x4CE9 JUMP JUMPDEST PUSH2 0x4D34 DUP2 PUSH2 0x4CF7 JUMP JUMPDEST DUP5 ADD SWAP2 POP POP SWAP3 SWAP2 POP POP JUMP JUMPDEST PUSH0 PUSH1 0x20 DUP3 ADD SWAP1 POP DUP2 DUP2 SUB PUSH0 DUP4 ADD MSTORE PUSH2 0x4D57 DUP2 DUP5 PUSH2 0x4D07 JUMP JUMPDEST SWAP1 POP SWAP3 SWAP2 POP POP JUMP JUMPDEST PUSH0 PUSH0 PUSH1 0x40 DUP4 DUP6 SUB SLT ISZERO PUSH2 0x4D75 JUMPI PUSH2 0x4D74 PUSH2 0x4B0C JUMP JUMPDEST JUMPDEST PUSH0 PUSH2 0x4D82 DUP6 DUP3 DUP7 ADD PUSH2 0x4C40 JUMP JUMPDEST SWAP3 POP POP PUSH1 0x20 PUSH2 0x4D93 DUP6 DUP3 DUP7 ADD PUSH2 0x4BE6 JUMP JUMPDEST SWAP2 POP POP SWAP3 POP SWAP3 SWAP1 POP JUMP JUMPDEST PUSH0 PUSH1 0x20 DUP3 DUP5 SUB SLT ISZERO PUSH2 0x4DB2 JUMPI PUSH2 0x4DB1 PUSH2 0x4B0C JUMP JUMPDEST JUMPDEST PUSH0 PUSH2 0x4DBF DUP5 DUP3 DUP6 ADD PUSH2 0x4C40 JUMP JUMPDEST SWAP2 POP POP SWAP3 SWAP2 POP POP JUMP JUMPDEST PUSH32 0x4E487B7100000000000000000000000000000000000000000000000000000000 PUSH0 MSTORE PUSH1 0x21 PUSH1 0x4 MSTORE PUSH1 0x24 PUSH0 REVERT JUMPDEST PUSH1 0x5 DUP2 LT PUSH2 0x4E06 JUMPI PUSH2 0x4E05 PUSH2 0x4DC8 JUMP JUMPDEST JUMPDEST POP JUMP JUMPDEST PUSH0 DUP2 SWAP1 POP PUSH2 0x4E16 DUP3 PUSH2 0x4DF5 JUMP JUMPDEST SWAP2 SWAP1 POP JUMP JUMPDEST PUSH0 PUSH2 0x4E25 DUP3 PUSH2 0x4E09 JUMP JUMPDEST SWAP1 POP SWAP2 SWAP1 POP JUMP JUMPDEST PUSH2 0x4E35 DUP2 PUSH2 0x4E1B JUMP JUMPDEST DUP3 MSTORE POP POP JUMP JUMPDEST PUSH0 PUSH1 0x20 DUP3 ADD SWAP1 POP PUSH2 0x4E4E PUSH0 DUP4 ADD DUP5 PUSH2 0x4E2C JUMP JUMPDEST SWAP3 SWAP2 POP POP JUMP JUMPDEST PUSH0 PUSH8 0xFFFFFFFFFFFFFFFF DUP3 AND SWAP1 POP SWAP2 SWAP1 POP JUMP JUMPDEST PUSH2 0x4E70 DUP2 PUSH2 0x4E54 JUMP JUMPDEST DUP2 EQ PUSH2 0x4E7A JUMPI PUSH0 PUSH0 REVERT JUMPDEST POP JUMP JUMPDEST PUSH0 DUP2 CALLDATALOAD SWAP1 POP PUSH2 0x4E8B DUP2 PUSH2 0x4E67 JUMP JUMPDEST SWAP3 SWAP2 POP POP JUMP JUMPDEST PUSH0 PUSH1 0x20 DUP3 DUP5 SUB SLT ISZERO PUSH2 0x4EA6 JUMPI PUSH2 0x4EA5 PUSH2 0x4B0C JUMP JUMPDEST JUMPDEST PUSH0 PUSH2 0x4EB3 DUP5 DUP3 DUP6 ADD PUSH2 0x4E7D JUMP JUMPDEST SWAP2 POP POP SWAP3 SWAP2 POP POP JUMP JUMPDEST PUSH2 0x4EC5 DUP2 PUSH2 0x4BC7 JUMP JUMPDEST DUP3 MSTORE POP POP JUMP JUMPDEST PUSH0 PUSH1 0x20 DUP3 ADD SWAP1 POP PUSH2 0x4EDE PUSH0 DUP4 ADD DUP5 PUSH2 0x4EBC JUMP JUMPDEST SWAP3 SWAP2 POP POP JUMP JUMPDEST PUSH0 PUSH0 PUSH0 PUSH1 0x60 DUP5 DUP7 SUB SLT ISZERO PUSH2 0x4EFB JUMPI PUSH2 0x4EFA PUSH2 0x4B0C JUMP JUMPDEST JUMPDEST PUSH0 PUSH2 0x4F08 DUP7 DUP3 DUP8 ADD PUSH2 0x4C40 JUMP JUMPDEST SWAP4 POP POP PUSH1 0x20 PUSH2 0x4F19 DUP7 DUP3 DUP8 ADD PUSH2 0x4C40 JUMP JUMPDEST SWAP3 POP POP PUSH1 0x40 PUSH2 0x4F2A DUP7 DUP3 DUP8 ADD PUSH2 0x4BE6 JUMP JUMPDEST SWAP2 POP POP SWAP3 POP SWAP3 POP SWAP3 JUMP JUMPDEST PUSH0 DUP2 SWAP1 POP SWAP2 SWAP1 POP JUMP JUMPDEST PUSH2 0x4F46 DUP2 PUSH2 0x4F34 JUMP JUMPDEST DUP2 EQ PUSH2 0x4F50 JUMPI PUSH0 PUSH0 REVERT JUMPDEST POP JUMP JUMPDEST PUSH0 DUP2 CALLDATALOAD SWAP1 POP PUSH2 0x4F61 DUP2 PUSH2 0x4F3D JUMP JUMPDEST SWAP3 SWAP2 POP POP JUMP JUMPDEST PUSH0 PUSH1 0x20 DUP3 DUP5 SUB SLT ISZERO PUSH2 0x4F7C JUMPI PUSH2 0x4F7B PUSH2 0x4B0C JUMP JUMPDEST JUMPDEST PUSH0 PUSH2 0x4F89 DUP5 DUP3 DUP6 ADD PUSH2 0x4F53 JUMP JUMPDEST SWAP2 POP POP SWAP3 SWAP2 POP POP JUMP JUMPDEST PUSH2 0x4F9B DUP2 PUSH2 0x4F34 JUMP JUMPDEST DUP3 MSTORE POP POP JUMP JUMPDEST PUSH0 PUSH1 0x20 DUP3 ADD SWAP1 POP PUSH2 0x4FB4 PUSH0 DUP4 ADD DUP5 PUSH2 0x4F92 JUMP JUMPDEST SWAP3 SWAP2 POP POP JUMP JUMPDEST PUSH0 PUSH0 PUSH1 0x40 DUP4 DUP6 SUB SLT ISZERO PUSH2 0x4FD0 JUMPI PUSH2 0x4FCF PUSH2 0x4B0C JUMP JUMPDEST JUMPDEST PUSH0 PUSH2 0x4FDD DUP6 DUP3 DUP7 ADD PUSH2 0x4F53 JUMP JUMPDEST SWAP3 POP POP PUSH1 0x20 PUSH2 0x4FEE DUP6 DUP3 DUP7 ADD PUSH2 0x4C40 JUMP JUMPDEST SWAP2 POP POP SWAP3 POP SWAP3 SWAP1 POP JUMP JUMPDEST PUSH0 PUSH1 0xFF DUP3 AND SWAP1 POP SWAP2 SWAP1 POP JUMP JUMPDEST PUSH2 0x500D DUP2 PUSH2 0x4FF8 JUMP JUMPDEST DUP3 MSTORE POP POP JUMP JUMPDEST PUSH0 PUSH1 0x20 DUP3 ADD SWAP1 POP PUSH2 0x5026 PUSH0 DUP4 ADD DUP5 PUSH2 0x5004 JUMP JUMPDEST SWAP3 SWAP2 POP POP JUMP JUMPDEST PUSH0 PUSH0 REVERT JUMPDEST PUSH0 PUSH0 REVERT JUMPDEST PUSH0 PUSH0 REVERT JUMPDEST PUSH0 PUSH0 DUP4 PUSH1 0x1F DUP5 ADD SLT PUSH2 0x504D JUMPI PUSH2 0x504C PUSH2 0x502C JUMP JUMPDEST JUMPDEST DUP3 CALLDATALOAD SWAP1 POP PUSH8 0xFFFFFFFFFFFFFFFF DUP2 GT ISZERO PUSH2 0x506A JUMPI PUSH2 0x5069 PUSH2 0x5030 JUMP JUMPDEST JUMPDEST PUSH1 0x20 DUP4 ADD SWAP2 POP DUP4 PUSH1 0x20 DUP3 MUL DUP4 ADD GT ISZERO PUSH2 0x5086 JUMPI PUSH2 0x5085 PUSH2 0x5034 JUMP JUMPDEST JUMPDEST SWAP3 POP SWAP3 SWAP1 POP JUMP JUMPDEST PUSH2 0x5096 DUP2 PUSH2 0x4B94 JUMP JUMPDEST DUP2 EQ PUSH2 0x50A0 JUMPI PUSH0 PUSH0 REVERT JUMPDEST POP JUMP JUMPDEST PUSH0 DUP2 CALLDATALOAD SWAP1 POP PUSH2 0x50B1 DUP2 PUSH2 0x508D JUMP JUMPDEST SWAP3 SWAP2 POP POP JUMP JUMPDEST PUSH0 PUSH0 PUSH0 PUSH1 0x40 DUP5 DUP7 SUB SLT ISZERO PUSH2 0x50CE JUMPI PUSH2 0x50CD PUSH2 0x4B0C JUMP JUMPDEST JUMPDEST PUSH0 DUP5 ADD CALLDATALOAD PUSH8 0xFFFFFFFFFFFFFFFF DUP2 GT ISZERO PUSH2 0x50EB JUMPI PUSH2 0x50EA PUSH2 0x4B10 JUMP JUMPDEST JUMPDEST PUSH2 0x50F7 DUP7 DUP3 DUP8 ADD PUSH2 0x5038 JUMP JUMPDEST SWAP4 POP SWAP4 POP POP PUSH1 0x20 PUSH2 0x510A DUP7 DUP3 DUP8 ADD PUSH2 0x50A3 JUMP JUMPDEST SWAP2 POP POP SWAP3 POP SWAP3 POP SWAP3 JUMP JUMPDEST PUSH0 PUSH0 PUSH1 0x40 DUP4 DUP6 SUB SLT ISZERO PUSH2 0x512A JUMPI PUSH2 0x5129 PUSH2 0x4B0C JUMP JUMPDEST JUMPDEST PUSH0 PUSH2 0x5137 DUP6 DUP3 DUP7 ADD PUSH2 0x4BE6 JUMP JUMPDEST SWAP3 POP POP PUSH1 0x20 PUSH2 0x5148 DUP6 DUP3 DUP7 ADD PUSH2 0x4C40 JUMP JUMPDEST SWAP2 POP POP SWAP3 POP SWAP3 SWAP1 POP JUMP JUMPDEST PUSH0 PUSH0 PUSH1 0x40 DUP4 DUP6 SUB SLT ISZERO PUSH2 0x5168 JUMPI PUSH2 0x5167 PUSH2 0x4B0C JUMP JUMPDEST JUMPDEST PUSH0 PUSH2 0x5175 DUP6 DUP3 DUP7 ADD PUSH2 0x4C40 JUMP JUMPDEST SWAP3 POP POP PUSH1 0x20 PUSH2 0x5186 DUP6 DUP3 DUP7 ADD PUSH2 0x4C40 JUMP JUMPDEST SWAP2 POP POP SWAP3 POP SWAP3 SWAP1 POP JUMP JUMPDEST PUSH2 0x5199 DUP2 PUSH2 0x4E54 JUMP JUMPDEST DUP3 MSTORE POP POP JUMP JUMPDEST PUSH0 PUSH1 0x40 DUP3 ADD SWAP1 POP PUSH2 0x51B2 PUSH0 DUP4 ADD DUP6 PUSH2 0x5190 JUMP JUMPDEST PUSH2 0x51BF PUSH1 0x20 DUP4 ADD DUP5 PUSH2 0x5190 JUMP JUMPDEST SWAP4 SWAP3 POP POP POP JUMP JUMPDEST PUSH0 PUSH32 0xFF00000000000000000000000000000000000000000000000000000000000000 DUP3 AND SWAP1 POP SWAP2 SWAP1 POP JUMP JUMPDEST PUSH2 0x51FA DUP2 PUSH2 0x51C6 JUMP JUMPDEST DUP3 MSTORE POP POP JUMP JUMPDEST PUSH2 0x5209 DUP2 PUSH2 0x4C19 JUMP JUMPDEST DUP3 MSTORE POP POP JUMP JUMPDEST PUSH0 DUP2 MLOAD SWAP1 POP SWAP2 SWAP1 POP JUMP JUMPDEST PUSH0 DUP3 DUP3 MSTORE PUSH1 0x20 DUP3 ADD SWAP1 POP SWAP3 SWAP2 POP POP JUMP JUMPDEST PUSH0 DUP2 SWAP1 POP PUSH1 0x20 DUP3 ADD SWAP1 POP SWAP2 SWAP1 POP JUMP JUMPDEST PUSH2 0x5241 DUP2 PUSH2 0x4BC7 JUMP JUMPDEST DUP3 MSTORE POP POP JUMP JUMPDEST PUSH0 PUSH2 0x5252 DUP4 DUP4 PUSH2 0x5238 JUMP JUMPDEST PUSH1 0x20 DUP4 ADD SWAP1 POP SWAP3 SWAP2 POP POP JUMP JUMPDEST PUSH0 PUSH1 0x20 DUP3 ADD SWAP1 POP SWAP2 SWAP1 POP JUMP JUMPDEST PUSH0 PUSH2 0x5274 DUP3 PUSH2 0x520F JUMP JUMPDEST PUSH2 0x527E DUP2 DUP6 PUSH2 0x5219 JUMP JUMPDEST SWAP4 POP PUSH2 0x5289 DUP4 PUSH2 0x5229 JUMP JUMPDEST DUP1 PUSH0 JUMPDEST DUP4 DUP2 LT ISZERO PUSH2 0x52B9 JUMPI DUP2 MLOAD PUSH2 0x52A0 DUP9 DUP3 PUSH2 0x5247 JUMP JUMPDEST SWAP8 POP PUSH2 0x52AB DUP4 PUSH2 0x525E JUMP JUMPDEST SWAP3 POP POP PUSH1 0x1 DUP2 ADD SWAP1 POP PUSH2 0x528C JUMP JUMPDEST POP DUP6 SWAP4 POP POP POP POP SWAP3 SWAP2 POP POP JUMP JUMPDEST PUSH0 PUSH1 0xE0 DUP3 ADD SWAP1 POP PUSH2 0x52D9 PUSH0 DUP4 ADD DUP11 PUSH2 0x51F1 JUMP JUMPDEST DUP2 DUP2 SUB PUSH1 0x20 DUP4 ADD MSTORE PUSH2 0x52EB DUP2 DUP10 PUSH2 0x4D07 JUMP JUMPDEST SWAP1 POP DUP2 DUP2 SUB PUSH1 0x40 DUP4 ADD MSTORE PUSH2 0x52FF DUP2 DUP9 PUSH2 0x4D07 JUMP JUMPDEST SWAP1 POP PUSH2 0x530E PUSH1 0x60 DUP4 ADD DUP8 PUSH2 0x4EBC JUMP JUMPDEST PUSH2 0x531B PUSH1 0x80 DUP4 ADD DUP7 PUSH2 0x5200 JUMP JUMPDEST PUSH2 0x5328 PUSH1 0xA0 DUP4 ADD DUP6 PUSH2 0x4F92 JUMP JUMPDEST DUP2 DUP2 SUB PUSH1 0xC0 DUP4 ADD MSTORE PUSH2 0x533A DUP2 DUP5 PUSH2 0x526A JUMP JUMPDEST SWAP1 POP SWAP9 SWAP8 POP POP POP POP POP POP POP POP JUMP JUMPDEST PUSH0 DUP2 SWAP1 POP SWAP2 SWAP1 POP JUMP JUMPDEST PUSH0 PUSH2 0x536B PUSH2 0x5366 PUSH2 0x5361 DUP5 PUSH2 0x4BFA JUMP JUMPDEST PUSH2 0x5348 JUMP JUMPDEST PUSH2 0x4BFA JUMP JUMPDEST SWAP1 POP SWAP2 SWAP1 POP JUMP JUMPDEST PUSH0 PUSH2 0x537C DUP3 PUSH2 0x5351 JUMP JUMPDEST SWAP1 POP SWAP2 SWAP1 POP JUMP JUMPDEST PUSH0 PUSH2 0x538D DUP3 PUSH2 0x5372 JUMP JUMPDEST SWAP1 POP SWAP2 SWAP1 POP JUMP JUMPDEST PUSH2 0x539D DUP2 PUSH2 0x5383 JUMP JUMPDEST DUP3 MSTORE POP POP JUMP JUMPDEST PUSH0 PUSH1 0x20 DUP3 ADD SWAP1 POP PUSH2 0x53B6 PUSH0 DUP4 ADD DUP5 PUSH2 0x5394 JUMP JUMPDEST SWAP3 SWAP2 POP POP JUMP JUMPDEST PUSH0 PUSH1 0x20 DUP3 ADD SWAP1 POP PUSH2 0x53CF PUSH0 DUP4 ADD DUP5 PUSH2 0x5190 JUMP JUMPDEST SWAP3 SWAP2 POP POP JUMP JUMPDEST PUSH0 PUSH0 PUSH1 0x40 DUP4 DUP6 SUB SLT ISZERO PUSH2 0x53EB JUMPI PUSH2 0x53EA PUSH2 0x4B0C JUMP JUMPDEST JUMPDEST PUSH0 PUSH2 0x53F8 DUP6 DUP3 DUP7 ADD PUSH2 0x4E7D JUMP JUMPDEST SWAP3 POP POP PUSH1 0x20 PUSH2 0x5409 DUP6 DUP3 DUP7 ADD PUSH2 0x4E7D JUMP JUMPDEST SWAP2 POP POP SWAP3 POP SWAP3 SWAP1 POP JUMP JUMPDEST PUSH0 PUSH1 0x20 DUP3 ADD SWAP1 POP PUSH2 0x5426 PUSH0 DUP4 ADD DUP5 PUSH2 0x5200 JUMP JUMPDEST SWAP3 SWAP2 POP POP JUMP JUMPDEST PUSH0 PUSH1 0x60 DUP3 ADD SWAP1 POP PUSH2 0x543F PUSH0 DUP4 ADD DUP7 PUSH2 0x4EBC JUMP JUMPDEST PUSH2 0x544C PUSH1 0x20 DUP4 ADD DUP6 PUSH2 0x4EBC JUMP JUMPDEST PUSH2 0x5459 PUSH1 0x40 DUP4 ADD DUP5 PUSH2 0x4B9F JUMP JUMPDEST SWAP5 SWAP4 POP POP POP POP JUMP JUMPDEST PUSH2 0x546A DUP2 PUSH2 0x4FF8 JUMP JUMPDEST DUP2 EQ PUSH2 0x5474 JUMPI PUSH0 PUSH0 REVERT JUMPDEST POP JUMP JUMPDEST PUSH0 DUP2 CALLDATALOAD SWAP1 POP PUSH2 0x5485 DUP2 PUSH2 0x5461 JUMP JUMPDEST SWAP3 SWAP2 POP POP JUMP JUMPDEST PUSH0 PUSH0 PUSH0 PUSH0 PUSH0 PUSH0 PUSH0 PUSH1 0xE0 DUP9 DUP11 SUB SLT ISZERO PUSH2 0x54A6 JUMPI PUSH2 0x54A5 PUSH2 0x4B0C JUMP JUMPDEST JUMPDEST PUSH0 PUSH2 0x54B3 DUP11 DUP3 DUP12 ADD PUSH2 0x4C40 JUMP JUMPDEST SWAP8 POP POP PUSH1 0x20 PUSH2 0x54C4 DUP11 DUP3 DUP12 ADD PUSH2 0x4C40 JUMP JUMPDEST SWAP7 POP POP PUSH1 0x40 PUSH2 0x54D5 DUP11 DUP3 DUP12 ADD PUSH2 0x4BE6 JUMP JUMPDEST SWAP6 POP POP PUSH1 0x60 PUSH2 0x54E6 DUP11 DUP3 DUP12 ADD PUSH2 0x4BE6 JUMP JUMPDEST SWAP5 POP POP PUSH1 0x80 PUSH2 0x54F7 DUP11 DUP3 DUP12 ADD PUSH2 0x5477 JUMP JUMPDEST SWAP4 POP POP PUSH1 0xA0 PUSH2 0x5508 DUP11 DUP3 DUP12 ADD PUSH2 0x4F53 JUMP JUMPDEST SWAP3 POP POP PUSH1 0xC0 PUSH2 0x5519 DUP11 DUP3 DUP12 ADD PUSH2 0x4F53 JUMP JUMPDEST SWAP2 POP POP SWAP3 SWAP6 SWAP9 SWAP2 SWAP5 SWAP8 POP SWAP3 SWAP6 POP JUMP JUMPDEST PUSH0 PUSH1 0x40 DUP3 ADD SWAP1 POP PUSH2 0x553B PUSH0 DUP4 ADD DUP6 PUSH2 0x4E2C JUMP JUMPDEST PUSH2 0x5548 PUSH1 0x20 DUP4 ADD DUP5 PUSH2 0x4E2C JUMP JUMPDEST SWAP4 SWAP3 POP POP POP JUMP JUMPDEST PUSH32 0x4E487B7100000000000000000000000000000000000000000000000000000000 PUSH0 MSTORE PUSH1 0x11 PUSH1 0x4 MSTORE PUSH1 0x24 PUSH0 REVERT JUMPDEST PUSH0 PUSH2 0x5586 DUP3 PUSH2 0x4BC7 JUMP JUMPDEST SWAP2 POP PUSH2 0x5591 DUP4 PUSH2 0x4BC7 JUMP JUMPDEST SWAP3 POP DUP3 DUP3 SUB SWAP1 POP DUP2 DUP2 GT ISZERO PUSH2 0x55A9 JUMPI PUSH2 0x55A8 PUSH2 0x554F JUMP JUMPDEST JUMPDEST SWAP3 SWAP2 POP POP JUMP JUMPDEST PUSH0 PUSH1 0x40 DUP3 ADD SWAP1 POP PUSH2 0x55C2 PUSH0 DUP4 ADD DUP6 PUSH2 0x4EBC JUMP JUMPDEST PUSH2 0x55CF PUSH1 0x20 DUP4 ADD DUP5 PUSH2 0x4EBC JUMP JUMPDEST SWAP4 SWAP3 POP POP POP JUMP JUMPDEST PUSH0 DUP2 MLOAD SWAP1 POP PUSH2 0x55E4 DUP2 PUSH2 0x4BD0 JUMP JUMPDEST SWAP3 SWAP2 POP POP JUMP JUMPDEST PUSH0 PUSH1 0x20 DUP3 DUP5 SUB SLT ISZERO PUSH2 0x55FF JUMPI PUSH2 0x55FE PUSH2 0x4B0C JUMP JUMPDEST JUMPDEST PUSH0 PUSH2 0x560C DUP5 DUP3 DUP6 ADD PUSH2 0x55D6 JUMP JUMPDEST SWAP2 POP POP SWAP3 SWAP2 POP POP JUMP JUMPDEST PUSH32 0x4E487B7100000000000000000000000000000000000000000000000000000000 PUSH0 MSTORE PUSH1 0x22 PUSH1 0x4 MSTORE PUSH1 0x24 PUSH0 REVERT JUMPDEST PUSH0 PUSH1 0x2 DUP3 DIV SWAP1 POP PUSH1 0x1 DUP3 AND DUP1 PUSH2 0x5659 JUMPI PUSH1 0x7F DUP3 AND SWAP2 POP JUMPDEST PUSH1 0x20 DUP3 LT DUP2 SUB PUSH2 0x566C JUMPI PUSH2 0x566B PUSH2 0x5615 JUMP JUMPDEST JUMPDEST POP SWAP2 SWAP1 POP JUMP JUMPDEST PUSH32 0x4E487B7100000000000000000000000000000000000000000000000000000000 PUSH0 MSTORE PUSH1 0x32 PUSH1 0x4 MSTORE PUSH1 0x24 PUSH0 REVERT JUMPDEST PUSH0 PUSH2 0x56A9 DUP3 PUSH2 0x4BC7 JUMP JUMPDEST SWAP2 POP PUSH32 0xFFFFFFFFFFFFFFFFFFFFFFFFFFFFFFFFFFFFFFFFFFFFFFFFFFFFFFFFFFFFFFFF DUP3 SUB PUSH2 0x56DB JUMPI PUSH2 0x56DA PUSH2 0x554F JUMP JUMPDEST JUMPDEST PUSH1 0x1 DUP3 ADD SWAP1 POP SWAP2 SWAP1 POP JUMP JUMPDEST PUSH0 PUSH2 0x56F0 DUP3 PUSH2 0x4BC7 JUMP JUMPDEST SWAP2 POP PUSH2 0x56FB DUP4 PUSH2 0x4BC7 JUMP JUMPDEST SWAP3 POP DUP3 DUP3 ADD SWAP1 POP DUP1 DUP3 GT ISZERO PUSH2 0x5713 JUMPI PUSH2 0x5712 PUSH2 0x554F JUMP JUMPDEST JUMPDEST SWAP3 SWAP2 POP POP JUMP JUMPDEST PUSH32 0x4E487B7100000000000000000000000000000000000000000000000000000000 PUSH0 MSTORE PUSH1 0x41 PUSH1 0x4 MSTORE PUSH1 0x24 PUSH0 REVERT JUMPDEST PUSH0 PUSH1 0xC0 DUP3 ADD SWAP1 POP PUSH2 0x5759 PUSH0 DUP4 ADD DUP10 PUSH2 0x4F92 JUMP JUMPDEST PUSH2 0x5766 PUSH1 0x20 DUP4 ADD DUP9 PUSH2 0x5200 JUMP JUMPDEST PUSH2 0x5773 PUSH1 0x40 DUP4 ADD DUP8 PUSH2 0x5200 JUMP JUMPDEST PUSH2 0x5780 PUSH1 0x60 DUP4 ADD DUP7 PUSH2 0x4EBC JUMP JUMPDEST PUSH2 0x578D PUSH1 0x80 DUP4 ADD DUP6 PUSH2 0x4EBC JUMP JUMPDEST PUSH2 0x579A PUSH1 0xA0 DUP4 ADD DUP5 PUSH2 0x4EBC JUMP JUMPDEST SWAP8 SWAP7 POP POP POP POP POP POP POP JUMP JUMPDEST PUSH0 PUSH1 0x40 DUP3 ADD SWAP1 POP PUSH2 0x57B8 PUSH0 DUP4 ADD DUP6 PUSH2 0x5200 JUMP JUMPDEST PUSH2 0x57C5 PUSH1 0x20 DUP4 ADD DUP5 PUSH2 0x5200 JUMP JUMPDEST SWAP4 SWAP3 POP POP POP JUMP JUMPDEST PUSH0 PUSH1 0x60 DUP3 ADD SWAP1 POP PUSH2 0x57DF PUSH0 DUP4 ADD DUP7 PUSH2 0x5200 JUMP JUMPDEST PUSH2 0x57EC PUSH1 0x20 DUP4 ADD DUP6 PUSH2 0x4EBC JUMP JUMPDEST PUSH2 0x57F9 PUSH1 0x40 DUP4 ADD DUP5 PUSH2 0x4EBC JUMP JUMPDEST SWAP5 SWAP4 POP POP POP POP JUMP JUMPDEST PUSH0 PUSH1 0x40 DUP3 ADD SWAP1 POP PUSH2 0x5814 PUSH0 DUP4 ADD DUP6 PUSH2 0x5200 JUMP JUMPDEST PUSH2 0x5821 PUSH1 0x20 DUP4 ADD DUP5 PUSH2 0x4EBC JUMP JUMPDEST SWAP4 SWAP3 POP POP POP JUMP JUMPDEST PUSH0 PUSH1 0x40 DUP3 ADD SWAP1 POP PUSH2 0x583B PUSH0 DUP4 ADD DUP6 PUSH2 0x5200 JUMP JUMPDEST PUSH2 0x5848 PUSH1 0x20 DUP4 ADD DUP5 PUSH2 0x4B9F JUMP JUMPDEST SWAP4 SWAP3 POP POP POP JUMP JUMPDEST PUSH0 PUSH1 0x60 DUP3 ADD SWAP1 POP PUSH2 0x5862 PUSH0 DUP4 ADD DUP7 PUSH2 0x5200 JUMP JUMPDEST PUSH2 0x586F PUSH1 0x20 DUP4 ADD DUP6 PUSH2 0x5200 JUMP JUMPDEST PUSH2 0x587C PUSH1 0x40 DUP4 ADD DUP5 PUSH2 0x4EBC JUMP JUMPDEST SWAP5 SWAP4 POP POP POP POP JUMP JUMPDEST PUSH0 PUSH1 0x40 DUP3 ADD SWAP1 POP PUSH2 0x5897 PUSH0 DUP4 ADD DUP6 PUSH2 0x5200 JUMP JUMPDEST PUSH2 0x58A4 PUSH1 0x20 DUP4 ADD DUP5 PUSH2 0x4F92 JUMP JUMPDEST SWAP4 SWAP3 POP POP POP JUMP JUMPDEST PUSH0 PUSH1 0xA0 DUP3 ADD SWAP1 POP PUSH2 0x58BE PUSH0 DUP4 ADD DUP9 PUSH2 0x4F92 JUMP JUMPDEST PUSH2 0x58CB PUSH1 0x20 DUP4 ADD DUP8 PUSH2 0x4F92 JUMP JUMPDEST PUSH2 0x58D8 PUSH1 0x40 DUP4 ADD DUP7 PUSH2 0x4F92 JUMP JUMPDEST PUSH2 0x58E5 PUSH1 0x60 DUP4 ADD DUP6 PUSH2 0x4EBC JUMP JUMPDEST PUSH2 0x58F2 PUSH1 0x80 DUP4 ADD DUP5 PUSH2 0x5200 JUMP JUMPDEST SWAP7 SWAP6 POP POP POP POP POP POP JUMP JUMPDEST PUSH32 0x4E487B7100000000000000000000000000000000000000000000000000000000 PUSH0 MSTORE PUSH1 0x12 PUSH1 0x4 MSTORE PUSH1 0x24 PUSH0 REVERT JUMPDEST PUSH0 PUSH1 0x80 DUP3 ADD SWAP1 POP PUSH2 0x593C PUSH0 DUP4 ADD DUP8 PUSH2 0x4F92 JUMP JUMPDEST PUSH2 0x5949 PUSH1 0x20 DUP4 ADD DUP7 PUSH2 0x5004 JUMP JUMPDEST PUSH2 0x5956 PUSH1 0x40 DUP4 ADD DUP6 PUSH2 0x4F92 JUMP JUMPDEST PUSH2 0x5963 PUSH1 0x60 DUP4 ADD DUP5 PUSH2 0x4F92 JUMP JUMPDEST SWAP6 SWAP5 POP POP POP POP POP JUMP JUMPDEST PUSH0 PUSH2 0x5976 DUP3 PUSH2 0x4FF8 JUMP JUMPDEST SWAP2 POP PUSH2 0x5981 DUP4 PUSH2 0x4FF8 JUMP JUMPDEST SWAP3 POP DUP3 PUSH2 0x5991 JUMPI PUSH2 0x5990 PUSH2 0x58FC JUMP JUMPDEST JUMPDEST DUP3 DUP3 MOD SWAP1 POP SWAP3 SWAP2 POP POP JUMP INVALID LOG2 PUSH5 0x6970667358 0x22 SLT KECCAK256 RJUMP 0x6495 ORIGIN 0x28 SWAP5 0xAB SWAP12 SWAP6 0xCD MSIZE PUSH11 0xF3359DB8A6DEB2AC77D8ED DUPN 0x3D DUP8 0xDE 0xC MCOPY XOR CREATE LOG1 PUSH5 0x736F6C6343 STOP ADDMOD 0x1E STOP CALLER "
		},
		"gasEstimates": {
			"creation": {
				"codeDepositCost": "4598800",
				"executionCost": "infinite",
				"totalCost": "infinite"
			},
			"external": {
				"ADMIN_ROLE()": "436",
				"DEFAULT_ADMIN_ROLE()": "396",
				"DOMAIN_SEPARATOR()": "infinite",
				"MAX_KYC_BATCH_SIZE()": "415",
				"RECOVERY_TIMESTAMP()": "infinite",
				"TREASURY_ROLE()": "436",
				"USDC()": "infinite",
				"USDT()": "infinite",
				"allowance(address,address)": "infinite",
				"approve(address,uint256)": "infinite",
				"balanceOf(address)": "2895",
				"batchSetKycStatus(address[],bool)": "infinite",
				"bridgeContract()": "2604",
				"decimals()": "407",
				"deposit(uint256,address)": "infinite",
				"depositCap()": "2520",
				"depositEnd()": "2636",
				"depositStart()": "2584",
				"depositWindow()": "infinite",
				"eip712Domain()": "infinite",
				"getRoleAdmin(bytes32)": "infinite",
				"grantRole(bytes32,address)": "infinite",
				"hasRole(bytes32,address)": "3255",
				"isKycApproved(address)": "2982",
				"maxDeposit()": "infinite",
				"modifyPendingDepositWindow(uint64,uint64)": "infinite",
				"modifyStartedDepositWindow(uint64)": "infinite",
				"name()": "infinite",
				"nonces(address)": "2940",
				"operationalMode()": "2747",
				"permit(address,address,uint256,uint256,uint8,bytes32,bytes32)": "infinite",
				"previewRedeem(address,uint256)": "infinite",
				"previewRedeemBridge(uint256)": "infinite",
				"recoverErc20(address,address)": "infinite",
				"redeemBridge(uint256,address,address)": "infinite",
				"redeemNonKyc(uint256,address,address)": "infinite",
				"redeemRecoveryKyc(uint256,address,address)": "infinite",
				"renounceRole(bytes32,address)": "infinite",
				"revokeRole(bytes32,address)": "infinite",
				"setBridgeContract(address)": "infinite",
				"setDepositCap(uint256)": "infinite",
				"setTreasuryAddress(address)": "infinite",
				"sharesKyc()": "2537",
				"sharesNonKyc()": "2493",
				"supportsInterface(bytes4)": "787",
				"symbol()": "infinite",
				"totalSupply()": "2523",
				"transfer(address,uint256)": "infinite",
				"transferFrom(address,address,uint256)": "infinite",
				"transferToTreasury(uint256)": "infinite",
				"transitionToKycMode()": "infinite",
				"transitionToRecoveryMode()": "infinite",
				"transitionToWithdrawMode()": "infinite",
				"transitionToYieldMode()": "infinite",
				"treasuryAddress()": "2605",
				"usdcKycDeployable()": "2557"
			},
			"internal": {
				"_convertToAssets(uint256,uint256,uint256)": "infinite",
				"_setKycStatusWithAccounting(address,bool)": "infinite",
				"_transitionToModeUnsafe(enum OperationalMode)": "28140",
				"_update(address,address,uint256)": "infinite"
			}
		},
		"methodIdentifiers": {
			"ADMIN_ROLE()": "75b238fc",
			"DEFAULT_ADMIN_ROLE()": "a217fddf",
			"DOMAIN_SEPARATOR()": "3644e515",
			"MAX_KYC_BATCH_SIZE()": "2bbb3abc",
			"RECOVERY_TIMESTAMP()": "2bf08d23",
			"TREASURY_ROLE()": "d11a57ec",
			"USDC()": "89a30271",
			"USDT()": "c54e44eb",
			"allowance(address,address)": "dd62ed3e",
			"approve(address,uint256)": "095ea7b3",
			"balanceOf(address)": "70a08231",
			"batchSetKycStatus(address[],bool)": "503fd4a1",
			"bridgeContract()": "cd596583",
			"decimals()": "313ce567",
			"deposit(uint256,address)": "6e553f65",
			"depositCap()": "dbd5edc7",
			"depositEnd()": "99b6f607",
			"depositStart()": "d9c146de",
			"depositWindow()": "76bc05ae",
			"eip712Domain()": "84b0196e",
			"getRoleAdmin(bytes32)": "248a9ca3",
			"grantRole(bytes32,address)": "2f2ff15d",
			"hasRole(bytes32,address)": "91d14854",
			"isKycApproved(address)": "c824ecfa",
			"maxDeposit()": "6083e59a",
			"modifyPendingDepositWindow(uint64,uint64)": "a589d9f2",
			"modifyStartedDepositWindow(uint64)": "12dc5ae6",
			"name()": "06fdde03",
			"nonces(address)": "7ecebe00",
			"operationalMode()": "0f4e7469",
			"permit(address,address,uint256,uint256,uint8,bytes32,bytes32)": "d505accf",
			"previewRedeem(address,uint256)": "cbe52ae3",
			"previewRedeemBridge(uint256)": "d83993e8",
			"recoverErc20(address,address)": "71928629",
			"redeemBridge(uint256,address,address)": "82af1843",
			"redeemNonKyc(uint256,address,address)": "d9f98ef1",
			"redeemRecoveryKyc(uint256,address,address)": "0359632f",
			"renounceRole(bytes32,address)": "36568abe",
			"revokeRole(bytes32,address)": "d547741f",
			"setBridgeContract(address)": "0b26cf66",
			"setDepositCap(uint256)": "86651203",
			"setTreasuryAddress(address)": "6605bfda",
			"sharesKyc()": "464dfa20",
			"sharesNonKyc()": "37933334",
			"supportsInterface(bytes4)": "01ffc9a7",
			"symbol()": "95d89b41",
			"totalSupply()": "18160ddd",
			"transfer(address,uint256)": "a9059cbb",
			"transferFrom(address,address,uint256)": "23b872dd",
			"transferToTreasury(uint256)": "063d11de",
			"transitionToKycMode()": "98e3601f",
			"transitionToRecoveryMode()": "b6e36c50",
			"transitionToWithdrawMode()": "3982d59b",
			"transitionToYieldMode()": "8832b767",
			"treasuryAddress()": "c5f956af",
			"usdcKycDeployable()": "fef4aea2"
		}
	},
	"abi": [
		{
			"inputs": [
				{
					"internalType": "address",
					"name": "_admin",
					"type": "address"
				},
				{
					"internalType": "string",
					"name": "_name",
					"type": "string"
				},
				{
					"internalType": "string",
					"name": "_symbol",
					"type": "string"
				},
				{
					"internalType": "uint256",
					"name": "_depositCap",
					"type": "uint256"
				},
				{
					"internalType": "uint64",
					"name": "_depositStart",
					"type": "uint64"
				},
				{
					"internalType": "uint64",
					"name": "_depositEnd",
					"type": "uint64"
				},
				{
					"internalType": "address",
					"name": "_treasuryAddress",
					"type": "address"
				}
			],
			"stateMutability": "nonpayable",
			"type": "constructor"
		},
		{
			"inputs": [],
			"name": "AccessControlBadConfirmation",
			"type": "error"
		},
		{
			"inputs": [
				{
					"internalType": "address",
					"name": "account",
					"type": "address"
				},
				{
					"internalType": "bytes32",
					"name": "neededRole",
					"type": "bytes32"
				}
			],
			"name": "AccessControlUnauthorizedAccount",
			"type": "error"
		},
		{
			"inputs": [],
			"name": "AlreadyKycApproved",
			"type": "error"
		},
		{
			"inputs": [
				{
					"internalType": "uint256",
					"name": "provided",
					"type": "uint256"
				},
				{
					"internalType": "uint256",
					"name": "max",
					"type": "uint256"
				}
			],
			"name": "BatchTooLarge",
			"type": "error"
		},
		{
			"inputs": [],
			"name": "BridgeNotSet",
			"type": "error"
		},
		{
			"inputs": [],
			"name": "CallerIsNotBridge",
			"type": "error"
		},
		{
			"inputs": [],
			"name": "DepositExceedsCap",
			"type": "error"
		},
		{
			"inputs": [],
			"name": "DepositWindowNotEnded",
			"type": "error"
		},
		{
			"inputs": [],
			"name": "DepositWindowNotOpen",
			"type": "error"
		},
		{
			"inputs": [],
			"name": "ECDSAInvalidSignature",
			"type": "error"
		},
		{
			"inputs": [
				{
					"internalType": "uint256",
					"name": "length",
					"type": "uint256"
				}
			],
			"name": "ECDSAInvalidSignatureLength",
			"type": "error"
		},
		{
			"inputs": [
				{
					"internalType": "bytes32",
					"name": "s",
					"type": "bytes32"
				}
			],
			"name": "ECDSAInvalidSignatureS",
			"type": "error"
		},
		{
			"inputs": [
				{
					"internalType": "address",
					"name": "spender",
					"type": "address"
				},
				{
					"internalType": "uint256",
					"name": "allowance",
					"type": "uint256"
				},
				{
					"internalType": "uint256",
					"name": "needed",
					"type": "uint256"
				}
			],
			"name": "ERC20InsufficientAllowance",
			"type": "error"
		},
		{
			"inputs": [
				{
					"internalType": "address",
					"name": "sender",
					"type": "address"
				},
				{
					"internalType": "uint256",
					"name": "balance",
					"type": "uint256"
				},
				{
					"internalType": "uint256",
					"name": "needed",
					"type": "uint256"
				}
			],
			"name": "ERC20InsufficientBalance",
			"type": "error"
		},
		{
			"inputs": [
				{
					"internalType": "address",
					"name": "approver",
					"type": "address"
				}
			],
			"name": "ERC20InvalidApprover",
			"type": "error"
		},
		{
			"inputs": [
				{
					"internalType": "address",
					"name": "receiver",
					"type": "address"
				}
			],
			"name": "ERC20InvalidReceiver",
			"type": "error"
		},
		{
			"inputs": [
				{
					"internalType": "address",
					"name": "sender",
					"type": "address"
				}
			],
			"name": "ERC20InvalidSender",
			"type": "error"
		},
		{
			"inputs": [
				{
					"internalType": "address",
					"name": "spender",
					"type": "address"
				}
			],
			"name": "ERC20InvalidSpender",
			"type": "error"
		},
		{
			"inputs": [
				{
					"internalType": "uint256",
					"name": "deadline",
					"type": "uint256"
				}
			],
			"name": "ERC2612ExpiredSignature",
			"type": "error"
		},
		{
			"inputs": [
				{
					"internalType": "address",
					"name": "signer",
					"type": "address"
				},
				{
					"internalType": "address",
					"name": "owner",
					"type": "address"
				}
			],
			"name": "ERC2612InvalidSigner",
			"type": "error"
		},
		{
			"inputs": [],
			"name": "EmptyBatch",
			"type": "error"
		},
		{
			"inputs": [],
			"name": "InsufficientBalance",
			"type": "error"
		},
		{
			"inputs": [],
			"name": "InsufficientFundsForDeployment",
			"type": "error"
		},
		{
			"inputs": [
				{
					"internalType": "address",
					"name": "account",
					"type": "address"
				},
				{
					"internalType": "uint256",
					"name": "currentNonce",
					"type": "uint256"
				}
			],
			"name": "InvalidAccountNonce",
			"type": "error"
		},
		{
			"inputs": [],
			"name": "InvalidBridgeAddress",
			"type": "error"
		},
		{
			"inputs": [],
			"name": "InvalidDepositCap",
			"type": "error"
		},
		{
			"inputs": [
				{
					"internalType": "enum OperationalMode",
					"name": "currentMode",
					"type": "uint8"
				},
				{
					"internalType": "enum OperationalMode",
					"name": "expectedMode",
					"type": "uint8"
				}
			],
			"name": "InvalidOperationalMode",
			"type": "error"
		},
		{
			"inputs": [],
			"name": "InvalidShortString",
			"type": "error"
		},
		{
			"inputs": [],
			"name": "InvalidTreasuryAddress",
			"type": "error"
		},
		{
			"inputs": [
				{
					"internalType": "address",
					"name": "user",
					"type": "address"
				},
				{
					"internalType": "bool",
					"name": "currentStatus",
					"type": "bool"
				}
			],
			"name": "KycStatusUnchanged",
			"type": "error"
		},
		{
			"inputs": [],
			"name": "NoSharesFound",
			"type": "error"
		},
		{
			"inputs": [],
			"name": "NotKycApproved",
			"type": "error"
		},
		{
			"inputs": [],
			"name": "RecoverZeroAmount",
			"type": "error"
		},
		{
			"inputs": [
				{
					"internalType": "address",
					"name": "token",
					"type": "address"
				}
			],
			"name": "RecoveryForbidden",
			"type": "error"
		},
		{
			"inputs": [],
			"name": "ReentrancyGuardReentrantCall",
			"type": "error"
		},
		{
			"inputs": [
				{
					"internalType": "address",
					"name": "token",
					"type": "address"
				}
			],
			"name": "SafeERC20FailedOperation",
			"type": "error"
		},
		{
			"inputs": [
				{
					"internalType": "string",
					"name": "str",
					"type": "string"
				}
			],
			"name": "StringTooLong",
			"type": "error"
		},
		{
			"inputs": [],
			"name": "TransfersDisabled",
			"type": "error"
		},
		{
			"inputs": [],
			"name": "TransitionToRecoveryFailed",
			"type": "error"
		},
		{
			"inputs": [],
			"name": "TreasuryNotSet",
			"type": "error"
		},
		{
			"inputs": [],
			"name": "UserZeroAddress",
			"type": "error"
		},
		{
			"inputs": [],
			"name": "WindowCannotBeSet",
			"type": "error"
		},
		{
			"inputs": [],
			"name": "WindowInvalid",
			"type": "error"
		},
		{
			"inputs": [],
			"name": "ZeroAddress",
			"type": "error"
		},
		{
			"inputs": [],
			"name": "ZeroAmount",
			"type": "error"
		},
		{
			"anonymous": false,
			"inputs": [
				{
					"indexed": true,
					"internalType": "address",
					"name": "owner",
					"type": "address"
				},
				{
					"indexed": true,
					"internalType": "address",
					"name": "spender",
					"type": "address"
				},
				{
					"indexed": false,
					"internalType": "uint256",
					"name": "value",
					"type": "uint256"
				}
			],
			"name": "Approval",
			"type": "event"
		},
		{
			"anonymous": false,
			"inputs": [
				{
					"indexed": true,
					"internalType": "address",
					"name": "bridge",
					"type": "address"
				}
			],
			"name": "BridgeContractSet",
			"type": "event"
		},
		{
			"anonymous": false,
			"inputs": [
				{
					"indexed": true,
					"internalType": "address",
					"name": "sender",
					"type": "address"
				},
				{
					"indexed": true,
					"internalType": "address",
					"name": "owner",
					"type": "address"
				},
				{
					"indexed": false,
					"internalType": "uint256",
					"name": "shares",
					"type": "uint256"
				}
			],
			"name": "Deposit",
			"type": "event"
		},
		{
			"anonymous": false,
			"inputs": [
				{
					"indexed": true,
					"internalType": "uint256",
					"name": "cap",
					"type": "uint256"
				}
			],
			"name": "DepositCapSet",
			"type": "event"
		},
		{
			"anonymous": false,
			"inputs": [
				{
					"indexed": true,
					"internalType": "uint64",
					"name": "start",
					"type": "uint64"
				},
				{
					"indexed": true,
					"internalType": "uint64",
					"name": "end",
					"type": "uint64"
				}
			],
			"name": "DepositWindowSet",
			"type": "event"
		},
		{
			"anonymous": false,
			"inputs": [],
			"name": "EIP712DomainChanged",
			"type": "event"
		},
		{
			"anonymous": false,
			"inputs": [
				{
					"indexed": true,
					"internalType": "address",
					"name": "user",
					"type": "address"
				},
				{
					"indexed": true,
					"internalType": "uint256",
					"name": "usdtAmount",
					"type": "uint256"
				},
				{
					"indexed": false,
					"internalType": "uint256",
					"name": "usdcAmount",
					"type": "uint256"
				},
				{
					"indexed": false,
					"internalType": "uint256",
					"name": "shares",
					"type": "uint256"
				}
			],
			"name": "KYCRecovery",
			"type": "event"
		},
		{
			"anonymous": false,
			"inputs": [
				{
					"indexed": true,
					"internalType": "address",
					"name": "sender",
					"type": "address"
				},
				{
					"indexed": true,
					"internalType": "address",
					"name": "receiver",
					"type": "address"
				},
				{
					"indexed": true,
					"internalType": "address",
					"name": "owner",
					"type": "address"
				},
				{
					"indexed": false,
					"internalType": "uint256",
					"name": "usdtAmount",
					"type": "uint256"
				},
				{
					"indexed": false,
					"internalType": "uint256",
					"name": "shares",
					"type": "uint256"
				}
			],
			"name": "KYCRedeem",
			"type": "event"
		},
		{
			"anonymous": false,
			"inputs": [
				{
					"indexed": true,
					"internalType": "address",
					"name": "account",
					"type": "address"
				},
				{
					"indexed": false,
					"internalType": "bool",
					"name": "status",
					"type": "bool"
				}
			],
			"name": "KYCStatusSet",
			"type": "event"
		},
		{
			"anonymous": false,
			"inputs": [
				{
					"indexed": true,
					"internalType": "address",
					"name": "user",
					"type": "address"
				},
				{
					"indexed": true,
					"internalType": "uint256",
					"name": "usdcAmount",
					"type": "uint256"
				},
				{
					"indexed": false,
					"internalType": "uint256",
					"name": "shares",
					"type": "uint256"
				}
			],
			"name": "NonKYCRecovery",
			"type": "event"
		},
		{
			"anonymous": false,
			"inputs": [
				{
					"indexed": true,
					"internalType": "enum OperationalMode",
					"name": "previousMode",
					"type": "uint8"
				},
				{
					"indexed": true,
					"internalType": "enum OperationalMode",
					"name": "newMode",
					"type": "uint8"
				}
			],
			"name": "OperationalModeChanged",
			"type": "event"
		},
		{
			"anonymous": false,
			"inputs": [
				{
					"indexed": true,
					"internalType": "address",
					"name": "token",
					"type": "address"
				},
				{
					"indexed": true,
					"internalType": "address",
					"name": "to",
					"type": "address"
				},
				{
					"indexed": true,
					"internalType": "uint256",
					"name": "amount",
					"type": "uint256"
				}
			],
			"name": "RecoveredERC20",
			"type": "event"
		},
		{
			"anonymous": false,
			"inputs": [
				{
					"indexed": true,
					"internalType": "bytes32",
					"name": "role",
					"type": "bytes32"
				},
				{
					"indexed": true,
					"internalType": "bytes32",
					"name": "previousAdminRole",
					"type": "bytes32"
				},
				{
					"indexed": true,
					"internalType": "bytes32",
					"name": "newAdminRole",
					"type": "bytes32"
				}
			],
			"name": "RoleAdminChanged",
			"type": "event"
		},
		{
			"anonymous": false,
			"inputs": [
				{
					"indexed": true,
					"internalType": "bytes32",
					"name": "role",
					"type": "bytes32"
				},
				{
					"indexed": true,
					"internalType": "address",
					"name": "account",
					"type": "address"
				},
				{
					"indexed": true,
					"internalType": "address",
					"name": "sender",
					"type": "address"
				}
			],
			"name": "RoleGranted",
			"type": "event"
		},
		{
			"anonymous": false,
			"inputs": [
				{
					"indexed": true,
					"internalType": "bytes32",
					"name": "role",
					"type": "bytes32"
				},
				{
					"indexed": true,
					"internalType": "address",
					"name": "account",
					"type": "address"
				},
				{
					"indexed": true,
					"internalType": "address",
					"name": "sender",
					"type": "address"
				}
			],
			"name": "RoleRevoked",
			"type": "event"
		},
		{
			"anonymous": false,
			"inputs": [
				{
					"indexed": true,
					"internalType": "address",
					"name": "from",
					"type": "address"
				},
				{
					"indexed": true,
					"internalType": "address",
					"name": "to",
					"type": "address"
				},
				{
					"indexed": false,
					"internalType": "uint256",
					"name": "value",
					"type": "uint256"
				}
			],
			"name": "Transfer",
			"type": "event"
		},
		{
			"anonymous": false,
			"inputs": [
				{
					"indexed": true,
					"internalType": "address",
					"name": "treasury",
					"type": "address"
				}
			],
			"name": "TreasuryAddressSet",
			"type": "event"
		},
		{
			"anonymous": false,
			"inputs": [
				{
					"indexed": true,
					"internalType": "address",
					"name": "to",
					"type": "address"
				},
				{
					"indexed": true,
					"internalType": "uint256",
					"name": "amount",
					"type": "uint256"
				}
			],
			"name": "TreasuryWithdrawal",
			"type": "event"
		},
		{
			"inputs": [],
			"name": "ADMIN_ROLE",
			"outputs": [
				{
					"internalType": "bytes32",
					"name": "",
					"type": "bytes32"
				}
			],
			"stateMutability": "view",
			"type": "function"
		},
		{
			"inputs": [],
			"name": "DEFAULT_ADMIN_ROLE",
			"outputs": [
				{
					"internalType": "bytes32",
					"name": "",
					"type": "bytes32"
				}
			],
			"stateMutability": "view",
			"type": "function"
		},
		{
			"inputs": [],
			"name": "DOMAIN_SEPARATOR",
			"outputs": [
				{
					"internalType": "bytes32",
					"name": "",
					"type": "bytes32"
				}
			],
			"stateMutability": "view",
			"type": "function"
		},
		{
			"inputs": [],
			"name": "MAX_KYC_BATCH_SIZE",
			"outputs": [
				{
					"internalType": "uint256",
					"name": "",
					"type": "uint256"
				}
			],
			"stateMutability": "view",
			"type": "function"
		},
		{
			"inputs": [],
			"name": "RECOVERY_TIMESTAMP",
			"outputs": [
				{
					"internalType": "uint256",
					"name": "",
					"type": "uint256"
				}
			],
			"stateMutability": "view",
			"type": "function"
		},
		{
			"inputs": [],
			"name": "TREASURY_ROLE",
			"outputs": [
				{
					"internalType": "bytes32",
					"name": "",
					"type": "bytes32"
				}
			],
			"stateMutability": "view",
			"type": "function"
		},
		{
			"inputs": [],
			"name": "USDC",
			"outputs": [
				{
					"internalType": "contract IERC20",
					"name": "",
					"type": "address"
				}
			],
			"stateMutability": "view",
			"type": "function"
		},
		{
			"inputs": [],
			"name": "USDT",
			"outputs": [
				{
					"internalType": "contract IERC20",
					"name": "",
					"type": "address"
				}
			],
			"stateMutability": "view",
			"type": "function"
		},
		{
			"inputs": [
				{
					"internalType": "address",
					"name": "owner",
					"type": "address"
				},
				{
					"internalType": "address",
					"name": "spender",
					"type": "address"
				}
			],
			"name": "allowance",
			"outputs": [
				{
					"internalType": "uint256",
					"name": "",
					"type": "uint256"
				}
			],
			"stateMutability": "view",
			"type": "function"
		},
		{
			"inputs": [
				{
					"internalType": "address",
					"name": "spender",
					"type": "address"
				},
				{
					"internalType": "uint256",
					"name": "value",
					"type": "uint256"
				}
			],
			"name": "approve",
			"outputs": [
				{
					"internalType": "bool",
					"name": "",
					"type": "bool"
				}
			],
			"stateMutability": "nonpayable",
			"type": "function"
		},
		{
			"inputs": [
				{
					"internalType": "address",
					"name": "account",
					"type": "address"
				}
			],
			"name": "balanceOf",
			"outputs": [
				{
					"internalType": "uint256",
					"name": "",
					"type": "uint256"
				}
			],
			"stateMutability": "view",
			"type": "function"
		},
		{
			"inputs": [
				{
					"internalType": "address[]",
					"name": "users",
					"type": "address[]"
				},
				{
					"internalType": "bool",
					"name": "status",
					"type": "bool"
				}
			],
			"name": "batchSetKycStatus",
			"outputs": [],
			"stateMutability": "nonpayable",
			"type": "function"
		},
		{
			"inputs": [],
			"name": "bridgeContract",
			"outputs": [
				{
					"internalType": "address",
					"name": "",
					"type": "address"
				}
			],
			"stateMutability": "view",
			"type": "function"
		},
		{
			"inputs": [],
			"name": "decimals",
			"outputs": [
				{
					"internalType": "uint8",
					"name": "",
					"type": "uint8"
				}
			],
			"stateMutability": "pure",
			"type": "function"
		},
		{
			"inputs": [
				{
					"internalType": "uint256",
					"name": "assets",
					"type": "uint256"
				},
				{
					"internalType": "address",
					"name": "receiver",
					"type": "address"
				}
			],
			"name": "deposit",
			"outputs": [],
			"stateMutability": "nonpayable",
			"type": "function"
		},
		{
			"inputs": [],
			"name": "depositCap",
			"outputs": [
				{
					"internalType": "uint256",
					"name": "",
					"type": "uint256"
				}
			],
			"stateMutability": "view",
			"type": "function"
		},
		{
			"inputs": [],
			"name": "depositEnd",
			"outputs": [
				{
					"internalType": "uint64",
					"name": "",
					"type": "uint64"
				}
			],
			"stateMutability": "view",
			"type": "function"
		},
		{
			"inputs": [],
			"name": "depositStart",
			"outputs": [
				{
					"internalType": "uint64",
					"name": "",
					"type": "uint64"
				}
			],
			"stateMutability": "view",
			"type": "function"
		},
		{
			"inputs": [],
			"name": "depositWindow",
			"outputs": [
				{
					"internalType": "uint64",
					"name": "start",
					"type": "uint64"
				},
				{
					"internalType": "uint64",
					"name": "end",
					"type": "uint64"
				}
			],
			"stateMutability": "view",
			"type": "function"
		},
		{
			"inputs": [],
			"name": "eip712Domain",
			"outputs": [
				{
					"internalType": "bytes1",
					"name": "fields",
					"type": "bytes1"
				},
				{
					"internalType": "string",
					"name": "name",
					"type": "string"
				},
				{
					"internalType": "string",
					"name": "version",
					"type": "string"
				},
				{
					"internalType": "uint256",
					"name": "chainId",
					"type": "uint256"
				},
				{
					"internalType": "address",
					"name": "verifyingContract",
					"type": "address"
				},
				{
					"internalType": "bytes32",
					"name": "salt",
					"type": "bytes32"
				},
				{
					"internalType": "uint256[]",
					"name": "extensions",
					"type": "uint256[]"
				}
			],
			"stateMutability": "view",
			"type": "function"
		},
		{
			"inputs": [
				{
					"internalType": "bytes32",
					"name": "role",
					"type": "bytes32"
				}
			],
			"name": "getRoleAdmin",
			"outputs": [
				{
					"internalType": "bytes32",
					"name": "",
					"type": "bytes32"
				}
			],
			"stateMutability": "view",
			"type": "function"
		},
		{
			"inputs": [
				{
					"internalType": "bytes32",
					"name": "role",
					"type": "bytes32"
				},
				{
					"internalType": "address",
					"name": "account",
					"type": "address"
				}
			],
			"name": "grantRole",
			"outputs": [],
			"stateMutability": "nonpayable",
			"type": "function"
		},
		{
			"inputs": [
				{
					"internalType": "bytes32",
					"name": "role",
					"type": "bytes32"
				},
				{
					"internalType": "address",
					"name": "account",
					"type": "address"
				}
			],
			"name": "hasRole",
			"outputs": [
				{
					"internalType": "bool",
					"name": "",
					"type": "bool"
				}
			],
			"stateMutability": "view",
			"type": "function"
		},
		{
			"inputs": [
				{
					"internalType": "address",
					"name": "account",
					"type": "address"
				}
			],
			"name": "isKycApproved",
			"outputs": [
				{
					"internalType": "bool",
					"name": "",
					"type": "bool"
				}
			],
			"stateMutability": "view",
			"type": "function"
		},
		{
			"inputs": [],
			"name": "maxDeposit",
			"outputs": [
				{
					"internalType": "uint256",
					"name": "maxAssets",
					"type": "uint256"
				}
			],
			"stateMutability": "view",
			"type": "function"
		},
		{
			"inputs": [
				{
					"internalType": "uint64",
					"name": "newStart",
					"type": "uint64"
				},
				{
					"internalType": "uint64",
					"name": "newEnd",
					"type": "uint64"
				}
			],
			"name": "modifyPendingDepositWindow",
			"outputs": [],
			"stateMutability": "nonpayable",
			"type": "function"
		},
		{
			"inputs": [
				{
					"internalType": "uint64",
					"name": "newEnd",
					"type": "uint64"
				}
			],
			"name": "modifyStartedDepositWindow",
			"outputs": [],
			"stateMutability": "nonpayable",
			"type": "function"
		},
		{
			"inputs": [],
			"name": "name",
			"outputs": [
				{
					"internalType": "string",
					"name": "",
					"type": "string"
				}
			],
			"stateMutability": "view",
			"type": "function"
		},
		{
			"inputs": [
				{
					"internalType": "address",
					"name": "owner",
					"type": "address"
				}
			],
			"name": "nonces",
			"outputs": [
				{
					"internalType": "uint256",
					"name": "",
					"type": "uint256"
				}
			],
			"stateMutability": "view",
			"type": "function"
		},
		{
			"inputs": [],
			"name": "operationalMode",
			"outputs": [
				{
					"internalType": "enum OperationalMode",
					"name": "",
					"type": "uint8"
				}
			],
			"stateMutability": "view",
			"type": "function"
		},
		{
			"inputs": [
				{
					"internalType": "address",
					"name": "owner",
					"type": "address"
				},
				{
					"internalType": "address",
					"name": "spender",
					"type": "address"
				},
				{
					"internalType": "uint256",
					"name": "value",
					"type": "uint256"
				},
				{
					"internalType": "uint256",
					"name": "deadline",
					"type": "uint256"
				},
				{
					"internalType": "uint8",
					"name": "v",
					"type": "uint8"
				},
				{
					"internalType": "bytes32",
					"name": "r",
					"type": "bytes32"
				},
				{
					"internalType": "bytes32",
					"name": "s",
					"type": "bytes32"
				}
			],
			"name": "permit",
			"outputs": [],
			"stateMutability": "nonpayable",
			"type": "function"
		},
		{
			"inputs": [
				{
					"internalType": "address",
					"name": "user",
					"type": "address"
				},
				{
					"internalType": "uint256",
					"name": "shares",
					"type": "uint256"
				}
			],
			"name": "previewRedeem",
			"outputs": [
				{
					"internalType": "uint256",
					"name": "usdtOut",
					"type": "uint256"
				},
				{
					"internalType": "uint256",
					"name": "usdcOut",
					"type": "uint256"
				},
				{
					"internalType": "bool",
					"name": "isKyc",
					"type": "bool"
				}
			],
			"stateMutability": "view",
			"type": "function"
		},
		{
			"inputs": [
				{
					"internalType": "uint256",
					"name": "shares",
					"type": "uint256"
				}
			],
			"name": "previewRedeemBridge",
			"outputs": [
				{
					"internalType": "uint256",
					"name": "assets",
					"type": "uint256"
				}
			],
			"stateMutability": "view",
			"type": "function"
		},
		{
			"inputs": [
				{
					"internalType": "address",
					"name": "token",
					"type": "address"
				},
				{
					"internalType": "address",
					"name": "to",
					"type": "address"
				}
			],
			"name": "recoverErc20",
			"outputs": [],
			"stateMutability": "nonpayable",
			"type": "function"
		},
		{
			"inputs": [
				{
					"internalType": "uint256",
					"name": "shares",
					"type": "uint256"
				},
				{
					"internalType": "address",
					"name": "receiver",
					"type": "address"
				},
				{
					"internalType": "address",
					"name": "owner",
					"type": "address"
				}
			],
			"name": "redeemBridge",
			"outputs": [
				{
					"internalType": "uint256",
					"name": "usdtOut",
					"type": "uint256"
				}
			],
			"stateMutability": "nonpayable",
			"type": "function"
		},
		{
			"inputs": [
				{
					"internalType": "uint256",
					"name": "shares",
					"type": "uint256"
				},
				{
					"internalType": "address",
					"name": "receiver",
					"type": "address"
				},
				{
					"internalType": "address",
					"name": "owner",
					"type": "address"
				}
			],
			"name": "redeemNonKyc",
			"outputs": [],
			"stateMutability": "nonpayable",
			"type": "function"
		},
		{
			"inputs": [
				{
					"internalType": "uint256",
					"name": "shares",
					"type": "uint256"
				},
				{
					"internalType": "address",
					"name": "receiver",
					"type": "address"
				},
				{
					"internalType": "address",
					"name": "owner",
					"type": "address"
				}
			],
			"name": "redeemRecoveryKyc",
			"outputs": [],
			"stateMutability": "nonpayable",
			"type": "function"
		},
		{
			"inputs": [
				{
					"internalType": "bytes32",
					"name": "role",
					"type": "bytes32"
				},
				{
					"internalType": "address",
					"name": "callerConfirmation",
					"type": "address"
				}
			],
			"name": "renounceRole",
			"outputs": [],
			"stateMutability": "nonpayable",
			"type": "function"
		},
		{
			"inputs": [
				{
					"internalType": "bytes32",
					"name": "role",
					"type": "bytes32"
				},
				{
					"internalType": "address",
					"name": "account",
					"type": "address"
				}
			],
			"name": "revokeRole",
			"outputs": [],
			"stateMutability": "nonpayable",
			"type": "function"
		},
		{
			"inputs": [
				{
					"internalType": "address",
					"name": "newBridgeContract",
					"type": "address"
				}
			],
			"name": "setBridgeContract",
			"outputs": [],
			"stateMutability": "nonpayable",
			"type": "function"
		},
		{
			"inputs": [
				{
					"internalType": "uint256",
					"name": "newCap",
					"type": "uint256"
				}
			],
			"name": "setDepositCap",
			"outputs": [],
			"stateMutability": "nonpayable",
			"type": "function"
		},
		{
			"inputs": [
				{
					"internalType": "address",
					"name": "newTreasury",
					"type": "address"
				}
			],
			"name": "setTreasuryAddress",
			"outputs": [],
			"stateMutability": "nonpayable",
			"type": "function"
		},
		{
			"inputs": [],
			"name": "sharesKyc",
			"outputs": [
				{
					"internalType": "uint256",
					"name": "",
					"type": "uint256"
				}
			],
			"stateMutability": "view",
			"type": "function"
		},
		{
			"inputs": [],
			"name": "sharesNonKyc",
			"outputs": [
				{
					"internalType": "uint256",
					"name": "",
					"type": "uint256"
				}
			],
			"stateMutability": "view",
			"type": "function"
		},
		{
			"inputs": [
				{
					"internalType": "bytes4",
					"name": "interfaceId",
					"type": "bytes4"
				}
			],
			"name": "supportsInterface",
			"outputs": [
				{
					"internalType": "bool",
					"name": "",
					"type": "bool"
				}
			],
			"stateMutability": "view",
			"type": "function"
		},
		{
			"inputs": [],
			"name": "symbol",
			"outputs": [
				{
					"internalType": "string",
					"name": "",
					"type": "string"
				}
			],
			"stateMutability": "view",
			"type": "function"
		},
		{
			"inputs": [],
			"name": "totalSupply",
			"outputs": [
				{
					"internalType": "uint256",
					"name": "",
					"type": "uint256"
				}
			],
			"stateMutability": "view",
			"type": "function"
		},
		{
			"inputs": [
				{
					"internalType": "address",
					"name": "to",
					"type": "address"
				},
				{
					"internalType": "uint256",
					"name": "value",
					"type": "uint256"
				}
			],
			"name": "transfer",
			"outputs": [
				{
					"internalType": "bool",
					"name": "",
					"type": "bool"
				}
			],
			"stateMutability": "nonpayable",
			"type": "function"
		},
		{
			"inputs": [
				{
					"internalType": "address",
					"name": "from",
					"type": "address"
				},
				{
					"internalType": "address",
					"name": "to",
					"type": "address"
				},
				{
					"internalType": "uint256",
					"name": "value",
					"type": "uint256"
				}
			],
			"name": "transferFrom",
			"outputs": [
				{
					"internalType": "bool",
					"name": "",
					"type": "bool"
				}
			],
			"stateMutability": "nonpayable",
			"type": "function"
		},
		{
			"inputs": [
				{
					"internalType": "uint256",
					"name": "amount",
					"type": "uint256"
				}
			],
			"name": "transferToTreasury",
			"outputs": [],
			"stateMutability": "nonpayable",
			"type": "function"
		},
		{
			"inputs": [],
			"name": "transitionToKycMode",
			"outputs": [],
			"stateMutability": "nonpayable",
			"type": "function"
		},
		{
			"inputs": [],
			"name": "transitionToRecoveryMode",
			"outputs": [],
			"stateMutability": "nonpayable",
			"type": "function"
		},
		{
			"inputs": [],
			"name": "transitionToWithdrawMode",
			"outputs": [],
			"stateMutability": "nonpayable",
			"type": "function"
		},
		{
			"inputs": [],
			"name": "transitionToYieldMode",
			"outputs": [],
			"stateMutability": "nonpayable",
			"type": "function"
		},
		{
			"inputs": [],
			"name": "treasuryAddress",
			"outputs": [
				{
					"internalType": "address",
					"name": "",
					"type": "address"
				}
			],
			"stateMutability": "view",
			"type": "function"
		},
		{
			"inputs": [],
			"name": "usdcKycDeployable",
			"outputs": [
				{
					"internalType": "uint256",
					"name": "",
					"type": "uint256"
				}
			],
			"stateMutability": "view",
			"type": "function"
		}
	]
}